{
	"compilerInput": "{\"language\":\"Solidity\",\"sources\":{\"ProofOfWorkout.sol\":{\"content\":\"// SPDX-License-Identifier: MIT\\r\\npragma solidity ^0.8.0;\\r\\n\\r\\ncontract ProofOfWorkoutWithLocation {\\r\\n    struct Workout {\\r\\n        uint256 id;\\r\\n        address user;\\r\\n        string workoutType;    // e.g., \\\"Chest\\\", \\\"Yoga\\\", etc.\\r\\n        uint256 duration;      // Duration in seconds\\r\\n        uint256 startTime;     // Start time of workout (UNIX timestamp)\\r\\n        uint256 endTime;       // End time of workout (UNIX timestamp)\\r\\n        uint256 latitudeStart; // Start Latitude (multiplied by 10^6 for precision)\\r\\n        uint256 longitudeStart;// Start Longitude (multiplied by 10^6 for precision)\\r\\n        uint256 latitudeEnd;   // End Latitude (multiplied by 10^6 for precision)\\r\\n        uint256 longitudeEnd;  // End Longitude (multiplied by 10^6 for precision)\\r\\n    }\\r\\n\\r\\n    mapping(address => Workout[]) private workouts;\\r\\n    uint256 public workoutCount;\\r\\n\\r\\n    event WorkoutLogged(\\r\\n        uint256 indexed id, \\r\\n        address indexed user, \\r\\n        string workoutType, \\r\\n        uint256 duration, \\r\\n        uint256 startTime, \\r\\n        uint256 endTime, \\r\\n        uint256 latitudeStart, \\r\\n        uint256 longitudeStart, \\r\\n        uint256 latitudeEnd, \\r\\n        uint256 longitudeEnd\\r\\n    );\\r\\n\\r\\n    // Function to log a new workout with location data\\r\\n    function logWorkout(\\r\\n        string memory _workoutType, \\r\\n        uint256 _duration, \\r\\n        uint256 _startTime, \\r\\n        uint256 _endTime, \\r\\n        uint256 _latitudeStart, \\r\\n        uint256 _longitudeStart, \\r\\n        uint256 _latitudeEnd, \\r\\n        uint256 _longitudeEnd\\r\\n    ) public {\\r\\n        require(bytes(_workoutType).length > 0, \\\"Workout type cannot be empty\\\");\\r\\n        require(_duration > 0, \\\"Duration must be greater than zero\\\");\\r\\n        require(_startTime > 0, \\\"Start time must be valid\\\");\\r\\n        require(_endTime > _startTime, \\\"End time must be greater than start time\\\");\\r\\n\\r\\n        workoutCount++;\\r\\n        workouts[msg.sender].push(Workout(\\r\\n            workoutCount, \\r\\n            msg.sender, \\r\\n            _workoutType, \\r\\n            _duration, \\r\\n            _startTime, \\r\\n            _endTime, \\r\\n            _latitudeStart, \\r\\n            _longitudeStart, \\r\\n            _latitudeEnd, \\r\\n            _longitudeEnd\\r\\n        ));\\r\\n\\r\\n        emit WorkoutLogged(\\r\\n            workoutCount, \\r\\n            msg.sender, \\r\\n            _workoutType, \\r\\n            _duration, \\r\\n            _startTime, \\r\\n            _endTime, \\r\\n            _latitudeStart, \\r\\n            _longitudeStart, \\r\\n            _latitudeEnd, \\r\\n            _longitudeEnd\\r\\n        );\\r\\n    }\\r\\n\\r\\n    // Function to retrieve workouts for a specific user\\r\\n    function getUserWorkouts(address _user) public view returns (Workout[] memory) {\\r\\n        return workouts[_user];\\r\\n    }\\r\\n\\r\\n    // Function to get the total number of workouts logged by a specific user\\r\\n    function getUserWorkoutCount(address _user) public view returns (uint256) {\\r\\n        return workouts[_user].length;\\r\\n    }\\r\\n}\\r\\n\"}},\"settings\":{\"optimizer\":{\"enabled\":false,\"runs\":200},\"outputSelection\":{\"*\":{\"\":[\"ast\"],\"*\":[\"abi\",\"metadata\",\"devdoc\",\"userdoc\",\"storageLayout\",\"evm.legacyAssembly\",\"evm.bytecode\",\"evm.deployedBytecode\",\"evm.methodIdentifiers\",\"evm.gasEstimates\",\"evm.assembly\"]}},\"remappings\":[]}}",
	"name": "ProofOfWorkoutWithLocation",
	"bytecode": {
		"linkReferences": {},
		"object": "6080604052348015600e575f80fd5b5061114e8061001c5f395ff3fe608060405234801561000f575f80fd5b506004361061004a575f3560e01c806322725bd81461004e57806335422e0f1461007e5780637cd4e3001461009c578063f432ceb3146100cc575b5f80fd5b61006860048036038101906100639190610665565b6100e8565b60405161007591906108b9565b60405180910390f35b6100866102b5565b60405161009391906108e8565b60405180910390f35b6100b660048036038101906100b19190610665565b6102bb565b6040516100c391906108e8565b60405180910390f35b6100e660048036038101906100e19190610a57565b610303565b005b60605f808373ffffffffffffffffffffffffffffffffffffffff1673ffffffffffffffffffffffffffffffffffffffff1681526020019081526020015f20805480602002602001604051908101604052809291908181526020015f905b828210156102aa578382905f5260205f2090600a0201604051806101400160405290815f8201548152602001600182015f9054906101000a900473ffffffffffffffffffffffffffffffffffffffff1673ffffffffffffffffffffffffffffffffffffffff1673ffffffffffffffffffffffffffffffffffffffff1681526020016002820180546101d590610b51565b80601f016020809104026020016040519081016040528092919081815260200182805461020190610b51565b801561024c5780601f106102235761010080835404028352916020019161024c565b820191905f5260205f20905b81548152906001019060200180831161022f57829003601f168201915b5050505050815260200160038201548152602001600482015481526020016005820154815260200160068201548152602001600782015481526020016008820154815260200160098201548152505081526020019060010190610145565b505050509050919050565b60015481565b5f805f8373ffffffffffffffffffffffffffffffffffffffff1673ffffffffffffffffffffffffffffffffffffffff1681526020019081526020015f20805490509050919050565b5f885111610346576040517f08c379a000000000000000000000000000000000000000000000000000000000815260040161033d90610bdb565b60405180910390fd5b5f8711610388576040517f08c379a000000000000000000000000000000000000000000000000000000000815260040161037f90610c69565b60405180910390fd5b5f86116103ca576040517f08c379a00000000000000000000000000000000000000000000000000000000081526004016103c190610cd1565b60405180910390fd5b85851161040c576040517f08c379a000000000000000000000000000000000000000000000000000000000815260040161040390610d5f565b60405180910390fd5b60015f81548092919061041e90610daa565b91905055505f803373ffffffffffffffffffffffffffffffffffffffff1673ffffffffffffffffffffffffffffffffffffffff1681526020019081526020015f2060405180610140016040528060015481526020013373ffffffffffffffffffffffffffffffffffffffff1681526020018a815260200189815260200188815260200187815260200186815260200185815260200184815260200183815250908060018154018082558091505060019003905f5260205f2090600a02015f909190919091505f820151815f01556020820151816001015f6101000a81548173ffffffffffffffffffffffffffffffffffffffff021916908373ffffffffffffffffffffffffffffffffffffffff16021790555060408201518160020190816105469190610f8e565b50606082015181600301556080820151816004015560a0820151816005015560c0820151816006015560e082015181600701556101008201518160080155610120820151816009015550503373ffffffffffffffffffffffffffffffffffffffff166001547f479d016b5e7d0738bd0a58ca8fb450e22aae7a78aa5d5fa6e9e310e43e53f20d8a8a8a8a8a8a8a8a6040516105e8989796959493929190611095565b60405180910390a35050505050505050565b5f604051905090565b5f80fd5b5f80fd5b5f73ffffffffffffffffffffffffffffffffffffffff82169050919050565b5f6106348261060b565b9050919050565b6106448161062a565b811461064e575f80fd5b50565b5f8135905061065f8161063b565b92915050565b5f6020828403121561067a57610679610603565b5b5f61068784828501610651565b91505092915050565b5f81519050919050565b5f82825260208201905092915050565b5f819050602082019050919050565b5f819050919050565b6106cb816106b9565b82525050565b6106da8161062a565b82525050565b5f81519050919050565b5f82825260208201905092915050565b8281835e5f83830152505050565b5f601f19601f8301169050919050565b5f610722826106e0565b61072c81856106ea565b935061073c8185602086016106fa565b61074581610708565b840191505092915050565b5f61014083015f8301516107665f8601826106c2565b50602083015161077960208601826106d1565b50604083015184820360408601526107918282610718565b91505060608301516107a660608601826106c2565b5060808301516107b960808601826106c2565b5060a08301516107cc60a08601826106c2565b5060c08301516107df60c08601826106c2565b5060e08301516107f260e08601826106c2565b506101008301516108076101008601826106c2565b5061012083015161081c6101208601826106c2565b508091505092915050565b5f6108328383610750565b905092915050565b5f602082019050919050565b5f61085082610690565b61085a818561069a565b93508360208202850161086c856106aa565b805f5b858110156108a757848403895281516108888582610827565b94506108938361083a565b925060208a0199505060018101905061086f565b50829750879550505050505092915050565b5f6020820190508181035f8301526108d18184610846565b905092915050565b6108e2816106b9565b82525050565b5f6020820190506108fb5f8301846108d9565b92915050565b5f80fd5b5f80fd5b7f4e487b71000000000000000000000000000000000000000000000000000000005f52604160045260245ffd5b61093f82610708565b810181811067ffffffffffffffff8211171561095e5761095d610909565b5b80604052505050565b5f6109706105fa565b905061097c8282610936565b919050565b5f67ffffffffffffffff82111561099b5761099a610909565b5b6109a482610708565b9050602081019050919050565b828183375f83830152505050565b5f6109d16109cc84610981565b610967565b9050828152602081018484840111156109ed576109ec610905565b5b6109f88482856109b1565b509392505050565b5f82601f830112610a1457610a13610901565b5b8135610a248482602086016109bf565b91505092915050565b610a36816106b9565b8114610a40575f80fd5b50565b5f81359050610a5181610a2d565b92915050565b5f805f805f805f80610100898b031215610a7457610a73610603565b5b5f89013567ffffffffffffffff811115610a9157610a90610607565b5b610a9d8b828c01610a00565b9850506020610aae8b828c01610a43565b9750506040610abf8b828c01610a43565b9650506060610ad08b828c01610a43565b9550506080610ae18b828c01610a43565b94505060a0610af28b828c01610a43565b93505060c0610b038b828c01610a43565b92505060e0610b148b828c01610a43565b9150509295985092959890939650565b7f4e487b71000000000000000000000000000000000000000000000000000000005f52602260045260245ffd5b5f6002820490506001821680610b6857607f821691505b602082108103610b7b57610b7a610b24565b5b50919050565b5f82825260208201905092915050565b7f576f726b6f757420747970652063616e6e6f7420626520656d707479000000005f82015250565b5f610bc5601c83610b81565b9150610bd082610b91565b602082019050919050565b5f6020820190508181035f830152610bf281610bb9565b9050919050565b7f4475726174696f6e206d7573742062652067726561746572207468616e207a655f8201527f726f000000000000000000000000000000000000000000000000000000000000602082015250565b5f610c53602283610b81565b9150610c5e82610bf9565b604082019050919050565b5f6020820190508181035f830152610c8081610c47565b9050919050565b7f53746172742074696d65206d7573742062652076616c696400000000000000005f82015250565b5f610cbb601883610b81565b9150610cc682610c87565b602082019050919050565b5f6020820190508181035f830152610ce881610caf565b9050919050565b7f456e642074696d65206d7573742062652067726561746572207468616e2073745f8201527f6172742074696d65000000000000000000000000000000000000000000000000602082015250565b5f610d49602883610b81565b9150610d5482610cef565b604082019050919050565b5f6020820190508181035f830152610d7681610d3d565b9050919050565b7f4e487b71000000000000000000000000000000000000000000000000000000005f52601160045260245ffd5b5f610db4826106b9565b91507fffffffffffffffffffffffffffffffffffffffffffffffffffffffffffffffff8203610de657610de5610d7d565b5b600182019050919050565b5f819050815f5260205f209050919050565b5f6020601f8301049050919050565b5f82821b905092915050565b5f60088302610e4d7fffffffffffffffffffffffffffffffffffffffffffffffffffffffffffffffff82610e12565b610e578683610e12565b95508019841693508086168417925050509392505050565b5f819050919050565b5f610e92610e8d610e88846106b9565b610e6f565b6106b9565b9050919050565b5f819050919050565b610eab83610e78565b610ebf610eb782610e99565b848454610e1e565b825550505050565b5f90565b610ed3610ec7565b610ede818484610ea2565b505050565b5b81811015610f0157610ef65f82610ecb565b600181019050610ee4565b5050565b601f821115610f4657610f1781610df1565b610f2084610e03565b81016020851015610f2f578190505b610f43610f3b85610e03565b830182610ee3565b50505b505050565b5f82821c905092915050565b5f610f665f1984600802610f4b565b1980831691505092915050565b5f610f7e8383610f57565b9150826002028217905092915050565b610f97826106e0565b67ffffffffffffffff811115610fb057610faf610909565b5b610fba8254610b51565b610fc5828285610f05565b5f60209050601f831160018114610ff6575f8415610fe4578287015190505b610fee8582610f73565b865550611055565b601f19841661100486610df1565b5f5b8281101561102b57848901518255600182019150602085019450602081019050611006565b868310156110485784890151611044601f891682610f57565b8355505b6001600288020188555050505b505050505050565b5f611067826106e0565b6110718185610b81565b93506110818185602086016106fa565b61108a81610708565b840191505092915050565b5f610100820190508181035f8301526110ae818b61105d565b90506110bd602083018a6108d9565b6110ca60408301896108d9565b6110d760608301886108d9565b6110e460808301876108d9565b6110f160a08301866108d9565b6110fe60c08301856108d9565b61110b60e08301846108d9565b999850505050505050505056fea26469706673582212201440589e7cca36e8d3f8327ef5fb85d9643ca2b5ba5cf5c89fa2be05d74952fc64736f6c634300081a0033",
		"opcodes": "PUSH1 0x80 PUSH1 0x40 MSTORE CALLVALUE DUP1 ISZERO PUSH1 0xE JUMPI PUSH0 DUP1 REVERT JUMPDEST POP PUSH2 0x114E DUP1 PUSH2 0x1C PUSH0 CODECOPY PUSH0 RETURN INVALID PUSH1 0x80 PUSH1 0x40 MSTORE CALLVALUE DUP1 ISZERO PUSH2 0xF JUMPI PUSH0 DUP1 REVERT JUMPDEST POP PUSH1 0x4 CALLDATASIZE LT PUSH2 0x4A JUMPI PUSH0 CALLDATALOAD PUSH1 0xE0 SHR DUP1 PUSH4 0x22725BD8 EQ PUSH2 0x4E JUMPI DUP1 PUSH4 0x35422E0F EQ PUSH2 0x7E JUMPI DUP1 PUSH4 0x7CD4E300 EQ PUSH2 0x9C JUMPI DUP1 PUSH4 0xF432CEB3 EQ PUSH2 0xCC JUMPI JUMPDEST PUSH0 DUP1 REVERT JUMPDEST PUSH2 0x68 PUSH1 0x4 DUP1 CALLDATASIZE SUB DUP2 ADD SWAP1 PUSH2 0x63 SWAP2 SWAP1 PUSH2 0x665 JUMP JUMPDEST PUSH2 0xE8 JUMP JUMPDEST PUSH1 0x40 MLOAD PUSH2 0x75 SWAP2 SWAP1 PUSH2 0x8B9 JUMP JUMPDEST PUSH1 0x40 MLOAD DUP1 SWAP2 SUB SWAP1 RETURN JUMPDEST PUSH2 0x86 PUSH2 0x2B5 JUMP JUMPDEST PUSH1 0x40 MLOAD PUSH2 0x93 SWAP2 SWAP1 PUSH2 0x8E8 JUMP JUMPDEST PUSH1 0x40 MLOAD DUP1 SWAP2 SUB SWAP1 RETURN JUMPDEST PUSH2 0xB6 PUSH1 0x4 DUP1 CALLDATASIZE SUB DUP2 ADD SWAP1 PUSH2 0xB1 SWAP2 SWAP1 PUSH2 0x665 JUMP JUMPDEST PUSH2 0x2BB JUMP JUMPDEST PUSH1 0x40 MLOAD PUSH2 0xC3 SWAP2 SWAP1 PUSH2 0x8E8 JUMP JUMPDEST PUSH1 0x40 MLOAD DUP1 SWAP2 SUB SWAP1 RETURN JUMPDEST PUSH2 0xE6 PUSH1 0x4 DUP1 CALLDATASIZE SUB DUP2 ADD SWAP1 PUSH2 0xE1 SWAP2 SWAP1 PUSH2 0xA57 JUMP JUMPDEST PUSH2 0x303 JUMP JUMPDEST STOP JUMPDEST PUSH1 0x60 PUSH0 DUP1 DUP4 PUSH20 0xFFFFFFFFFFFFFFFFFFFFFFFFFFFFFFFFFFFFFFFF AND PUSH20 0xFFFFFFFFFFFFFFFFFFFFFFFFFFFFFFFFFFFFFFFF AND DUP2 MSTORE PUSH1 0x20 ADD SWAP1 DUP2 MSTORE PUSH1 0x20 ADD PUSH0 KECCAK256 DUP1 SLOAD DUP1 PUSH1 0x20 MUL PUSH1 0x20 ADD PUSH1 0x40 MLOAD SWAP1 DUP2 ADD PUSH1 0x40 MSTORE DUP1 SWAP3 SWAP2 SWAP1 DUP2 DUP2 MSTORE PUSH1 0x20 ADD PUSH0 SWAP1 JUMPDEST DUP3 DUP3 LT ISZERO PUSH2 0x2AA JUMPI DUP4 DUP3 SWAP1 PUSH0 MSTORE PUSH1 0x20 PUSH0 KECCAK256 SWAP1 PUSH1 0xA MUL ADD PUSH1 0x40 MLOAD DUP1 PUSH2 0x140 ADD PUSH1 0x40 MSTORE SWAP1 DUP2 PUSH0 DUP3 ADD SLOAD DUP2 MSTORE PUSH1 0x20 ADD PUSH1 0x1 DUP3 ADD PUSH0 SWAP1 SLOAD SWAP1 PUSH2 0x100 EXP SWAP1 DIV PUSH20 0xFFFFFFFFFFFFFFFFFFFFFFFFFFFFFFFFFFFFFFFF AND PUSH20 0xFFFFFFFFFFFFFFFFFFFFFFFFFFFFFFFFFFFFFFFF AND PUSH20 0xFFFFFFFFFFFFFFFFFFFFFFFFFFFFFFFFFFFFFFFF AND DUP2 MSTORE PUSH1 0x20 ADD PUSH1 0x2 DUP3 ADD DUP1 SLOAD PUSH2 0x1D5 SWAP1 PUSH2 0xB51 JUMP JUMPDEST DUP1 PUSH1 0x1F ADD PUSH1 0x20 DUP1 SWAP2 DIV MUL PUSH1 0x20 ADD PUSH1 0x40 MLOAD SWAP1 DUP2 ADD PUSH1 0x40 MSTORE DUP1 SWAP3 SWAP2 SWAP1 DUP2 DUP2 MSTORE PUSH1 0x20 ADD DUP3 DUP1 SLOAD PUSH2 0x201 SWAP1 PUSH2 0xB51 JUMP JUMPDEST DUP1 ISZERO PUSH2 0x24C JUMPI DUP1 PUSH1 0x1F LT PUSH2 0x223 JUMPI PUSH2 0x100 DUP1 DUP4 SLOAD DIV MUL DUP4 MSTORE SWAP2 PUSH1 0x20 ADD SWAP2 PUSH2 0x24C JUMP JUMPDEST DUP3 ADD SWAP2 SWAP1 PUSH0 MSTORE PUSH1 0x20 PUSH0 KECCAK256 SWAP1 JUMPDEST DUP2 SLOAD DUP2 MSTORE SWAP1 PUSH1 0x1 ADD SWAP1 PUSH1 0x20 ADD DUP1 DUP4 GT PUSH2 0x22F JUMPI DUP3 SWAP1 SUB PUSH1 0x1F AND DUP3 ADD SWAP2 JUMPDEST POP POP POP POP POP DUP2 MSTORE PUSH1 0x20 ADD PUSH1 0x3 DUP3 ADD SLOAD DUP2 MSTORE PUSH1 0x20 ADD PUSH1 0x4 DUP3 ADD SLOAD DUP2 MSTORE PUSH1 0x20 ADD PUSH1 0x5 DUP3 ADD SLOAD DUP2 MSTORE PUSH1 0x20 ADD PUSH1 0x6 DUP3 ADD SLOAD DUP2 MSTORE PUSH1 0x20 ADD PUSH1 0x7 DUP3 ADD SLOAD DUP2 MSTORE PUSH1 0x20 ADD PUSH1 0x8 DUP3 ADD SLOAD DUP2 MSTORE PUSH1 0x20 ADD PUSH1 0x9 DUP3 ADD SLOAD DUP2 MSTORE POP POP DUP2 MSTORE PUSH1 0x20 ADD SWAP1 PUSH1 0x1 ADD SWAP1 PUSH2 0x145 JUMP JUMPDEST POP POP POP POP SWAP1 POP SWAP2 SWAP1 POP JUMP JUMPDEST PUSH1 0x1 SLOAD DUP2 JUMP JUMPDEST PUSH0 DUP1 PUSH0 DUP4 PUSH20 0xFFFFFFFFFFFFFFFFFFFFFFFFFFFFFFFFFFFFFFFF AND PUSH20 0xFFFFFFFFFFFFFFFFFFFFFFFFFFFFFFFFFFFFFFFF AND DUP2 MSTORE PUSH1 0x20 ADD SWAP1 DUP2 MSTORE PUSH1 0x20 ADD PUSH0 KECCAK256 DUP1 SLOAD SWAP1 POP SWAP1 POP SWAP2 SWAP1 POP JUMP JUMPDEST PUSH0 DUP9 MLOAD GT PUSH2 0x346 JUMPI PUSH1 0x40 MLOAD PUSH32 0x8C379A000000000000000000000000000000000000000000000000000000000 DUP2 MSTORE PUSH1 0x4 ADD PUSH2 0x33D SWAP1 PUSH2 0xBDB JUMP JUMPDEST PUSH1 0x40 MLOAD DUP1 SWAP2 SUB SWAP1 REVERT JUMPDEST PUSH0 DUP8 GT PUSH2 0x388 JUMPI PUSH1 0x40 MLOAD PUSH32 0x8C379A000000000000000000000000000000000000000000000000000000000 DUP2 MSTORE PUSH1 0x4 ADD PUSH2 0x37F SWAP1 PUSH2 0xC69 JUMP JUMPDEST PUSH1 0x40 MLOAD DUP1 SWAP2 SUB SWAP1 REVERT JUMPDEST PUSH0 DUP7 GT PUSH2 0x3CA JUMPI PUSH1 0x40 MLOAD PUSH32 0x8C379A000000000000000000000000000000000000000000000000000000000 DUP2 MSTORE PUSH1 0x4 ADD PUSH2 0x3C1 SWAP1 PUSH2 0xCD1 JUMP JUMPDEST PUSH1 0x40 MLOAD DUP1 SWAP2 SUB SWAP1 REVERT JUMPDEST DUP6 DUP6 GT PUSH2 0x40C JUMPI PUSH1 0x40 MLOAD PUSH32 0x8C379A000000000000000000000000000000000000000000000000000000000 DUP2 MSTORE PUSH1 0x4 ADD PUSH2 0x403 SWAP1 PUSH2 0xD5F JUMP JUMPDEST PUSH1 0x40 MLOAD DUP1 SWAP2 SUB SWAP1 REVERT JUMPDEST PUSH1 0x1 PUSH0 DUP2 SLOAD DUP1 SWAP3 SWAP2 SWAP1 PUSH2 0x41E SWAP1 PUSH2 0xDAA JUMP JUMPDEST SWAP2 SWAP1 POP SSTORE POP PUSH0 DUP1 CALLER PUSH20 0xFFFFFFFFFFFFFFFFFFFFFFFFFFFFFFFFFFFFFFFF AND PUSH20 0xFFFFFFFFFFFFFFFFFFFFFFFFFFFFFFFFFFFFFFFF AND DUP2 MSTORE PUSH1 0x20 ADD SWAP1 DUP2 MSTORE PUSH1 0x20 ADD PUSH0 KECCAK256 PUSH1 0x40 MLOAD DUP1 PUSH2 0x140 ADD PUSH1 0x40 MSTORE DUP1 PUSH1 0x1 SLOAD DUP2 MSTORE PUSH1 0x20 ADD CALLER PUSH20 0xFFFFFFFFFFFFFFFFFFFFFFFFFFFFFFFFFFFFFFFF AND DUP2 MSTORE PUSH1 0x20 ADD DUP11 DUP2 MSTORE PUSH1 0x20 ADD DUP10 DUP2 MSTORE PUSH1 0x20 ADD DUP9 DUP2 MSTORE PUSH1 0x20 ADD DUP8 DUP2 MSTORE PUSH1 0x20 ADD DUP7 DUP2 MSTORE PUSH1 0x20 ADD DUP6 DUP2 MSTORE PUSH1 0x20 ADD DUP5 DUP2 MSTORE PUSH1 0x20 ADD DUP4 DUP2 MSTORE POP SWAP1 DUP1 PUSH1 0x1 DUP2 SLOAD ADD DUP1 DUP3 SSTORE DUP1 SWAP2 POP POP PUSH1 0x1 SWAP1 SUB SWAP1 PUSH0 MSTORE PUSH1 0x20 PUSH0 KECCAK256 SWAP1 PUSH1 0xA MUL ADD PUSH0 SWAP1 SWAP2 SWAP1 SWAP2 SWAP1 SWAP2 POP PUSH0 DUP3 ADD MLOAD DUP2 PUSH0 ADD SSTORE PUSH1 0x20 DUP3 ADD MLOAD DUP2 PUSH1 0x1 ADD PUSH0 PUSH2 0x100 EXP DUP2 SLOAD DUP2 PUSH20 0xFFFFFFFFFFFFFFFFFFFFFFFFFFFFFFFFFFFFFFFF MUL NOT AND SWAP1 DUP4 PUSH20 0xFFFFFFFFFFFFFFFFFFFFFFFFFFFFFFFFFFFFFFFF AND MUL OR SWAP1 SSTORE POP PUSH1 0x40 DUP3 ADD MLOAD DUP2 PUSH1 0x2 ADD SWAP1 DUP2 PUSH2 0x546 SWAP2 SWAP1 PUSH2 0xF8E JUMP JUMPDEST POP PUSH1 0x60 DUP3 ADD MLOAD DUP2 PUSH1 0x3 ADD SSTORE PUSH1 0x80 DUP3 ADD MLOAD DUP2 PUSH1 0x4 ADD SSTORE PUSH1 0xA0 DUP3 ADD MLOAD DUP2 PUSH1 0x5 ADD SSTORE PUSH1 0xC0 DUP3 ADD MLOAD DUP2 PUSH1 0x6 ADD SSTORE PUSH1 0xE0 DUP3 ADD MLOAD DUP2 PUSH1 0x7 ADD SSTORE PUSH2 0x100 DUP3 ADD MLOAD DUP2 PUSH1 0x8 ADD SSTORE PUSH2 0x120 DUP3 ADD MLOAD DUP2 PUSH1 0x9 ADD SSTORE POP POP CALLER PUSH20 0xFFFFFFFFFFFFFFFFFFFFFFFFFFFFFFFFFFFFFFFF AND PUSH1 0x1 SLOAD PUSH32 0x479D016B5E7D0738BD0A58CA8FB450E22AAE7A78AA5D5FA6E9E310E43E53F20D DUP11 DUP11 DUP11 DUP11 DUP11 DUP11 DUP11 DUP11 PUSH1 0x40 MLOAD PUSH2 0x5E8 SWAP9 SWAP8 SWAP7 SWAP6 SWAP5 SWAP4 SWAP3 SWAP2 SWAP1 PUSH2 0x1095 JUMP JUMPDEST PUSH1 0x40 MLOAD DUP1 SWAP2 SUB SWAP1 LOG3 POP POP POP POP POP POP POP POP JUMP JUMPDEST PUSH0 PUSH1 0x40 MLOAD SWAP1 POP SWAP1 JUMP JUMPDEST PUSH0 DUP1 REVERT JUMPDEST PUSH0 DUP1 REVERT JUMPDEST PUSH0 PUSH20 0xFFFFFFFFFFFFFFFFFFFFFFFFFFFFFFFFFFFFFFFF DUP3 AND SWAP1 POP SWAP2 SWAP1 POP JUMP JUMPDEST PUSH0 PUSH2 0x634 DUP3 PUSH2 0x60B JUMP JUMPDEST SWAP1 POP SWAP2 SWAP1 POP JUMP JUMPDEST PUSH2 0x644 DUP2 PUSH2 0x62A JUMP JUMPDEST DUP2 EQ PUSH2 0x64E JUMPI PUSH0 DUP1 REVERT JUMPDEST POP JUMP JUMPDEST PUSH0 DUP2 CALLDATALOAD SWAP1 POP PUSH2 0x65F DUP2 PUSH2 0x63B JUMP JUMPDEST SWAP3 SWAP2 POP POP JUMP JUMPDEST PUSH0 PUSH1 0x20 DUP3 DUP5 SUB SLT ISZERO PUSH2 0x67A JUMPI PUSH2 0x679 PUSH2 0x603 JUMP JUMPDEST JUMPDEST PUSH0 PUSH2 0x687 DUP5 DUP3 DUP6 ADD PUSH2 0x651 JUMP JUMPDEST SWAP2 POP POP SWAP3 SWAP2 POP POP JUMP JUMPDEST PUSH0 DUP2 MLOAD SWAP1 POP SWAP2 SWAP1 POP JUMP JUMPDEST PUSH0 DUP3 DUP3 MSTORE PUSH1 0x20 DUP3 ADD SWAP1 POP SWAP3 SWAP2 POP POP JUMP JUMPDEST PUSH0 DUP2 SWAP1 POP PUSH1 0x20 DUP3 ADD SWAP1 POP SWAP2 SWAP1 POP JUMP JUMPDEST PUSH0 DUP2 SWAP1 POP SWAP2 SWAP1 POP JUMP JUMPDEST PUSH2 0x6CB DUP2 PUSH2 0x6B9 JUMP JUMPDEST DUP3 MSTORE POP POP JUMP JUMPDEST PUSH2 0x6DA DUP2 PUSH2 0x62A JUMP JUMPDEST DUP3 MSTORE POP POP JUMP JUMPDEST PUSH0 DUP2 MLOAD SWAP1 POP SWAP2 SWAP1 POP JUMP JUMPDEST PUSH0 DUP3 DUP3 MSTORE PUSH1 0x20 DUP3 ADD SWAP1 POP SWAP3 SWAP2 POP POP JUMP JUMPDEST DUP3 DUP2 DUP4 MCOPY PUSH0 DUP4 DUP4 ADD MSTORE POP POP POP JUMP JUMPDEST PUSH0 PUSH1 0x1F NOT PUSH1 0x1F DUP4 ADD AND SWAP1 POP SWAP2 SWAP1 POP JUMP JUMPDEST PUSH0 PUSH2 0x722 DUP3 PUSH2 0x6E0 JUMP JUMPDEST PUSH2 0x72C DUP2 DUP6 PUSH2 0x6EA JUMP JUMPDEST SWAP4 POP PUSH2 0x73C DUP2 DUP6 PUSH1 0x20 DUP7 ADD PUSH2 0x6FA JUMP JUMPDEST PUSH2 0x745 DUP2 PUSH2 0x708 JUMP JUMPDEST DUP5 ADD SWAP2 POP POP SWAP3 SWAP2 POP POP JUMP JUMPDEST PUSH0 PUSH2 0x140 DUP4 ADD PUSH0 DUP4 ADD MLOAD PUSH2 0x766 PUSH0 DUP7 ADD DUP3 PUSH2 0x6C2 JUMP JUMPDEST POP PUSH1 0x20 DUP4 ADD MLOAD PUSH2 0x779 PUSH1 0x20 DUP7 ADD DUP3 PUSH2 0x6D1 JUMP JUMPDEST POP PUSH1 0x40 DUP4 ADD MLOAD DUP5 DUP3 SUB PUSH1 0x40 DUP7 ADD MSTORE PUSH2 0x791 DUP3 DUP3 PUSH2 0x718 JUMP JUMPDEST SWAP2 POP POP PUSH1 0x60 DUP4 ADD MLOAD PUSH2 0x7A6 PUSH1 0x60 DUP7 ADD DUP3 PUSH2 0x6C2 JUMP JUMPDEST POP PUSH1 0x80 DUP4 ADD MLOAD PUSH2 0x7B9 PUSH1 0x80 DUP7 ADD DUP3 PUSH2 0x6C2 JUMP JUMPDEST POP PUSH1 0xA0 DUP4 ADD MLOAD PUSH2 0x7CC PUSH1 0xA0 DUP7 ADD DUP3 PUSH2 0x6C2 JUMP JUMPDEST POP PUSH1 0xC0 DUP4 ADD MLOAD PUSH2 0x7DF PUSH1 0xC0 DUP7 ADD DUP3 PUSH2 0x6C2 JUMP JUMPDEST POP PUSH1 0xE0 DUP4 ADD MLOAD PUSH2 0x7F2 PUSH1 0xE0 DUP7 ADD DUP3 PUSH2 0x6C2 JUMP JUMPDEST POP PUSH2 0x100 DUP4 ADD MLOAD PUSH2 0x807 PUSH2 0x100 DUP7 ADD DUP3 PUSH2 0x6C2 JUMP JUMPDEST POP PUSH2 0x120 DUP4 ADD MLOAD PUSH2 0x81C PUSH2 0x120 DUP7 ADD DUP3 PUSH2 0x6C2 JUMP JUMPDEST POP DUP1 SWAP2 POP POP SWAP3 SWAP2 POP POP JUMP JUMPDEST PUSH0 PUSH2 0x832 DUP4 DUP4 PUSH2 0x750 JUMP JUMPDEST SWAP1 POP SWAP3 SWAP2 POP POP JUMP JUMPDEST PUSH0 PUSH1 0x20 DUP3 ADD SWAP1 POP SWAP2 SWAP1 POP JUMP JUMPDEST PUSH0 PUSH2 0x850 DUP3 PUSH2 0x690 JUMP JUMPDEST PUSH2 0x85A DUP2 DUP6 PUSH2 0x69A JUMP JUMPDEST SWAP4 POP DUP4 PUSH1 0x20 DUP3 MUL DUP6 ADD PUSH2 0x86C DUP6 PUSH2 0x6AA JUMP JUMPDEST DUP1 PUSH0 JUMPDEST DUP6 DUP2 LT ISZERO PUSH2 0x8A7 JUMPI DUP5 DUP5 SUB DUP10 MSTORE DUP2 MLOAD PUSH2 0x888 DUP6 DUP3 PUSH2 0x827 JUMP JUMPDEST SWAP5 POP PUSH2 0x893 DUP4 PUSH2 0x83A JUMP JUMPDEST SWAP3 POP PUSH1 0x20 DUP11 ADD SWAP10 POP POP PUSH1 0x1 DUP2 ADD SWAP1 POP PUSH2 0x86F JUMP JUMPDEST POP DUP3 SWAP8 POP DUP8 SWAP6 POP POP POP POP POP POP SWAP3 SWAP2 POP POP JUMP JUMPDEST PUSH0 PUSH1 0x20 DUP3 ADD SWAP1 POP DUP2 DUP2 SUB PUSH0 DUP4 ADD MSTORE PUSH2 0x8D1 DUP2 DUP5 PUSH2 0x846 JUMP JUMPDEST SWAP1 POP SWAP3 SWAP2 POP POP JUMP JUMPDEST PUSH2 0x8E2 DUP2 PUSH2 0x6B9 JUMP JUMPDEST DUP3 MSTORE POP POP JUMP JUMPDEST PUSH0 PUSH1 0x20 DUP3 ADD SWAP1 POP PUSH2 0x8FB PUSH0 DUP4 ADD DUP5 PUSH2 0x8D9 JUMP JUMPDEST SWAP3 SWAP2 POP POP JUMP JUMPDEST PUSH0 DUP1 REVERT JUMPDEST PUSH0 DUP1 REVERT JUMPDEST PUSH32 0x4E487B7100000000000000000000000000000000000000000000000000000000 PUSH0 MSTORE PUSH1 0x41 PUSH1 0x4 MSTORE PUSH1 0x24 PUSH0 REVERT JUMPDEST PUSH2 0x93F DUP3 PUSH2 0x708 JUMP JUMPDEST DUP2 ADD DUP2 DUP2 LT PUSH8 0xFFFFFFFFFFFFFFFF DUP3 GT OR ISZERO PUSH2 0x95E JUMPI PUSH2 0x95D PUSH2 0x909 JUMP JUMPDEST JUMPDEST DUP1 PUSH1 0x40 MSTORE POP POP POP JUMP JUMPDEST PUSH0 PUSH2 0x970 PUSH2 0x5FA JUMP JUMPDEST SWAP1 POP PUSH2 0x97C DUP3 DUP3 PUSH2 0x936 JUMP JUMPDEST SWAP2 SWAP1 POP JUMP JUMPDEST PUSH0 PUSH8 0xFFFFFFFFFFFFFFFF DUP3 GT ISZERO PUSH2 0x99B JUMPI PUSH2 0x99A PUSH2 0x909 JUMP JUMPDEST JUMPDEST PUSH2 0x9A4 DUP3 PUSH2 0x708 JUMP JUMPDEST SWAP1 POP PUSH1 0x20 DUP2 ADD SWAP1 POP SWAP2 SWAP1 POP JUMP JUMPDEST DUP3 DUP2 DUP4 CALLDATACOPY PUSH0 DUP4 DUP4 ADD MSTORE POP POP POP JUMP JUMPDEST PUSH0 PUSH2 0x9D1 PUSH2 0x9CC DUP5 PUSH2 0x981 JUMP JUMPDEST PUSH2 0x967 JUMP JUMPDEST SWAP1 POP DUP3 DUP2 MSTORE PUSH1 0x20 DUP2 ADD DUP5 DUP5 DUP5 ADD GT ISZERO PUSH2 0x9ED JUMPI PUSH2 0x9EC PUSH2 0x905 JUMP JUMPDEST JUMPDEST PUSH2 0x9F8 DUP5 DUP3 DUP6 PUSH2 0x9B1 JUMP JUMPDEST POP SWAP4 SWAP3 POP POP POP JUMP JUMPDEST PUSH0 DUP3 PUSH1 0x1F DUP4 ADD SLT PUSH2 0xA14 JUMPI PUSH2 0xA13 PUSH2 0x901 JUMP JUMPDEST JUMPDEST DUP2 CALLDATALOAD PUSH2 0xA24 DUP5 DUP3 PUSH1 0x20 DUP7 ADD PUSH2 0x9BF JUMP JUMPDEST SWAP2 POP POP SWAP3 SWAP2 POP POP JUMP JUMPDEST PUSH2 0xA36 DUP2 PUSH2 0x6B9 JUMP JUMPDEST DUP2 EQ PUSH2 0xA40 JUMPI PUSH0 DUP1 REVERT JUMPDEST POP JUMP JUMPDEST PUSH0 DUP2 CALLDATALOAD SWAP1 POP PUSH2 0xA51 DUP2 PUSH2 0xA2D JUMP JUMPDEST SWAP3 SWAP2 POP POP JUMP JUMPDEST PUSH0 DUP1 PUSH0 DUP1 PUSH0 DUP1 PUSH0 DUP1 PUSH2 0x100 DUP10 DUP12 SUB SLT ISZERO PUSH2 0xA74 JUMPI PUSH2 0xA73 PUSH2 0x603 JUMP JUMPDEST JUMPDEST PUSH0 DUP10 ADD CALLDATALOAD PUSH8 0xFFFFFFFFFFFFFFFF DUP2 GT ISZERO PUSH2 0xA91 JUMPI PUSH2 0xA90 PUSH2 0x607 JUMP JUMPDEST JUMPDEST PUSH2 0xA9D DUP12 DUP3 DUP13 ADD PUSH2 0xA00 JUMP JUMPDEST SWAP9 POP POP PUSH1 0x20 PUSH2 0xAAE DUP12 DUP3 DUP13 ADD PUSH2 0xA43 JUMP JUMPDEST SWAP8 POP POP PUSH1 0x40 PUSH2 0xABF DUP12 DUP3 DUP13 ADD PUSH2 0xA43 JUMP JUMPDEST SWAP7 POP POP PUSH1 0x60 PUSH2 0xAD0 DUP12 DUP3 DUP13 ADD PUSH2 0xA43 JUMP JUMPDEST SWAP6 POP POP PUSH1 0x80 PUSH2 0xAE1 DUP12 DUP3 DUP13 ADD PUSH2 0xA43 JUMP JUMPDEST SWAP5 POP POP PUSH1 0xA0 PUSH2 0xAF2 DUP12 DUP3 DUP13 ADD PUSH2 0xA43 JUMP JUMPDEST SWAP4 POP POP PUSH1 0xC0 PUSH2 0xB03 DUP12 DUP3 DUP13 ADD PUSH2 0xA43 JUMP JUMPDEST SWAP3 POP POP PUSH1 0xE0 PUSH2 0xB14 DUP12 DUP3 DUP13 ADD PUSH2 0xA43 JUMP JUMPDEST SWAP2 POP POP SWAP3 SWAP6 SWAP9 POP SWAP3 SWAP6 SWAP9 SWAP1 SWAP4 SWAP7 POP JUMP JUMPDEST PUSH32 0x4E487B7100000000000000000000000000000000000000000000000000000000 PUSH0 MSTORE PUSH1 0x22 PUSH1 0x4 MSTORE PUSH1 0x24 PUSH0 REVERT JUMPDEST PUSH0 PUSH1 0x2 DUP3 DIV SWAP1 POP PUSH1 0x1 DUP3 AND DUP1 PUSH2 0xB68 JUMPI PUSH1 0x7F DUP3 AND SWAP2 POP JUMPDEST PUSH1 0x20 DUP3 LT DUP2 SUB PUSH2 0xB7B JUMPI PUSH2 0xB7A PUSH2 0xB24 JUMP JUMPDEST JUMPDEST POP SWAP2 SWAP1 POP JUMP JUMPDEST PUSH0 DUP3 DUP3 MSTORE PUSH1 0x20 DUP3 ADD SWAP1 POP SWAP3 SWAP2 POP POP JUMP JUMPDEST PUSH32 0x576F726B6F757420747970652063616E6E6F7420626520656D70747900000000 PUSH0 DUP3 ADD MSTORE POP JUMP JUMPDEST PUSH0 PUSH2 0xBC5 PUSH1 0x1C DUP4 PUSH2 0xB81 JUMP JUMPDEST SWAP2 POP PUSH2 0xBD0 DUP3 PUSH2 0xB91 JUMP JUMPDEST PUSH1 0x20 DUP3 ADD SWAP1 POP SWAP2 SWAP1 POP JUMP JUMPDEST PUSH0 PUSH1 0x20 DUP3 ADD SWAP1 POP DUP2 DUP2 SUB PUSH0 DUP4 ADD MSTORE PUSH2 0xBF2 DUP2 PUSH2 0xBB9 JUMP JUMPDEST SWAP1 POP SWAP2 SWAP1 POP JUMP JUMPDEST PUSH32 0x4475726174696F6E206D7573742062652067726561746572207468616E207A65 PUSH0 DUP3 ADD MSTORE PUSH32 0x726F000000000000000000000000000000000000000000000000000000000000 PUSH1 0x20 DUP3 ADD MSTORE POP JUMP JUMPDEST PUSH0 PUSH2 0xC53 PUSH1 0x22 DUP4 PUSH2 0xB81 JUMP JUMPDEST SWAP2 POP PUSH2 0xC5E DUP3 PUSH2 0xBF9 JUMP JUMPDEST PUSH1 0x40 DUP3 ADD SWAP1 POP SWAP2 SWAP1 POP JUMP JUMPDEST PUSH0 PUSH1 0x20 DUP3 ADD SWAP1 POP DUP2 DUP2 SUB PUSH0 DUP4 ADD MSTORE PUSH2 0xC80 DUP2 PUSH2 0xC47 JUMP JUMPDEST SWAP1 POP SWAP2 SWAP1 POP JUMP JUMPDEST PUSH32 0x53746172742074696D65206D7573742062652076616C69640000000000000000 PUSH0 DUP3 ADD MSTORE POP JUMP JUMPDEST PUSH0 PUSH2 0xCBB PUSH1 0x18 DUP4 PUSH2 0xB81 JUMP JUMPDEST SWAP2 POP PUSH2 0xCC6 DUP3 PUSH2 0xC87 JUMP JUMPDEST PUSH1 0x20 DUP3 ADD SWAP1 POP SWAP2 SWAP1 POP JUMP JUMPDEST PUSH0 PUSH1 0x20 DUP3 ADD SWAP1 POP DUP2 DUP2 SUB PUSH0 DUP4 ADD MSTORE PUSH2 0xCE8 DUP2 PUSH2 0xCAF JUMP JUMPDEST SWAP1 POP SWAP2 SWAP1 POP JUMP JUMPDEST PUSH32 0x456E642074696D65206D7573742062652067726561746572207468616E207374 PUSH0 DUP3 ADD MSTORE PUSH32 0x6172742074696D65000000000000000000000000000000000000000000000000 PUSH1 0x20 DUP3 ADD MSTORE POP JUMP JUMPDEST PUSH0 PUSH2 0xD49 PUSH1 0x28 DUP4 PUSH2 0xB81 JUMP JUMPDEST SWAP2 POP PUSH2 0xD54 DUP3 PUSH2 0xCEF JUMP JUMPDEST PUSH1 0x40 DUP3 ADD SWAP1 POP SWAP2 SWAP1 POP JUMP JUMPDEST PUSH0 PUSH1 0x20 DUP3 ADD SWAP1 POP DUP2 DUP2 SUB PUSH0 DUP4 ADD MSTORE PUSH2 0xD76 DUP2 PUSH2 0xD3D JUMP JUMPDEST SWAP1 POP SWAP2 SWAP1 POP JUMP JUMPDEST PUSH32 0x4E487B7100000000000000000000000000000000000000000000000000000000 PUSH0 MSTORE PUSH1 0x11 PUSH1 0x4 MSTORE PUSH1 0x24 PUSH0 REVERT JUMPDEST PUSH0 PUSH2 0xDB4 DUP3 PUSH2 0x6B9 JUMP JUMPDEST SWAP2 POP PUSH32 0xFFFFFFFFFFFFFFFFFFFFFFFFFFFFFFFFFFFFFFFFFFFFFFFFFFFFFFFFFFFFFFFF DUP3 SUB PUSH2 0xDE6 JUMPI PUSH2 0xDE5 PUSH2 0xD7D JUMP JUMPDEST JUMPDEST PUSH1 0x1 DUP3 ADD SWAP1 POP SWAP2 SWAP1 POP JUMP JUMPDEST PUSH0 DUP2 SWAP1 POP DUP2 PUSH0 MSTORE PUSH1 0x20 PUSH0 KECCAK256 SWAP1 POP SWAP2 SWAP1 POP JUMP JUMPDEST PUSH0 PUSH1 0x20 PUSH1 0x1F DUP4 ADD DIV SWAP1 POP SWAP2 SWAP1 POP JUMP JUMPDEST PUSH0 DUP3 DUP3 SHL SWAP1 POP SWAP3 SWAP2 POP POP JUMP JUMPDEST PUSH0 PUSH1 0x8 DUP4 MUL PUSH2 0xE4D PUSH32 0xFFFFFFFFFFFFFFFFFFFFFFFFFFFFFFFFFFFFFFFFFFFFFFFFFFFFFFFFFFFFFFFF DUP3 PUSH2 0xE12 JUMP JUMPDEST PUSH2 0xE57 DUP7 DUP4 PUSH2 0xE12 JUMP JUMPDEST SWAP6 POP DUP1 NOT DUP5 AND SWAP4 POP DUP1 DUP7 AND DUP5 OR SWAP3 POP POP POP SWAP4 SWAP3 POP POP POP JUMP JUMPDEST PUSH0 DUP2 SWAP1 POP SWAP2 SWAP1 POP JUMP JUMPDEST PUSH0 PUSH2 0xE92 PUSH2 0xE8D PUSH2 0xE88 DUP5 PUSH2 0x6B9 JUMP JUMPDEST PUSH2 0xE6F JUMP JUMPDEST PUSH2 0x6B9 JUMP JUMPDEST SWAP1 POP SWAP2 SWAP1 POP JUMP JUMPDEST PUSH0 DUP2 SWAP1 POP SWAP2 SWAP1 POP JUMP JUMPDEST PUSH2 0xEAB DUP4 PUSH2 0xE78 JUMP JUMPDEST PUSH2 0xEBF PUSH2 0xEB7 DUP3 PUSH2 0xE99 JUMP JUMPDEST DUP5 DUP5 SLOAD PUSH2 0xE1E JUMP JUMPDEST DUP3 SSTORE POP POP POP POP JUMP JUMPDEST PUSH0 SWAP1 JUMP JUMPDEST PUSH2 0xED3 PUSH2 0xEC7 JUMP JUMPDEST PUSH2 0xEDE DUP2 DUP5 DUP5 PUSH2 0xEA2 JUMP JUMPDEST POP POP POP JUMP JUMPDEST JUMPDEST DUP2 DUP2 LT ISZERO PUSH2 0xF01 JUMPI PUSH2 0xEF6 PUSH0 DUP3 PUSH2 0xECB JUMP JUMPDEST PUSH1 0x1 DUP2 ADD SWAP1 POP PUSH2 0xEE4 JUMP JUMPDEST POP POP JUMP JUMPDEST PUSH1 0x1F DUP3 GT ISZERO PUSH2 0xF46 JUMPI PUSH2 0xF17 DUP2 PUSH2 0xDF1 JUMP JUMPDEST PUSH2 0xF20 DUP5 PUSH2 0xE03 JUMP JUMPDEST DUP2 ADD PUSH1 0x20 DUP6 LT ISZERO PUSH2 0xF2F JUMPI DUP2 SWAP1 POP JUMPDEST PUSH2 0xF43 PUSH2 0xF3B DUP6 PUSH2 0xE03 JUMP JUMPDEST DUP4 ADD DUP3 PUSH2 0xEE3 JUMP JUMPDEST POP POP JUMPDEST POP POP POP JUMP JUMPDEST PUSH0 DUP3 DUP3 SHR SWAP1 POP SWAP3 SWAP2 POP POP JUMP JUMPDEST PUSH0 PUSH2 0xF66 PUSH0 NOT DUP5 PUSH1 0x8 MUL PUSH2 0xF4B JUMP JUMPDEST NOT DUP1 DUP4 AND SWAP2 POP POP SWAP3 SWAP2 POP POP JUMP JUMPDEST PUSH0 PUSH2 0xF7E DUP4 DUP4 PUSH2 0xF57 JUMP JUMPDEST SWAP2 POP DUP3 PUSH1 0x2 MUL DUP3 OR SWAP1 POP SWAP3 SWAP2 POP POP JUMP JUMPDEST PUSH2 0xF97 DUP3 PUSH2 0x6E0 JUMP JUMPDEST PUSH8 0xFFFFFFFFFFFFFFFF DUP2 GT ISZERO PUSH2 0xFB0 JUMPI PUSH2 0xFAF PUSH2 0x909 JUMP JUMPDEST JUMPDEST PUSH2 0xFBA DUP3 SLOAD PUSH2 0xB51 JUMP JUMPDEST PUSH2 0xFC5 DUP3 DUP3 DUP6 PUSH2 0xF05 JUMP JUMPDEST PUSH0 PUSH1 0x20 SWAP1 POP PUSH1 0x1F DUP4 GT PUSH1 0x1 DUP2 EQ PUSH2 0xFF6 JUMPI PUSH0 DUP5 ISZERO PUSH2 0xFE4 JUMPI DUP3 DUP8 ADD MLOAD SWAP1 POP JUMPDEST PUSH2 0xFEE DUP6 DUP3 PUSH2 0xF73 JUMP JUMPDEST DUP7 SSTORE POP PUSH2 0x1055 JUMP JUMPDEST PUSH1 0x1F NOT DUP5 AND PUSH2 0x1004 DUP7 PUSH2 0xDF1 JUMP JUMPDEST PUSH0 JUMPDEST DUP3 DUP2 LT ISZERO PUSH2 0x102B JUMPI DUP5 DUP10 ADD MLOAD DUP3 SSTORE PUSH1 0x1 DUP3 ADD SWAP2 POP PUSH1 0x20 DUP6 ADD SWAP5 POP PUSH1 0x20 DUP2 ADD SWAP1 POP PUSH2 0x1006 JUMP JUMPDEST DUP7 DUP4 LT ISZERO PUSH2 0x1048 JUMPI DUP5 DUP10 ADD MLOAD PUSH2 0x1044 PUSH1 0x1F DUP10 AND DUP3 PUSH2 0xF57 JUMP JUMPDEST DUP4 SSTORE POP JUMPDEST PUSH1 0x1 PUSH1 0x2 DUP9 MUL ADD DUP9 SSTORE POP POP POP JUMPDEST POP POP POP POP POP POP JUMP JUMPDEST PUSH0 PUSH2 0x1067 DUP3 PUSH2 0x6E0 JUMP JUMPDEST PUSH2 0x1071 DUP2 DUP6 PUSH2 0xB81 JUMP JUMPDEST SWAP4 POP PUSH2 0x1081 DUP2 DUP6 PUSH1 0x20 DUP7 ADD PUSH2 0x6FA JUMP JUMPDEST PUSH2 0x108A DUP2 PUSH2 0x708 JUMP JUMPDEST DUP5 ADD SWAP2 POP POP SWAP3 SWAP2 POP POP JUMP JUMPDEST PUSH0 PUSH2 0x100 DUP3 ADD SWAP1 POP DUP2 DUP2 SUB PUSH0 DUP4 ADD MSTORE PUSH2 0x10AE DUP2 DUP12 PUSH2 0x105D JUMP JUMPDEST SWAP1 POP PUSH2 0x10BD PUSH1 0x20 DUP4 ADD DUP11 PUSH2 0x8D9 JUMP JUMPDEST PUSH2 0x10CA PUSH1 0x40 DUP4 ADD DUP10 PUSH2 0x8D9 JUMP JUMPDEST PUSH2 0x10D7 PUSH1 0x60 DUP4 ADD DUP9 PUSH2 0x8D9 JUMP JUMPDEST PUSH2 0x10E4 PUSH1 0x80 DUP4 ADD DUP8 PUSH2 0x8D9 JUMP JUMPDEST PUSH2 0x10F1 PUSH1 0xA0 DUP4 ADD DUP7 PUSH2 0x8D9 JUMP JUMPDEST PUSH2 0x10FE PUSH1 0xC0 DUP4 ADD DUP6 PUSH2 0x8D9 JUMP JUMPDEST PUSH2 0x110B PUSH1 0xE0 DUP4 ADD DUP5 PUSH2 0x8D9 JUMP JUMPDEST SWAP10 SWAP9 POP POP POP POP POP POP POP POP POP JUMP INVALID LOG2 PUSH5 0x6970667358 0x22 SLT KECCAK256 EQ BLOCKHASH PC SWAP15 PUSH29 0xCA36E8D3F8327EF5FB85D9643CA2B5BA5CF5C89FA2BE05D74952FC6473 PUSH16 0x6C634300081A00330000000000000000 "
	},
	"abi": [
		{
			"inputs": [
				{
					"internalType": "string",
					"name": "_workoutType",
					"type": "string"
				},
				{
					"internalType": "uint256",
					"name": "_duration",
					"type": "uint256"
				},
				{
					"internalType": "uint256",
					"name": "_startTime",
					"type": "uint256"
				},
				{
					"internalType": "uint256",
					"name": "_endTime",
					"type": "uint256"
				},
				{
					"internalType": "uint256",
					"name": "_latitudeStart",
					"type": "uint256"
				},
				{
					"internalType": "uint256",
					"name": "_longitudeStart",
					"type": "uint256"
				},
				{
					"internalType": "uint256",
					"name": "_latitudeEnd",
					"type": "uint256"
				},
				{
					"internalType": "uint256",
					"name": "_longitudeEnd",
					"type": "uint256"
				}
			],
			"name": "logWorkout",
			"outputs": [],
			"stateMutability": "nonpayable",
			"type": "function"
		},
		{
			"anonymous": false,
			"inputs": [
				{
					"indexed": true,
					"internalType": "uint256",
					"name": "id",
					"type": "uint256"
				},
				{
					"indexed": true,
					"internalType": "address",
					"name": "user",
					"type": "address"
				},
				{
					"indexed": false,
					"internalType": "string",
					"name": "workoutType",
					"type": "string"
				},
				{
					"indexed": false,
					"internalType": "uint256",
					"name": "duration",
					"type": "uint256"
				},
				{
					"indexed": false,
					"internalType": "uint256",
					"name": "startTime",
					"type": "uint256"
				},
				{
					"indexed": false,
					"internalType": "uint256",
					"name": "endTime",
					"type": "uint256"
				},
				{
					"indexed": false,
					"internalType": "uint256",
					"name": "latitudeStart",
					"type": "uint256"
				},
				{
					"indexed": false,
					"internalType": "uint256",
					"name": "longitudeStart",
					"type": "uint256"
				},
				{
					"indexed": false,
					"internalType": "uint256",
					"name": "latitudeEnd",
					"type": "uint256"
				},
				{
					"indexed": false,
					"internalType": "uint256",
					"name": "longitudeEnd",
					"type": "uint256"
				}
			],
			"name": "WorkoutLogged",
			"type": "event"
		},
		{
			"inputs": [
				{
					"internalType": "address",
					"name": "_user",
					"type": "address"
				}
			],
			"name": "getUserWorkoutCount",
			"outputs": [
				{
					"internalType": "uint256",
					"name": "",
					"type": "uint256"
				}
			],
			"stateMutability": "view",
			"type": "function"
		},
		{
			"inputs": [
				{
					"internalType": "address",
					"name": "_user",
					"type": "address"
				}
			],
			"name": "getUserWorkouts",
			"outputs": [
				{
					"components": [
						{
							"internalType": "uint256",
							"name": "id",
							"type": "uint256"
						},
						{
							"internalType": "address",
							"name": "user",
							"type": "address"
						},
						{
							"internalType": "string",
							"name": "workoutType",
							"type": "string"
						},
						{
							"internalType": "uint256",
							"name": "duration",
							"type": "uint256"
						},
						{
							"internalType": "uint256",
							"name": "startTime",
							"type": "uint256"
						},
						{
							"internalType": "uint256",
							"name": "endTime",
							"type": "uint256"
						},
						{
							"internalType": "uint256",
							"name": "latitudeStart",
							"type": "uint256"
						},
						{
							"internalType": "uint256",
							"name": "longitudeStart",
							"type": "uint256"
						},
						{
							"internalType": "uint256",
							"name": "latitudeEnd",
							"type": "uint256"
						},
						{
							"internalType": "uint256",
							"name": "longitudeEnd",
							"type": "uint256"
						}
					],
					"internalType": "struct ProofOfWorkoutWithLocation.Workout[]",
					"name": "",
					"type": "tuple[]"
				}
			],
			"stateMutability": "view",
			"type": "function"
		},
		{
			"inputs": [],
			"name": "workoutCount",
			"outputs": [
				{
					"internalType": "uint256",
					"name": "",
					"type": "uint256"
				}
			],
			"stateMutability": "view",
			"type": "function"
		}
	],
	"storageLayout": {
		"storage": [
			{
				"astId": 28,
				"contract": "ProofOfWorkout.sol:ProofOfWorkoutWithLocation",
				"label": "workouts",
				"offset": 0,
				"slot": "0",
				"type": "t_mapping(t_address,t_array(t_struct(Workout)22_storage)dyn_storage)"
			},
			{
				"astId": 30,
				"contract": "ProofOfWorkout.sol:ProofOfWorkoutWithLocation",
				"label": "workoutCount",
				"offset": 0,
				"slot": "1",
				"type": "t_uint256"
			}
		],
		"types": {
			"t_address": {
				"encoding": "inplace",
				"label": "address",
				"numberOfBytes": "20"
			},
			"t_array(t_struct(Workout)22_storage)dyn_storage": {
				"base": "t_struct(Workout)22_storage",
				"encoding": "dynamic_array",
				"label": "struct ProofOfWorkoutWithLocation.Workout[]",
				"numberOfBytes": "32"
			},
			"t_mapping(t_address,t_array(t_struct(Workout)22_storage)dyn_storage)": {
				"encoding": "mapping",
				"key": "t_address",
				"label": "mapping(address => struct ProofOfWorkoutWithLocation.Workout[])",
				"numberOfBytes": "32",
				"value": "t_array(t_struct(Workout)22_storage)dyn_storage"
			},
			"t_string_storage": {
				"encoding": "bytes",
				"label": "string",
				"numberOfBytes": "32"
			},
			"t_struct(Workout)22_storage": {
				"encoding": "inplace",
				"label": "struct ProofOfWorkoutWithLocation.Workout",
				"members": [
					{
						"astId": 3,
						"contract": "ProofOfWorkout.sol:ProofOfWorkoutWithLocation",
						"label": "id",
						"offset": 0,
						"slot": "0",
						"type": "t_uint256"
					},
					{
						"astId": 5,
						"contract": "ProofOfWorkout.sol:ProofOfWorkoutWithLocation",
						"label": "user",
						"offset": 0,
						"slot": "1",
						"type": "t_address"
					},
					{
						"astId": 7,
						"contract": "ProofOfWorkout.sol:ProofOfWorkoutWithLocation",
						"label": "workoutType",
						"offset": 0,
						"slot": "2",
						"type": "t_string_storage"
					},
					{
						"astId": 9,
						"contract": "ProofOfWorkout.sol:ProofOfWorkoutWithLocation",
						"label": "duration",
						"offset": 0,
						"slot": "3",
						"type": "t_uint256"
					},
					{
						"astId": 11,
						"contract": "ProofOfWorkout.sol:ProofOfWorkoutWithLocation",
						"label": "startTime",
						"offset": 0,
						"slot": "4",
						"type": "t_uint256"
					},
					{
						"astId": 13,
						"contract": "ProofOfWorkout.sol:ProofOfWorkoutWithLocation",
						"label": "endTime",
						"offset": 0,
						"slot": "5",
						"type": "t_uint256"
					},
					{
						"astId": 15,
						"contract": "ProofOfWorkout.sol:ProofOfWorkoutWithLocation",
						"label": "latitudeStart",
						"offset": 0,
						"slot": "6",
						"type": "t_uint256"
					},
					{
						"astId": 17,
						"contract": "ProofOfWorkout.sol:ProofOfWorkoutWithLocation",
						"label": "longitudeStart",
						"offset": 0,
						"slot": "7",
						"type": "t_uint256"
					},
					{
						"astId": 19,
						"contract": "ProofOfWorkout.sol:ProofOfWorkoutWithLocation",
						"label": "latitudeEnd",
						"offset": 0,
						"slot": "8",
						"type": "t_uint256"
					},
					{
						"astId": 21,
						"contract": "ProofOfWorkout.sol:ProofOfWorkoutWithLocation",
						"label": "longitudeEnd",
						"offset": 0,
						"slot": "9",
						"type": "t_uint256"
					}
				],
				"numberOfBytes": "320"
			},
			"t_uint256": {
				"encoding": "inplace",
				"label": "uint256",
				"numberOfBytes": "32"
			}
		}
	},
	"web3Deploy": "var proofofworkoutwithlocationContract = new web3.eth.Contract([{\"anonymous\":false,\"inputs\":[{\"indexed\":true,\"internalType\":\"uint256\",\"name\":\"id\",\"type\":\"uint256\"},{\"indexed\":true,\"internalType\":\"address\",\"name\":\"user\",\"type\":\"address\"},{\"indexed\":false,\"internalType\":\"string\",\"name\":\"workoutType\",\"type\":\"string\"},{\"indexed\":false,\"internalType\":\"uint256\",\"name\":\"duration\",\"type\":\"uint256\"},{\"indexed\":false,\"internalType\":\"uint256\",\"name\":\"startTime\",\"type\":\"uint256\"},{\"indexed\":false,\"internalType\":\"uint256\",\"name\":\"endTime\",\"type\":\"uint256\"},{\"indexed\":false,\"internalType\":\"uint256\",\"name\":\"latitudeStart\",\"type\":\"uint256\"},{\"indexed\":false,\"internalType\":\"uint256\",\"name\":\"longitudeStart\",\"type\":\"uint256\"},{\"indexed\":false,\"internalType\":\"uint256\",\"name\":\"latitudeEnd\",\"type\":\"uint256\"},{\"indexed\":false,\"internalType\":\"uint256\",\"name\":\"longitudeEnd\",\"type\":\"uint256\"}],\"name\":\"WorkoutLogged\",\"type\":\"event\"},{\"inputs\":[{\"internalType\":\"address\",\"name\":\"_user\",\"type\":\"address\"}],\"name\":\"getUserWorkoutCount\",\"outputs\":[{\"internalType\":\"uint256\",\"name\":\"\",\"type\":\"uint256\"}],\"stateMutability\":\"view\",\"type\":\"function\"},{\"inputs\":[{\"internalType\":\"address\",\"name\":\"_user\",\"type\":\"address\"}],\"name\":\"getUserWorkouts\",\"outputs\":[{\"components\":[{\"internalType\":\"uint256\",\"name\":\"id\",\"type\":\"uint256\"},{\"internalType\":\"address\",\"name\":\"user\",\"type\":\"address\"},{\"internalType\":\"string\",\"name\":\"workoutType\",\"type\":\"string\"},{\"internalType\":\"uint256\",\"name\":\"duration\",\"type\":\"uint256\"},{\"internalType\":\"uint256\",\"name\":\"startTime\",\"type\":\"uint256\"},{\"internalType\":\"uint256\",\"name\":\"endTime\",\"type\":\"uint256\"},{\"internalType\":\"uint256\",\"name\":\"latitudeStart\",\"type\":\"uint256\"},{\"internalType\":\"uint256\",\"name\":\"longitudeStart\",\"type\":\"uint256\"},{\"internalType\":\"uint256\",\"name\":\"latitudeEnd\",\"type\":\"uint256\"},{\"internalType\":\"uint256\",\"name\":\"longitudeEnd\",\"type\":\"uint256\"}],\"internalType\":\"struct ProofOfWorkoutWithLocation.Workout[]\",\"name\":\"\",\"type\":\"tuple[]\"}],\"stateMutability\":\"view\",\"type\":\"function\"},{\"inputs\":[{\"internalType\":\"string\",\"name\":\"_workoutType\",\"type\":\"string\"},{\"internalType\":\"uint256\",\"name\":\"_duration\",\"type\":\"uint256\"},{\"internalType\":\"uint256\",\"name\":\"_startTime\",\"type\":\"uint256\"},{\"internalType\":\"uint256\",\"name\":\"_endTime\",\"type\":\"uint256\"},{\"internalType\":\"uint256\",\"name\":\"_latitudeStart\",\"type\":\"uint256\"},{\"internalType\":\"uint256\",\"name\":\"_longitudeStart\",\"type\":\"uint256\"},{\"internalType\":\"uint256\",\"name\":\"_latitudeEnd\",\"type\":\"uint256\"},{\"internalType\":\"uint256\",\"name\":\"_longitudeEnd\",\"type\":\"uint256\"}],\"name\":\"logWorkout\",\"outputs\":[],\"stateMutability\":\"nonpayable\",\"type\":\"function\"},{\"inputs\":[],\"name\":\"workoutCount\",\"outputs\":[{\"internalType\":\"uint256\",\"name\":\"\",\"type\":\"uint256\"}],\"stateMutability\":\"view\",\"type\":\"function\"}]);\nvar proofofworkoutwithlocation = proofofworkoutwithlocationContract.deploy({\n     data: '0x6080604052348015600e575f80fd5b5061114e8061001c5f395ff3fe608060405234801561000f575f80fd5b506004361061004a575f3560e01c806322725bd81461004e57806335422e0f1461007e5780637cd4e3001461009c578063f432ceb3146100cc575b5f80fd5b61006860048036038101906100639190610665565b6100e8565b60405161007591906108b9565b60405180910390f35b6100866102b5565b60405161009391906108e8565b60405180910390f35b6100b660048036038101906100b19190610665565b6102bb565b6040516100c391906108e8565b60405180910390f35b6100e660048036038101906100e19190610a57565b610303565b005b60605f808373ffffffffffffffffffffffffffffffffffffffff1673ffffffffffffffffffffffffffffffffffffffff1681526020019081526020015f20805480602002602001604051908101604052809291908181526020015f905b828210156102aa578382905f5260205f2090600a0201604051806101400160405290815f8201548152602001600182015f9054906101000a900473ffffffffffffffffffffffffffffffffffffffff1673ffffffffffffffffffffffffffffffffffffffff1673ffffffffffffffffffffffffffffffffffffffff1681526020016002820180546101d590610b51565b80601f016020809104026020016040519081016040528092919081815260200182805461020190610b51565b801561024c5780601f106102235761010080835404028352916020019161024c565b820191905f5260205f20905b81548152906001019060200180831161022f57829003601f168201915b5050505050815260200160038201548152602001600482015481526020016005820154815260200160068201548152602001600782015481526020016008820154815260200160098201548152505081526020019060010190610145565b505050509050919050565b60015481565b5f805f8373ffffffffffffffffffffffffffffffffffffffff1673ffffffffffffffffffffffffffffffffffffffff1681526020019081526020015f20805490509050919050565b5f885111610346576040517f08c379a000000000000000000000000000000000000000000000000000000000815260040161033d90610bdb565b60405180910390fd5b5f8711610388576040517f08c379a000000000000000000000000000000000000000000000000000000000815260040161037f90610c69565b60405180910390fd5b5f86116103ca576040517f08c379a00000000000000000000000000000000000000000000000000000000081526004016103c190610cd1565b60405180910390fd5b85851161040c576040517f08c379a000000000000000000000000000000000000000000000000000000000815260040161040390610d5f565b60405180910390fd5b60015f81548092919061041e90610daa565b91905055505f803373ffffffffffffffffffffffffffffffffffffffff1673ffffffffffffffffffffffffffffffffffffffff1681526020019081526020015f2060405180610140016040528060015481526020013373ffffffffffffffffffffffffffffffffffffffff1681526020018a815260200189815260200188815260200187815260200186815260200185815260200184815260200183815250908060018154018082558091505060019003905f5260205f2090600a02015f909190919091505f820151815f01556020820151816001015f6101000a81548173ffffffffffffffffffffffffffffffffffffffff021916908373ffffffffffffffffffffffffffffffffffffffff16021790555060408201518160020190816105469190610f8e565b50606082015181600301556080820151816004015560a0820151816005015560c0820151816006015560e082015181600701556101008201518160080155610120820151816009015550503373ffffffffffffffffffffffffffffffffffffffff166001547f479d016b5e7d0738bd0a58ca8fb450e22aae7a78aa5d5fa6e9e310e43e53f20d8a8a8a8a8a8a8a8a6040516105e8989796959493929190611095565b60405180910390a35050505050505050565b5f604051905090565b5f80fd5b5f80fd5b5f73ffffffffffffffffffffffffffffffffffffffff82169050919050565b5f6106348261060b565b9050919050565b6106448161062a565b811461064e575f80fd5b50565b5f8135905061065f8161063b565b92915050565b5f6020828403121561067a57610679610603565b5b5f61068784828501610651565b91505092915050565b5f81519050919050565b5f82825260208201905092915050565b5f819050602082019050919050565b5f819050919050565b6106cb816106b9565b82525050565b6106da8161062a565b82525050565b5f81519050919050565b5f82825260208201905092915050565b8281835e5f83830152505050565b5f601f19601f8301169050919050565b5f610722826106e0565b61072c81856106ea565b935061073c8185602086016106fa565b61074581610708565b840191505092915050565b5f61014083015f8301516107665f8601826106c2565b50602083015161077960208601826106d1565b50604083015184820360408601526107918282610718565b91505060608301516107a660608601826106c2565b5060808301516107b960808601826106c2565b5060a08301516107cc60a08601826106c2565b5060c08301516107df60c08601826106c2565b5060e08301516107f260e08601826106c2565b506101008301516108076101008601826106c2565b5061012083015161081c6101208601826106c2565b508091505092915050565b5f6108328383610750565b905092915050565b5f602082019050919050565b5f61085082610690565b61085a818561069a565b93508360208202850161086c856106aa565b805f5b858110156108a757848403895281516108888582610827565b94506108938361083a565b925060208a0199505060018101905061086f565b50829750879550505050505092915050565b5f6020820190508181035f8301526108d18184610846565b905092915050565b6108e2816106b9565b82525050565b5f6020820190506108fb5f8301846108d9565b92915050565b5f80fd5b5f80fd5b7f4e487b71000000000000000000000000000000000000000000000000000000005f52604160045260245ffd5b61093f82610708565b810181811067ffffffffffffffff8211171561095e5761095d610909565b5b80604052505050565b5f6109706105fa565b905061097c8282610936565b919050565b5f67ffffffffffffffff82111561099b5761099a610909565b5b6109a482610708565b9050602081019050919050565b828183375f83830152505050565b5f6109d16109cc84610981565b610967565b9050828152602081018484840111156109ed576109ec610905565b5b6109f88482856109b1565b509392505050565b5f82601f830112610a1457610a13610901565b5b8135610a248482602086016109bf565b91505092915050565b610a36816106b9565b8114610a40575f80fd5b50565b5f81359050610a5181610a2d565b92915050565b5f805f805f805f80610100898b031215610a7457610a73610603565b5b5f89013567ffffffffffffffff811115610a9157610a90610607565b5b610a9d8b828c01610a00565b9850506020610aae8b828c01610a43565b9750506040610abf8b828c01610a43565b9650506060610ad08b828c01610a43565b9550506080610ae18b828c01610a43565b94505060a0610af28b828c01610a43565b93505060c0610b038b828c01610a43565b92505060e0610b148b828c01610a43565b9150509295985092959890939650565b7f4e487b71000000000000000000000000000000000000000000000000000000005f52602260045260245ffd5b5f6002820490506001821680610b6857607f821691505b602082108103610b7b57610b7a610b24565b5b50919050565b5f82825260208201905092915050565b7f576f726b6f757420747970652063616e6e6f7420626520656d707479000000005f82015250565b5f610bc5601c83610b81565b9150610bd082610b91565b602082019050919050565b5f6020820190508181035f830152610bf281610bb9565b9050919050565b7f4475726174696f6e206d7573742062652067726561746572207468616e207a655f8201527f726f000000000000000000000000000000000000000000000000000000000000602082015250565b5f610c53602283610b81565b9150610c5e82610bf9565b604082019050919050565b5f6020820190508181035f830152610c8081610c47565b9050919050565b7f53746172742074696d65206d7573742062652076616c696400000000000000005f82015250565b5f610cbb601883610b81565b9150610cc682610c87565b602082019050919050565b5f6020820190508181035f830152610ce881610caf565b9050919050565b7f456e642074696d65206d7573742062652067726561746572207468616e2073745f8201527f6172742074696d65000000000000000000000000000000000000000000000000602082015250565b5f610d49602883610b81565b9150610d5482610cef565b604082019050919050565b5f6020820190508181035f830152610d7681610d3d565b9050919050565b7f4e487b71000000000000000000000000000000000000000000000000000000005f52601160045260245ffd5b5f610db4826106b9565b91507fffffffffffffffffffffffffffffffffffffffffffffffffffffffffffffffff8203610de657610de5610d7d565b5b600182019050919050565b5f819050815f5260205f209050919050565b5f6020601f8301049050919050565b5f82821b905092915050565b5f60088302610e4d7fffffffffffffffffffffffffffffffffffffffffffffffffffffffffffffffff82610e12565b610e578683610e12565b95508019841693508086168417925050509392505050565b5f819050919050565b5f610e92610e8d610e88846106b9565b610e6f565b6106b9565b9050919050565b5f819050919050565b610eab83610e78565b610ebf610eb782610e99565b848454610e1e565b825550505050565b5f90565b610ed3610ec7565b610ede818484610ea2565b505050565b5b81811015610f0157610ef65f82610ecb565b600181019050610ee4565b5050565b601f821115610f4657610f1781610df1565b610f2084610e03565b81016020851015610f2f578190505b610f43610f3b85610e03565b830182610ee3565b50505b505050565b5f82821c905092915050565b5f610f665f1984600802610f4b565b1980831691505092915050565b5f610f7e8383610f57565b9150826002028217905092915050565b610f97826106e0565b67ffffffffffffffff811115610fb057610faf610909565b5b610fba8254610b51565b610fc5828285610f05565b5f60209050601f831160018114610ff6575f8415610fe4578287015190505b610fee8582610f73565b865550611055565b601f19841661100486610df1565b5f5b8281101561102b57848901518255600182019150602085019450602081019050611006565b868310156110485784890151611044601f891682610f57565b8355505b6001600288020188555050505b505050505050565b5f611067826106e0565b6110718185610b81565b93506110818185602086016106fa565b61108a81610708565b840191505092915050565b5f610100820190508181035f8301526110ae818b61105d565b90506110bd602083018a6108d9565b6110ca60408301896108d9565b6110d760608301886108d9565b6110e460808301876108d9565b6110f160a08301866108d9565b6110fe60c08301856108d9565b61110b60e08301846108d9565b999850505050505050505056fea26469706673582212201440589e7cca36e8d3f8327ef5fb85d9643ca2b5ba5cf5c89fa2be05d74952fc64736f6c634300081a0033', \n     arguments: [\n     ]\n}).send({\n     from: web3.eth.accounts[0], \n     gas: '4700000'\n   }, function (e, contract){\n    console.log(e, contract);\n    if (typeof contract.address !== 'undefined') {\n         console.log('Contract mined! address: ' + contract.address + ' transactionHash: ' + contract.transactionHash);\n    }\n })",
	"functionHashes": {
		"7cd4e300": "getUserWorkoutCount(address)",
		"22725bd8": "getUserWorkouts(address)",
		"f432ceb3": "logWorkout(string,uint256,uint256,uint256,uint256,uint256,uint256,uint256)",
		"35422e0f": "workoutCount()"
	},
	"gasEstimates": {
		"Creation": {
			"codeDepositCost": "886000",
			"executionCost": "920",
			"totalCost": "886920"
		},
		"External": {
			"getUserWorkoutCount(address)": "2859",
			"getUserWorkouts(address)": "infinite",
			"logWorkout(string,uint256,uint256,uint256,uint256,uint256,uint256,uint256)": "infinite",
			"workoutCount()": "2425"
		}
	},
	"devdoc": {
		"kind": "dev",
		"methods": {},
		"version": 1
	},
	"userdoc": {
		"kind": "user",
		"methods": {},
		"version": 1
	},
	"Runtime Bytecode": {
		"immutableReferences": {},
		"linkReferences": {},
		"object": "608060405234801561000f575f80fd5b506004361061004a575f3560e01c806322725bd81461004e57806335422e0f1461007e5780637cd4e3001461009c578063f432ceb3146100cc575b5f80fd5b61006860048036038101906100639190610665565b6100e8565b60405161007591906108b9565b60405180910390f35b6100866102b5565b60405161009391906108e8565b60405180910390f35b6100b660048036038101906100b19190610665565b6102bb565b6040516100c391906108e8565b60405180910390f35b6100e660048036038101906100e19190610a57565b610303565b005b60605f808373ffffffffffffffffffffffffffffffffffffffff1673ffffffffffffffffffffffffffffffffffffffff1681526020019081526020015f20805480602002602001604051908101604052809291908181526020015f905b828210156102aa578382905f5260205f2090600a0201604051806101400160405290815f8201548152602001600182015f9054906101000a900473ffffffffffffffffffffffffffffffffffffffff1673ffffffffffffffffffffffffffffffffffffffff1673ffffffffffffffffffffffffffffffffffffffff1681526020016002820180546101d590610b51565b80601f016020809104026020016040519081016040528092919081815260200182805461020190610b51565b801561024c5780601f106102235761010080835404028352916020019161024c565b820191905f5260205f20905b81548152906001019060200180831161022f57829003601f168201915b5050505050815260200160038201548152602001600482015481526020016005820154815260200160068201548152602001600782015481526020016008820154815260200160098201548152505081526020019060010190610145565b505050509050919050565b60015481565b5f805f8373ffffffffffffffffffffffffffffffffffffffff1673ffffffffffffffffffffffffffffffffffffffff1681526020019081526020015f20805490509050919050565b5f885111610346576040517f08c379a000000000000000000000000000000000000000000000000000000000815260040161033d90610bdb565b60405180910390fd5b5f8711610388576040517f08c379a000000000000000000000000000000000000000000000000000000000815260040161037f90610c69565b60405180910390fd5b5f86116103ca576040517f08c379a00000000000000000000000000000000000000000000000000000000081526004016103c190610cd1565b60405180910390fd5b85851161040c576040517f08c379a000000000000000000000000000000000000000000000000000000000815260040161040390610d5f565b60405180910390fd5b60015f81548092919061041e90610daa565b91905055505f803373ffffffffffffffffffffffffffffffffffffffff1673ffffffffffffffffffffffffffffffffffffffff1681526020019081526020015f2060405180610140016040528060015481526020013373ffffffffffffffffffffffffffffffffffffffff1681526020018a815260200189815260200188815260200187815260200186815260200185815260200184815260200183815250908060018154018082558091505060019003905f5260205f2090600a02015f909190919091505f820151815f01556020820151816001015f6101000a81548173ffffffffffffffffffffffffffffffffffffffff021916908373ffffffffffffffffffffffffffffffffffffffff16021790555060408201518160020190816105469190610f8e565b50606082015181600301556080820151816004015560a0820151816005015560c0820151816006015560e082015181600701556101008201518160080155610120820151816009015550503373ffffffffffffffffffffffffffffffffffffffff166001547f479d016b5e7d0738bd0a58ca8fb450e22aae7a78aa5d5fa6e9e310e43e53f20d8a8a8a8a8a8a8a8a6040516105e8989796959493929190611095565b60405180910390a35050505050505050565b5f604051905090565b5f80fd5b5f80fd5b5f73ffffffffffffffffffffffffffffffffffffffff82169050919050565b5f6106348261060b565b9050919050565b6106448161062a565b811461064e575f80fd5b50565b5f8135905061065f8161063b565b92915050565b5f6020828403121561067a57610679610603565b5b5f61068784828501610651565b91505092915050565b5f81519050919050565b5f82825260208201905092915050565b5f819050602082019050919050565b5f819050919050565b6106cb816106b9565b82525050565b6106da8161062a565b82525050565b5f81519050919050565b5f82825260208201905092915050565b8281835e5f83830152505050565b5f601f19601f8301169050919050565b5f610722826106e0565b61072c81856106ea565b935061073c8185602086016106fa565b61074581610708565b840191505092915050565b5f61014083015f8301516107665f8601826106c2565b50602083015161077960208601826106d1565b50604083015184820360408601526107918282610718565b91505060608301516107a660608601826106c2565b5060808301516107b960808601826106c2565b5060a08301516107cc60a08601826106c2565b5060c08301516107df60c08601826106c2565b5060e08301516107f260e08601826106c2565b506101008301516108076101008601826106c2565b5061012083015161081c6101208601826106c2565b508091505092915050565b5f6108328383610750565b905092915050565b5f602082019050919050565b5f61085082610690565b61085a818561069a565b93508360208202850161086c856106aa565b805f5b858110156108a757848403895281516108888582610827565b94506108938361083a565b925060208a0199505060018101905061086f565b50829750879550505050505092915050565b5f6020820190508181035f8301526108d18184610846565b905092915050565b6108e2816106b9565b82525050565b5f6020820190506108fb5f8301846108d9565b92915050565b5f80fd5b5f80fd5b7f4e487b71000000000000000000000000000000000000000000000000000000005f52604160045260245ffd5b61093f82610708565b810181811067ffffffffffffffff8211171561095e5761095d610909565b5b80604052505050565b5f6109706105fa565b905061097c8282610936565b919050565b5f67ffffffffffffffff82111561099b5761099a610909565b5b6109a482610708565b9050602081019050919050565b828183375f83830152505050565b5f6109d16109cc84610981565b610967565b9050828152602081018484840111156109ed576109ec610905565b5b6109f88482856109b1565b509392505050565b5f82601f830112610a1457610a13610901565b5b8135610a248482602086016109bf565b91505092915050565b610a36816106b9565b8114610a40575f80fd5b50565b5f81359050610a5181610a2d565b92915050565b5f805f805f805f80610100898b031215610a7457610a73610603565b5b5f89013567ffffffffffffffff811115610a9157610a90610607565b5b610a9d8b828c01610a00565b9850506020610aae8b828c01610a43565b9750506040610abf8b828c01610a43565b9650506060610ad08b828c01610a43565b9550506080610ae18b828c01610a43565b94505060a0610af28b828c01610a43565b93505060c0610b038b828c01610a43565b92505060e0610b148b828c01610a43565b9150509295985092959890939650565b7f4e487b71000000000000000000000000000000000000000000000000000000005f52602260045260245ffd5b5f6002820490506001821680610b6857607f821691505b602082108103610b7b57610b7a610b24565b5b50919050565b5f82825260208201905092915050565b7f576f726b6f757420747970652063616e6e6f7420626520656d707479000000005f82015250565b5f610bc5601c83610b81565b9150610bd082610b91565b602082019050919050565b5f6020820190508181035f830152610bf281610bb9565b9050919050565b7f4475726174696f6e206d7573742062652067726561746572207468616e207a655f8201527f726f000000000000000000000000000000000000000000000000000000000000602082015250565b5f610c53602283610b81565b9150610c5e82610bf9565b604082019050919050565b5f6020820190508181035f830152610c8081610c47565b9050919050565b7f53746172742074696d65206d7573742062652076616c696400000000000000005f82015250565b5f610cbb601883610b81565b9150610cc682610c87565b602082019050919050565b5f6020820190508181035f830152610ce881610caf565b9050919050565b7f456e642074696d65206d7573742062652067726561746572207468616e2073745f8201527f6172742074696d65000000000000000000000000000000000000000000000000602082015250565b5f610d49602883610b81565b9150610d5482610cef565b604082019050919050565b5f6020820190508181035f830152610d7681610d3d565b9050919050565b7f4e487b71000000000000000000000000000000000000000000000000000000005f52601160045260245ffd5b5f610db4826106b9565b91507fffffffffffffffffffffffffffffffffffffffffffffffffffffffffffffffff8203610de657610de5610d7d565b5b600182019050919050565b5f819050815f5260205f209050919050565b5f6020601f8301049050919050565b5f82821b905092915050565b5f60088302610e4d7fffffffffffffffffffffffffffffffffffffffffffffffffffffffffffffffff82610e12565b610e578683610e12565b95508019841693508086168417925050509392505050565b5f819050919050565b5f610e92610e8d610e88846106b9565b610e6f565b6106b9565b9050919050565b5f819050919050565b610eab83610e78565b610ebf610eb782610e99565b848454610e1e565b825550505050565b5f90565b610ed3610ec7565b610ede818484610ea2565b505050565b5b81811015610f0157610ef65f82610ecb565b600181019050610ee4565b5050565b601f821115610f4657610f1781610df1565b610f2084610e03565b81016020851015610f2f578190505b610f43610f3b85610e03565b830182610ee3565b50505b505050565b5f82821c905092915050565b5f610f665f1984600802610f4b565b1980831691505092915050565b5f610f7e8383610f57565b9150826002028217905092915050565b610f97826106e0565b67ffffffffffffffff811115610fb057610faf610909565b5b610fba8254610b51565b610fc5828285610f05565b5f60209050601f831160018114610ff6575f8415610fe4578287015190505b610fee8582610f73565b865550611055565b601f19841661100486610df1565b5f5b8281101561102b57848901518255600182019150602085019450602081019050611006565b868310156110485784890151611044601f891682610f57565b8355505b6001600288020188555050505b505050505050565b5f611067826106e0565b6110718185610b81565b93506110818185602086016106fa565b61108a81610708565b840191505092915050565b5f610100820190508181035f8301526110ae818b61105d565b90506110bd602083018a6108d9565b6110ca60408301896108d9565b6110d760608301886108d9565b6110e460808301876108d9565b6110f160a08301866108d9565b6110fe60c08301856108d9565b61110b60e08301846108d9565b999850505050505050505056fea26469706673582212201440589e7cca36e8d3f8327ef5fb85d9643ca2b5ba5cf5c89fa2be05d74952fc64736f6c634300081a0033",
		"opcodes": "PUSH1 0x80 PUSH1 0x40 MSTORE CALLVALUE DUP1 ISZERO PUSH2 0xF JUMPI PUSH0 DUP1 REVERT JUMPDEST POP PUSH1 0x4 CALLDATASIZE LT PUSH2 0x4A JUMPI PUSH0 CALLDATALOAD PUSH1 0xE0 SHR DUP1 PUSH4 0x22725BD8 EQ PUSH2 0x4E JUMPI DUP1 PUSH4 0x35422E0F EQ PUSH2 0x7E JUMPI DUP1 PUSH4 0x7CD4E300 EQ PUSH2 0x9C JUMPI DUP1 PUSH4 0xF432CEB3 EQ PUSH2 0xCC JUMPI JUMPDEST PUSH0 DUP1 REVERT JUMPDEST PUSH2 0x68 PUSH1 0x4 DUP1 CALLDATASIZE SUB DUP2 ADD SWAP1 PUSH2 0x63 SWAP2 SWAP1 PUSH2 0x665 JUMP JUMPDEST PUSH2 0xE8 JUMP JUMPDEST PUSH1 0x40 MLOAD PUSH2 0x75 SWAP2 SWAP1 PUSH2 0x8B9 JUMP JUMPDEST PUSH1 0x40 MLOAD DUP1 SWAP2 SUB SWAP1 RETURN JUMPDEST PUSH2 0x86 PUSH2 0x2B5 JUMP JUMPDEST PUSH1 0x40 MLOAD PUSH2 0x93 SWAP2 SWAP1 PUSH2 0x8E8 JUMP JUMPDEST PUSH1 0x40 MLOAD DUP1 SWAP2 SUB SWAP1 RETURN JUMPDEST PUSH2 0xB6 PUSH1 0x4 DUP1 CALLDATASIZE SUB DUP2 ADD SWAP1 PUSH2 0xB1 SWAP2 SWAP1 PUSH2 0x665 JUMP JUMPDEST PUSH2 0x2BB JUMP JUMPDEST PUSH1 0x40 MLOAD PUSH2 0xC3 SWAP2 SWAP1 PUSH2 0x8E8 JUMP JUMPDEST PUSH1 0x40 MLOAD DUP1 SWAP2 SUB SWAP1 RETURN JUMPDEST PUSH2 0xE6 PUSH1 0x4 DUP1 CALLDATASIZE SUB DUP2 ADD SWAP1 PUSH2 0xE1 SWAP2 SWAP1 PUSH2 0xA57 JUMP JUMPDEST PUSH2 0x303 JUMP JUMPDEST STOP JUMPDEST PUSH1 0x60 PUSH0 DUP1 DUP4 PUSH20 0xFFFFFFFFFFFFFFFFFFFFFFFFFFFFFFFFFFFFFFFF AND PUSH20 0xFFFFFFFFFFFFFFFFFFFFFFFFFFFFFFFFFFFFFFFF AND DUP2 MSTORE PUSH1 0x20 ADD SWAP1 DUP2 MSTORE PUSH1 0x20 ADD PUSH0 KECCAK256 DUP1 SLOAD DUP1 PUSH1 0x20 MUL PUSH1 0x20 ADD PUSH1 0x40 MLOAD SWAP1 DUP2 ADD PUSH1 0x40 MSTORE DUP1 SWAP3 SWAP2 SWAP1 DUP2 DUP2 MSTORE PUSH1 0x20 ADD PUSH0 SWAP1 JUMPDEST DUP3 DUP3 LT ISZERO PUSH2 0x2AA JUMPI DUP4 DUP3 SWAP1 PUSH0 MSTORE PUSH1 0x20 PUSH0 KECCAK256 SWAP1 PUSH1 0xA MUL ADD PUSH1 0x40 MLOAD DUP1 PUSH2 0x140 ADD PUSH1 0x40 MSTORE SWAP1 DUP2 PUSH0 DUP3 ADD SLOAD DUP2 MSTORE PUSH1 0x20 ADD PUSH1 0x1 DUP3 ADD PUSH0 SWAP1 SLOAD SWAP1 PUSH2 0x100 EXP SWAP1 DIV PUSH20 0xFFFFFFFFFFFFFFFFFFFFFFFFFFFFFFFFFFFFFFFF AND PUSH20 0xFFFFFFFFFFFFFFFFFFFFFFFFFFFFFFFFFFFFFFFF AND PUSH20 0xFFFFFFFFFFFFFFFFFFFFFFFFFFFFFFFFFFFFFFFF AND DUP2 MSTORE PUSH1 0x20 ADD PUSH1 0x2 DUP3 ADD DUP1 SLOAD PUSH2 0x1D5 SWAP1 PUSH2 0xB51 JUMP JUMPDEST DUP1 PUSH1 0x1F ADD PUSH1 0x20 DUP1 SWAP2 DIV MUL PUSH1 0x20 ADD PUSH1 0x40 MLOAD SWAP1 DUP2 ADD PUSH1 0x40 MSTORE DUP1 SWAP3 SWAP2 SWAP1 DUP2 DUP2 MSTORE PUSH1 0x20 ADD DUP3 DUP1 SLOAD PUSH2 0x201 SWAP1 PUSH2 0xB51 JUMP JUMPDEST DUP1 ISZERO PUSH2 0x24C JUMPI DUP1 PUSH1 0x1F LT PUSH2 0x223 JUMPI PUSH2 0x100 DUP1 DUP4 SLOAD DIV MUL DUP4 MSTORE SWAP2 PUSH1 0x20 ADD SWAP2 PUSH2 0x24C JUMP JUMPDEST DUP3 ADD SWAP2 SWAP1 PUSH0 MSTORE PUSH1 0x20 PUSH0 KECCAK256 SWAP1 JUMPDEST DUP2 SLOAD DUP2 MSTORE SWAP1 PUSH1 0x1 ADD SWAP1 PUSH1 0x20 ADD DUP1 DUP4 GT PUSH2 0x22F JUMPI DUP3 SWAP1 SUB PUSH1 0x1F AND DUP3 ADD SWAP2 JUMPDEST POP POP POP POP POP DUP2 MSTORE PUSH1 0x20 ADD PUSH1 0x3 DUP3 ADD SLOAD DUP2 MSTORE PUSH1 0x20 ADD PUSH1 0x4 DUP3 ADD SLOAD DUP2 MSTORE PUSH1 0x20 ADD PUSH1 0x5 DUP3 ADD SLOAD DUP2 MSTORE PUSH1 0x20 ADD PUSH1 0x6 DUP3 ADD SLOAD DUP2 MSTORE PUSH1 0x20 ADD PUSH1 0x7 DUP3 ADD SLOAD DUP2 MSTORE PUSH1 0x20 ADD PUSH1 0x8 DUP3 ADD SLOAD DUP2 MSTORE PUSH1 0x20 ADD PUSH1 0x9 DUP3 ADD SLOAD DUP2 MSTORE POP POP DUP2 MSTORE PUSH1 0x20 ADD SWAP1 PUSH1 0x1 ADD SWAP1 PUSH2 0x145 JUMP JUMPDEST POP POP POP POP SWAP1 POP SWAP2 SWAP1 POP JUMP JUMPDEST PUSH1 0x1 SLOAD DUP2 JUMP JUMPDEST PUSH0 DUP1 PUSH0 DUP4 PUSH20 0xFFFFFFFFFFFFFFFFFFFFFFFFFFFFFFFFFFFFFFFF AND PUSH20 0xFFFFFFFFFFFFFFFFFFFFFFFFFFFFFFFFFFFFFFFF AND DUP2 MSTORE PUSH1 0x20 ADD SWAP1 DUP2 MSTORE PUSH1 0x20 ADD PUSH0 KECCAK256 DUP1 SLOAD SWAP1 POP SWAP1 POP SWAP2 SWAP1 POP JUMP JUMPDEST PUSH0 DUP9 MLOAD GT PUSH2 0x346 JUMPI PUSH1 0x40 MLOAD PUSH32 0x8C379A000000000000000000000000000000000000000000000000000000000 DUP2 MSTORE PUSH1 0x4 ADD PUSH2 0x33D SWAP1 PUSH2 0xBDB JUMP JUMPDEST PUSH1 0x40 MLOAD DUP1 SWAP2 SUB SWAP1 REVERT JUMPDEST PUSH0 DUP8 GT PUSH2 0x388 JUMPI PUSH1 0x40 MLOAD PUSH32 0x8C379A000000000000000000000000000000000000000000000000000000000 DUP2 MSTORE PUSH1 0x4 ADD PUSH2 0x37F SWAP1 PUSH2 0xC69 JUMP JUMPDEST PUSH1 0x40 MLOAD DUP1 SWAP2 SUB SWAP1 REVERT JUMPDEST PUSH0 DUP7 GT PUSH2 0x3CA JUMPI PUSH1 0x40 MLOAD PUSH32 0x8C379A000000000000000000000000000000000000000000000000000000000 DUP2 MSTORE PUSH1 0x4 ADD PUSH2 0x3C1 SWAP1 PUSH2 0xCD1 JUMP JUMPDEST PUSH1 0x40 MLOAD DUP1 SWAP2 SUB SWAP1 REVERT JUMPDEST DUP6 DUP6 GT PUSH2 0x40C JUMPI PUSH1 0x40 MLOAD PUSH32 0x8C379A000000000000000000000000000000000000000000000000000000000 DUP2 MSTORE PUSH1 0x4 ADD PUSH2 0x403 SWAP1 PUSH2 0xD5F JUMP JUMPDEST PUSH1 0x40 MLOAD DUP1 SWAP2 SUB SWAP1 REVERT JUMPDEST PUSH1 0x1 PUSH0 DUP2 SLOAD DUP1 SWAP3 SWAP2 SWAP1 PUSH2 0x41E SWAP1 PUSH2 0xDAA JUMP JUMPDEST SWAP2 SWAP1 POP SSTORE POP PUSH0 DUP1 CALLER PUSH20 0xFFFFFFFFFFFFFFFFFFFFFFFFFFFFFFFFFFFFFFFF AND PUSH20 0xFFFFFFFFFFFFFFFFFFFFFFFFFFFFFFFFFFFFFFFF AND DUP2 MSTORE PUSH1 0x20 ADD SWAP1 DUP2 MSTORE PUSH1 0x20 ADD PUSH0 KECCAK256 PUSH1 0x40 MLOAD DUP1 PUSH2 0x140 ADD PUSH1 0x40 MSTORE DUP1 PUSH1 0x1 SLOAD DUP2 MSTORE PUSH1 0x20 ADD CALLER PUSH20 0xFFFFFFFFFFFFFFFFFFFFFFFFFFFFFFFFFFFFFFFF AND DUP2 MSTORE PUSH1 0x20 ADD DUP11 DUP2 MSTORE PUSH1 0x20 ADD DUP10 DUP2 MSTORE PUSH1 0x20 ADD DUP9 DUP2 MSTORE PUSH1 0x20 ADD DUP8 DUP2 MSTORE PUSH1 0x20 ADD DUP7 DUP2 MSTORE PUSH1 0x20 ADD DUP6 DUP2 MSTORE PUSH1 0x20 ADD DUP5 DUP2 MSTORE PUSH1 0x20 ADD DUP4 DUP2 MSTORE POP SWAP1 DUP1 PUSH1 0x1 DUP2 SLOAD ADD DUP1 DUP3 SSTORE DUP1 SWAP2 POP POP PUSH1 0x1 SWAP1 SUB SWAP1 PUSH0 MSTORE PUSH1 0x20 PUSH0 KECCAK256 SWAP1 PUSH1 0xA MUL ADD PUSH0 SWAP1 SWAP2 SWAP1 SWAP2 SWAP1 SWAP2 POP PUSH0 DUP3 ADD MLOAD DUP2 PUSH0 ADD SSTORE PUSH1 0x20 DUP3 ADD MLOAD DUP2 PUSH1 0x1 ADD PUSH0 PUSH2 0x100 EXP DUP2 SLOAD DUP2 PUSH20 0xFFFFFFFFFFFFFFFFFFFFFFFFFFFFFFFFFFFFFFFF MUL NOT AND SWAP1 DUP4 PUSH20 0xFFFFFFFFFFFFFFFFFFFFFFFFFFFFFFFFFFFFFFFF AND MUL OR SWAP1 SSTORE POP PUSH1 0x40 DUP3 ADD MLOAD DUP2 PUSH1 0x2 ADD SWAP1 DUP2 PUSH2 0x546 SWAP2 SWAP1 PUSH2 0xF8E JUMP JUMPDEST POP PUSH1 0x60 DUP3 ADD MLOAD DUP2 PUSH1 0x3 ADD SSTORE PUSH1 0x80 DUP3 ADD MLOAD DUP2 PUSH1 0x4 ADD SSTORE PUSH1 0xA0 DUP3 ADD MLOAD DUP2 PUSH1 0x5 ADD SSTORE PUSH1 0xC0 DUP3 ADD MLOAD DUP2 PUSH1 0x6 ADD SSTORE PUSH1 0xE0 DUP3 ADD MLOAD DUP2 PUSH1 0x7 ADD SSTORE PUSH2 0x100 DUP3 ADD MLOAD DUP2 PUSH1 0x8 ADD SSTORE PUSH2 0x120 DUP3 ADD MLOAD DUP2 PUSH1 0x9 ADD SSTORE POP POP CALLER PUSH20 0xFFFFFFFFFFFFFFFFFFFFFFFFFFFFFFFFFFFFFFFF AND PUSH1 0x1 SLOAD PUSH32 0x479D016B5E7D0738BD0A58CA8FB450E22AAE7A78AA5D5FA6E9E310E43E53F20D DUP11 DUP11 DUP11 DUP11 DUP11 DUP11 DUP11 DUP11 PUSH1 0x40 MLOAD PUSH2 0x5E8 SWAP9 SWAP8 SWAP7 SWAP6 SWAP5 SWAP4 SWAP3 SWAP2 SWAP1 PUSH2 0x1095 JUMP JUMPDEST PUSH1 0x40 MLOAD DUP1 SWAP2 SUB SWAP1 LOG3 POP POP POP POP POP POP POP POP JUMP JUMPDEST PUSH0 PUSH1 0x40 MLOAD SWAP1 POP SWAP1 JUMP JUMPDEST PUSH0 DUP1 REVERT JUMPDEST PUSH0 DUP1 REVERT JUMPDEST PUSH0 PUSH20 0xFFFFFFFFFFFFFFFFFFFFFFFFFFFFFFFFFFFFFFFF DUP3 AND SWAP1 POP SWAP2 SWAP1 POP JUMP JUMPDEST PUSH0 PUSH2 0x634 DUP3 PUSH2 0x60B JUMP JUMPDEST SWAP1 POP SWAP2 SWAP1 POP JUMP JUMPDEST PUSH2 0x644 DUP2 PUSH2 0x62A JUMP JUMPDEST DUP2 EQ PUSH2 0x64E JUMPI PUSH0 DUP1 REVERT JUMPDEST POP JUMP JUMPDEST PUSH0 DUP2 CALLDATALOAD SWAP1 POP PUSH2 0x65F DUP2 PUSH2 0x63B JUMP JUMPDEST SWAP3 SWAP2 POP POP JUMP JUMPDEST PUSH0 PUSH1 0x20 DUP3 DUP5 SUB SLT ISZERO PUSH2 0x67A JUMPI PUSH2 0x679 PUSH2 0x603 JUMP JUMPDEST JUMPDEST PUSH0 PUSH2 0x687 DUP5 DUP3 DUP6 ADD PUSH2 0x651 JUMP JUMPDEST SWAP2 POP POP SWAP3 SWAP2 POP POP JUMP JUMPDEST PUSH0 DUP2 MLOAD SWAP1 POP SWAP2 SWAP1 POP JUMP JUMPDEST PUSH0 DUP3 DUP3 MSTORE PUSH1 0x20 DUP3 ADD SWAP1 POP SWAP3 SWAP2 POP POP JUMP JUMPDEST PUSH0 DUP2 SWAP1 POP PUSH1 0x20 DUP3 ADD SWAP1 POP SWAP2 SWAP1 POP JUMP JUMPDEST PUSH0 DUP2 SWAP1 POP SWAP2 SWAP1 POP JUMP JUMPDEST PUSH2 0x6CB DUP2 PUSH2 0x6B9 JUMP JUMPDEST DUP3 MSTORE POP POP JUMP JUMPDEST PUSH2 0x6DA DUP2 PUSH2 0x62A JUMP JUMPDEST DUP3 MSTORE POP POP JUMP JUMPDEST PUSH0 DUP2 MLOAD SWAP1 POP SWAP2 SWAP1 POP JUMP JUMPDEST PUSH0 DUP3 DUP3 MSTORE PUSH1 0x20 DUP3 ADD SWAP1 POP SWAP3 SWAP2 POP POP JUMP JUMPDEST DUP3 DUP2 DUP4 MCOPY PUSH0 DUP4 DUP4 ADD MSTORE POP POP POP JUMP JUMPDEST PUSH0 PUSH1 0x1F NOT PUSH1 0x1F DUP4 ADD AND SWAP1 POP SWAP2 SWAP1 POP JUMP JUMPDEST PUSH0 PUSH2 0x722 DUP3 PUSH2 0x6E0 JUMP JUMPDEST PUSH2 0x72C DUP2 DUP6 PUSH2 0x6EA JUMP JUMPDEST SWAP4 POP PUSH2 0x73C DUP2 DUP6 PUSH1 0x20 DUP7 ADD PUSH2 0x6FA JUMP JUMPDEST PUSH2 0x745 DUP2 PUSH2 0x708 JUMP JUMPDEST DUP5 ADD SWAP2 POP POP SWAP3 SWAP2 POP POP JUMP JUMPDEST PUSH0 PUSH2 0x140 DUP4 ADD PUSH0 DUP4 ADD MLOAD PUSH2 0x766 PUSH0 DUP7 ADD DUP3 PUSH2 0x6C2 JUMP JUMPDEST POP PUSH1 0x20 DUP4 ADD MLOAD PUSH2 0x779 PUSH1 0x20 DUP7 ADD DUP3 PUSH2 0x6D1 JUMP JUMPDEST POP PUSH1 0x40 DUP4 ADD MLOAD DUP5 DUP3 SUB PUSH1 0x40 DUP7 ADD MSTORE PUSH2 0x791 DUP3 DUP3 PUSH2 0x718 JUMP JUMPDEST SWAP2 POP POP PUSH1 0x60 DUP4 ADD MLOAD PUSH2 0x7A6 PUSH1 0x60 DUP7 ADD DUP3 PUSH2 0x6C2 JUMP JUMPDEST POP PUSH1 0x80 DUP4 ADD MLOAD PUSH2 0x7B9 PUSH1 0x80 DUP7 ADD DUP3 PUSH2 0x6C2 JUMP JUMPDEST POP PUSH1 0xA0 DUP4 ADD MLOAD PUSH2 0x7CC PUSH1 0xA0 DUP7 ADD DUP3 PUSH2 0x6C2 JUMP JUMPDEST POP PUSH1 0xC0 DUP4 ADD MLOAD PUSH2 0x7DF PUSH1 0xC0 DUP7 ADD DUP3 PUSH2 0x6C2 JUMP JUMPDEST POP PUSH1 0xE0 DUP4 ADD MLOAD PUSH2 0x7F2 PUSH1 0xE0 DUP7 ADD DUP3 PUSH2 0x6C2 JUMP JUMPDEST POP PUSH2 0x100 DUP4 ADD MLOAD PUSH2 0x807 PUSH2 0x100 DUP7 ADD DUP3 PUSH2 0x6C2 JUMP JUMPDEST POP PUSH2 0x120 DUP4 ADD MLOAD PUSH2 0x81C PUSH2 0x120 DUP7 ADD DUP3 PUSH2 0x6C2 JUMP JUMPDEST POP DUP1 SWAP2 POP POP SWAP3 SWAP2 POP POP JUMP JUMPDEST PUSH0 PUSH2 0x832 DUP4 DUP4 PUSH2 0x750 JUMP JUMPDEST SWAP1 POP SWAP3 SWAP2 POP POP JUMP JUMPDEST PUSH0 PUSH1 0x20 DUP3 ADD SWAP1 POP SWAP2 SWAP1 POP JUMP JUMPDEST PUSH0 PUSH2 0x850 DUP3 PUSH2 0x690 JUMP JUMPDEST PUSH2 0x85A DUP2 DUP6 PUSH2 0x69A JUMP JUMPDEST SWAP4 POP DUP4 PUSH1 0x20 DUP3 MUL DUP6 ADD PUSH2 0x86C DUP6 PUSH2 0x6AA JUMP JUMPDEST DUP1 PUSH0 JUMPDEST DUP6 DUP2 LT ISZERO PUSH2 0x8A7 JUMPI DUP5 DUP5 SUB DUP10 MSTORE DUP2 MLOAD PUSH2 0x888 DUP6 DUP3 PUSH2 0x827 JUMP JUMPDEST SWAP5 POP PUSH2 0x893 DUP4 PUSH2 0x83A JUMP JUMPDEST SWAP3 POP PUSH1 0x20 DUP11 ADD SWAP10 POP POP PUSH1 0x1 DUP2 ADD SWAP1 POP PUSH2 0x86F JUMP JUMPDEST POP DUP3 SWAP8 POP DUP8 SWAP6 POP POP POP POP POP POP SWAP3 SWAP2 POP POP JUMP JUMPDEST PUSH0 PUSH1 0x20 DUP3 ADD SWAP1 POP DUP2 DUP2 SUB PUSH0 DUP4 ADD MSTORE PUSH2 0x8D1 DUP2 DUP5 PUSH2 0x846 JUMP JUMPDEST SWAP1 POP SWAP3 SWAP2 POP POP JUMP JUMPDEST PUSH2 0x8E2 DUP2 PUSH2 0x6B9 JUMP JUMPDEST DUP3 MSTORE POP POP JUMP JUMPDEST PUSH0 PUSH1 0x20 DUP3 ADD SWAP1 POP PUSH2 0x8FB PUSH0 DUP4 ADD DUP5 PUSH2 0x8D9 JUMP JUMPDEST SWAP3 SWAP2 POP POP JUMP JUMPDEST PUSH0 DUP1 REVERT JUMPDEST PUSH0 DUP1 REVERT JUMPDEST PUSH32 0x4E487B7100000000000000000000000000000000000000000000000000000000 PUSH0 MSTORE PUSH1 0x41 PUSH1 0x4 MSTORE PUSH1 0x24 PUSH0 REVERT JUMPDEST PUSH2 0x93F DUP3 PUSH2 0x708 JUMP JUMPDEST DUP2 ADD DUP2 DUP2 LT PUSH8 0xFFFFFFFFFFFFFFFF DUP3 GT OR ISZERO PUSH2 0x95E JUMPI PUSH2 0x95D PUSH2 0x909 JUMP JUMPDEST JUMPDEST DUP1 PUSH1 0x40 MSTORE POP POP POP JUMP JUMPDEST PUSH0 PUSH2 0x970 PUSH2 0x5FA JUMP JUMPDEST SWAP1 POP PUSH2 0x97C DUP3 DUP3 PUSH2 0x936 JUMP JUMPDEST SWAP2 SWAP1 POP JUMP JUMPDEST PUSH0 PUSH8 0xFFFFFFFFFFFFFFFF DUP3 GT ISZERO PUSH2 0x99B JUMPI PUSH2 0x99A PUSH2 0x909 JUMP JUMPDEST JUMPDEST PUSH2 0x9A4 DUP3 PUSH2 0x708 JUMP JUMPDEST SWAP1 POP PUSH1 0x20 DUP2 ADD SWAP1 POP SWAP2 SWAP1 POP JUMP JUMPDEST DUP3 DUP2 DUP4 CALLDATACOPY PUSH0 DUP4 DUP4 ADD MSTORE POP POP POP JUMP JUMPDEST PUSH0 PUSH2 0x9D1 PUSH2 0x9CC DUP5 PUSH2 0x981 JUMP JUMPDEST PUSH2 0x967 JUMP JUMPDEST SWAP1 POP DUP3 DUP2 MSTORE PUSH1 0x20 DUP2 ADD DUP5 DUP5 DUP5 ADD GT ISZERO PUSH2 0x9ED JUMPI PUSH2 0x9EC PUSH2 0x905 JUMP JUMPDEST JUMPDEST PUSH2 0x9F8 DUP5 DUP3 DUP6 PUSH2 0x9B1 JUMP JUMPDEST POP SWAP4 SWAP3 POP POP POP JUMP JUMPDEST PUSH0 DUP3 PUSH1 0x1F DUP4 ADD SLT PUSH2 0xA14 JUMPI PUSH2 0xA13 PUSH2 0x901 JUMP JUMPDEST JUMPDEST DUP2 CALLDATALOAD PUSH2 0xA24 DUP5 DUP3 PUSH1 0x20 DUP7 ADD PUSH2 0x9BF JUMP JUMPDEST SWAP2 POP POP SWAP3 SWAP2 POP POP JUMP JUMPDEST PUSH2 0xA36 DUP2 PUSH2 0x6B9 JUMP JUMPDEST DUP2 EQ PUSH2 0xA40 JUMPI PUSH0 DUP1 REVERT JUMPDEST POP JUMP JUMPDEST PUSH0 DUP2 CALLDATALOAD SWAP1 POP PUSH2 0xA51 DUP2 PUSH2 0xA2D JUMP JUMPDEST SWAP3 SWAP2 POP POP JUMP JUMPDEST PUSH0 DUP1 PUSH0 DUP1 PUSH0 DUP1 PUSH0 DUP1 PUSH2 0x100 DUP10 DUP12 SUB SLT ISZERO PUSH2 0xA74 JUMPI PUSH2 0xA73 PUSH2 0x603 JUMP JUMPDEST JUMPDEST PUSH0 DUP10 ADD CALLDATALOAD PUSH8 0xFFFFFFFFFFFFFFFF DUP2 GT ISZERO PUSH2 0xA91 JUMPI PUSH2 0xA90 PUSH2 0x607 JUMP JUMPDEST JUMPDEST PUSH2 0xA9D DUP12 DUP3 DUP13 ADD PUSH2 0xA00 JUMP JUMPDEST SWAP9 POP POP PUSH1 0x20 PUSH2 0xAAE DUP12 DUP3 DUP13 ADD PUSH2 0xA43 JUMP JUMPDEST SWAP8 POP POP PUSH1 0x40 PUSH2 0xABF DUP12 DUP3 DUP13 ADD PUSH2 0xA43 JUMP JUMPDEST SWAP7 POP POP PUSH1 0x60 PUSH2 0xAD0 DUP12 DUP3 DUP13 ADD PUSH2 0xA43 JUMP JUMPDEST SWAP6 POP POP PUSH1 0x80 PUSH2 0xAE1 DUP12 DUP3 DUP13 ADD PUSH2 0xA43 JUMP JUMPDEST SWAP5 POP POP PUSH1 0xA0 PUSH2 0xAF2 DUP12 DUP3 DUP13 ADD PUSH2 0xA43 JUMP JUMPDEST SWAP4 POP POP PUSH1 0xC0 PUSH2 0xB03 DUP12 DUP3 DUP13 ADD PUSH2 0xA43 JUMP JUMPDEST SWAP3 POP POP PUSH1 0xE0 PUSH2 0xB14 DUP12 DUP3 DUP13 ADD PUSH2 0xA43 JUMP JUMPDEST SWAP2 POP POP SWAP3 SWAP6 SWAP9 POP SWAP3 SWAP6 SWAP9 SWAP1 SWAP4 SWAP7 POP JUMP JUMPDEST PUSH32 0x4E487B7100000000000000000000000000000000000000000000000000000000 PUSH0 MSTORE PUSH1 0x22 PUSH1 0x4 MSTORE PUSH1 0x24 PUSH0 REVERT JUMPDEST PUSH0 PUSH1 0x2 DUP3 DIV SWAP1 POP PUSH1 0x1 DUP3 AND DUP1 PUSH2 0xB68 JUMPI PUSH1 0x7F DUP3 AND SWAP2 POP JUMPDEST PUSH1 0x20 DUP3 LT DUP2 SUB PUSH2 0xB7B JUMPI PUSH2 0xB7A PUSH2 0xB24 JUMP JUMPDEST JUMPDEST POP SWAP2 SWAP1 POP JUMP JUMPDEST PUSH0 DUP3 DUP3 MSTORE PUSH1 0x20 DUP3 ADD SWAP1 POP SWAP3 SWAP2 POP POP JUMP JUMPDEST PUSH32 0x576F726B6F757420747970652063616E6E6F7420626520656D70747900000000 PUSH0 DUP3 ADD MSTORE POP JUMP JUMPDEST PUSH0 PUSH2 0xBC5 PUSH1 0x1C DUP4 PUSH2 0xB81 JUMP JUMPDEST SWAP2 POP PUSH2 0xBD0 DUP3 PUSH2 0xB91 JUMP JUMPDEST PUSH1 0x20 DUP3 ADD SWAP1 POP SWAP2 SWAP1 POP JUMP JUMPDEST PUSH0 PUSH1 0x20 DUP3 ADD SWAP1 POP DUP2 DUP2 SUB PUSH0 DUP4 ADD MSTORE PUSH2 0xBF2 DUP2 PUSH2 0xBB9 JUMP JUMPDEST SWAP1 POP SWAP2 SWAP1 POP JUMP JUMPDEST PUSH32 0x4475726174696F6E206D7573742062652067726561746572207468616E207A65 PUSH0 DUP3 ADD MSTORE PUSH32 0x726F000000000000000000000000000000000000000000000000000000000000 PUSH1 0x20 DUP3 ADD MSTORE POP JUMP JUMPDEST PUSH0 PUSH2 0xC53 PUSH1 0x22 DUP4 PUSH2 0xB81 JUMP JUMPDEST SWAP2 POP PUSH2 0xC5E DUP3 PUSH2 0xBF9 JUMP JUMPDEST PUSH1 0x40 DUP3 ADD SWAP1 POP SWAP2 SWAP1 POP JUMP JUMPDEST PUSH0 PUSH1 0x20 DUP3 ADD SWAP1 POP DUP2 DUP2 SUB PUSH0 DUP4 ADD MSTORE PUSH2 0xC80 DUP2 PUSH2 0xC47 JUMP JUMPDEST SWAP1 POP SWAP2 SWAP1 POP JUMP JUMPDEST PUSH32 0x53746172742074696D65206D7573742062652076616C69640000000000000000 PUSH0 DUP3 ADD MSTORE POP JUMP JUMPDEST PUSH0 PUSH2 0xCBB PUSH1 0x18 DUP4 PUSH2 0xB81 JUMP JUMPDEST SWAP2 POP PUSH2 0xCC6 DUP3 PUSH2 0xC87 JUMP JUMPDEST PUSH1 0x20 DUP3 ADD SWAP1 POP SWAP2 SWAP1 POP JUMP JUMPDEST PUSH0 PUSH1 0x20 DUP3 ADD SWAP1 POP DUP2 DUP2 SUB PUSH0 DUP4 ADD MSTORE PUSH2 0xCE8 DUP2 PUSH2 0xCAF JUMP JUMPDEST SWAP1 POP SWAP2 SWAP1 POP JUMP JUMPDEST PUSH32 0x456E642074696D65206D7573742062652067726561746572207468616E207374 PUSH0 DUP3 ADD MSTORE PUSH32 0x6172742074696D65000000000000000000000000000000000000000000000000 PUSH1 0x20 DUP3 ADD MSTORE POP JUMP JUMPDEST PUSH0 PUSH2 0xD49 PUSH1 0x28 DUP4 PUSH2 0xB81 JUMP JUMPDEST SWAP2 POP PUSH2 0xD54 DUP3 PUSH2 0xCEF JUMP JUMPDEST PUSH1 0x40 DUP3 ADD SWAP1 POP SWAP2 SWAP1 POP JUMP JUMPDEST PUSH0 PUSH1 0x20 DUP3 ADD SWAP1 POP DUP2 DUP2 SUB PUSH0 DUP4 ADD MSTORE PUSH2 0xD76 DUP2 PUSH2 0xD3D JUMP JUMPDEST SWAP1 POP SWAP2 SWAP1 POP JUMP JUMPDEST PUSH32 0x4E487B7100000000000000000000000000000000000000000000000000000000 PUSH0 MSTORE PUSH1 0x11 PUSH1 0x4 MSTORE PUSH1 0x24 PUSH0 REVERT JUMPDEST PUSH0 PUSH2 0xDB4 DUP3 PUSH2 0x6B9 JUMP JUMPDEST SWAP2 POP PUSH32 0xFFFFFFFFFFFFFFFFFFFFFFFFFFFFFFFFFFFFFFFFFFFFFFFFFFFFFFFFFFFFFFFF DUP3 SUB PUSH2 0xDE6 JUMPI PUSH2 0xDE5 PUSH2 0xD7D JUMP JUMPDEST JUMPDEST PUSH1 0x1 DUP3 ADD SWAP1 POP SWAP2 SWAP1 POP JUMP JUMPDEST PUSH0 DUP2 SWAP1 POP DUP2 PUSH0 MSTORE PUSH1 0x20 PUSH0 KECCAK256 SWAP1 POP SWAP2 SWAP1 POP JUMP JUMPDEST PUSH0 PUSH1 0x20 PUSH1 0x1F DUP4 ADD DIV SWAP1 POP SWAP2 SWAP1 POP JUMP JUMPDEST PUSH0 DUP3 DUP3 SHL SWAP1 POP SWAP3 SWAP2 POP POP JUMP JUMPDEST PUSH0 PUSH1 0x8 DUP4 MUL PUSH2 0xE4D PUSH32 0xFFFFFFFFFFFFFFFFFFFFFFFFFFFFFFFFFFFFFFFFFFFFFFFFFFFFFFFFFFFFFFFF DUP3 PUSH2 0xE12 JUMP JUMPDEST PUSH2 0xE57 DUP7 DUP4 PUSH2 0xE12 JUMP JUMPDEST SWAP6 POP DUP1 NOT DUP5 AND SWAP4 POP DUP1 DUP7 AND DUP5 OR SWAP3 POP POP POP SWAP4 SWAP3 POP POP POP JUMP JUMPDEST PUSH0 DUP2 SWAP1 POP SWAP2 SWAP1 POP JUMP JUMPDEST PUSH0 PUSH2 0xE92 PUSH2 0xE8D PUSH2 0xE88 DUP5 PUSH2 0x6B9 JUMP JUMPDEST PUSH2 0xE6F JUMP JUMPDEST PUSH2 0x6B9 JUMP JUMPDEST SWAP1 POP SWAP2 SWAP1 POP JUMP JUMPDEST PUSH0 DUP2 SWAP1 POP SWAP2 SWAP1 POP JUMP JUMPDEST PUSH2 0xEAB DUP4 PUSH2 0xE78 JUMP JUMPDEST PUSH2 0xEBF PUSH2 0xEB7 DUP3 PUSH2 0xE99 JUMP JUMPDEST DUP5 DUP5 SLOAD PUSH2 0xE1E JUMP JUMPDEST DUP3 SSTORE POP POP POP POP JUMP JUMPDEST PUSH0 SWAP1 JUMP JUMPDEST PUSH2 0xED3 PUSH2 0xEC7 JUMP JUMPDEST PUSH2 0xEDE DUP2 DUP5 DUP5 PUSH2 0xEA2 JUMP JUMPDEST POP POP POP JUMP JUMPDEST JUMPDEST DUP2 DUP2 LT ISZERO PUSH2 0xF01 JUMPI PUSH2 0xEF6 PUSH0 DUP3 PUSH2 0xECB JUMP JUMPDEST PUSH1 0x1 DUP2 ADD SWAP1 POP PUSH2 0xEE4 JUMP JUMPDEST POP POP JUMP JUMPDEST PUSH1 0x1F DUP3 GT ISZERO PUSH2 0xF46 JUMPI PUSH2 0xF17 DUP2 PUSH2 0xDF1 JUMP JUMPDEST PUSH2 0xF20 DUP5 PUSH2 0xE03 JUMP JUMPDEST DUP2 ADD PUSH1 0x20 DUP6 LT ISZERO PUSH2 0xF2F JUMPI DUP2 SWAP1 POP JUMPDEST PUSH2 0xF43 PUSH2 0xF3B DUP6 PUSH2 0xE03 JUMP JUMPDEST DUP4 ADD DUP3 PUSH2 0xEE3 JUMP JUMPDEST POP POP JUMPDEST POP POP POP JUMP JUMPDEST PUSH0 DUP3 DUP3 SHR SWAP1 POP SWAP3 SWAP2 POP POP JUMP JUMPDEST PUSH0 PUSH2 0xF66 PUSH0 NOT DUP5 PUSH1 0x8 MUL PUSH2 0xF4B JUMP JUMPDEST NOT DUP1 DUP4 AND SWAP2 POP POP SWAP3 SWAP2 POP POP JUMP JUMPDEST PUSH0 PUSH2 0xF7E DUP4 DUP4 PUSH2 0xF57 JUMP JUMPDEST SWAP2 POP DUP3 PUSH1 0x2 MUL DUP3 OR SWAP1 POP SWAP3 SWAP2 POP POP JUMP JUMPDEST PUSH2 0xF97 DUP3 PUSH2 0x6E0 JUMP JUMPDEST PUSH8 0xFFFFFFFFFFFFFFFF DUP2 GT ISZERO PUSH2 0xFB0 JUMPI PUSH2 0xFAF PUSH2 0x909 JUMP JUMPDEST JUMPDEST PUSH2 0xFBA DUP3 SLOAD PUSH2 0xB51 JUMP JUMPDEST PUSH2 0xFC5 DUP3 DUP3 DUP6 PUSH2 0xF05 JUMP JUMPDEST PUSH0 PUSH1 0x20 SWAP1 POP PUSH1 0x1F DUP4 GT PUSH1 0x1 DUP2 EQ PUSH2 0xFF6 JUMPI PUSH0 DUP5 ISZERO PUSH2 0xFE4 JUMPI DUP3 DUP8 ADD MLOAD SWAP1 POP JUMPDEST PUSH2 0xFEE DUP6 DUP3 PUSH2 0xF73 JUMP JUMPDEST DUP7 SSTORE POP PUSH2 0x1055 JUMP JUMPDEST PUSH1 0x1F NOT DUP5 AND PUSH2 0x1004 DUP7 PUSH2 0xDF1 JUMP JUMPDEST PUSH0 JUMPDEST DUP3 DUP2 LT ISZERO PUSH2 0x102B JUMPI DUP5 DUP10 ADD MLOAD DUP3 SSTORE PUSH1 0x1 DUP3 ADD SWAP2 POP PUSH1 0x20 DUP6 ADD SWAP5 POP PUSH1 0x20 DUP2 ADD SWAP1 POP PUSH2 0x1006 JUMP JUMPDEST DUP7 DUP4 LT ISZERO PUSH2 0x1048 JUMPI DUP5 DUP10 ADD MLOAD PUSH2 0x1044 PUSH1 0x1F DUP10 AND DUP3 PUSH2 0xF57 JUMP JUMPDEST DUP4 SSTORE POP JUMPDEST PUSH1 0x1 PUSH1 0x2 DUP9 MUL ADD DUP9 SSTORE POP POP POP JUMPDEST POP POP POP POP POP POP JUMP JUMPDEST PUSH0 PUSH2 0x1067 DUP3 PUSH2 0x6E0 JUMP JUMPDEST PUSH2 0x1071 DUP2 DUP6 PUSH2 0xB81 JUMP JUMPDEST SWAP4 POP PUSH2 0x1081 DUP2 DUP6 PUSH1 0x20 DUP7 ADD PUSH2 0x6FA JUMP JUMPDEST PUSH2 0x108A DUP2 PUSH2 0x708 JUMP JUMPDEST DUP5 ADD SWAP2 POP POP SWAP3 SWAP2 POP POP JUMP JUMPDEST PUSH0 PUSH2 0x100 DUP3 ADD SWAP1 POP DUP2 DUP2 SUB PUSH0 DUP4 ADD MSTORE PUSH2 0x10AE DUP2 DUP12 PUSH2 0x105D JUMP JUMPDEST SWAP1 POP PUSH2 0x10BD PUSH1 0x20 DUP4 ADD DUP11 PUSH2 0x8D9 JUMP JUMPDEST PUSH2 0x10CA PUSH1 0x40 DUP4 ADD DUP10 PUSH2 0x8D9 JUMP JUMPDEST PUSH2 0x10D7 PUSH1 0x60 DUP4 ADD DUP9 PUSH2 0x8D9 JUMP JUMPDEST PUSH2 0x10E4 PUSH1 0x80 DUP4 ADD DUP8 PUSH2 0x8D9 JUMP JUMPDEST PUSH2 0x10F1 PUSH1 0xA0 DUP4 ADD DUP7 PUSH2 0x8D9 JUMP JUMPDEST PUSH2 0x10FE PUSH1 0xC0 DUP4 ADD DUP6 PUSH2 0x8D9 JUMP JUMPDEST PUSH2 0x110B PUSH1 0xE0 DUP4 ADD DUP5 PUSH2 0x8D9 JUMP JUMPDEST SWAP10 SWAP9 POP POP POP POP POP POP POP POP POP JUMP INVALID LOG2 PUSH5 0x6970667358 0x22 SLT KECCAK256 EQ BLOCKHASH PC SWAP15 PUSH29 0xCA36E8D3F8327EF5FB85D9643CA2B5BA5CF5C89FA2BE05D74952FC6473 PUSH16 0x6C634300081A00330000000000000000 "
	},
	"Assembly": ".code\n  PUSH 80\t\t\tcontract ProofOfWorkoutWithLoc...\n  PUSH 40\t\t\tcontract ProofOfWorkoutWithLoc...\n  MSTORE \t\t\tcontract ProofOfWorkoutWithLoc...\n  CALLVALUE \t\t\tcontract ProofOfWorkoutWithLoc...\n  DUP1 \t\t\tcontract ProofOfWorkoutWithLoc...\n  ISZERO \t\t\tcontract ProofOfWorkoutWithLoc...\n  PUSH [tag] 1\t\t\tcontract ProofOfWorkoutWithLoc...\n  JUMPI \t\t\tcontract ProofOfWorkoutWithLoc...\n  PUSH 0\t\t\tcontract ProofOfWorkoutWithLoc...\n  DUP1 \t\t\tcontract ProofOfWorkoutWithLoc...\n  REVERT \t\t\tcontract ProofOfWorkoutWithLoc...\ntag 1\t\t\tcontract ProofOfWorkoutWithLoc...\n  JUMPDEST \t\t\tcontract ProofOfWorkoutWithLoc...\n  POP \t\t\tcontract ProofOfWorkoutWithLoc...\n  PUSH #[$] 0000000000000000000000000000000000000000000000000000000000000000\t\t\tcontract ProofOfWorkoutWithLoc...\n  DUP1 \t\t\tcontract ProofOfWorkoutWithLoc...\n  PUSH [$] 0000000000000000000000000000000000000000000000000000000000000000\t\t\tcontract ProofOfWorkoutWithLoc...\n  PUSH 0\t\t\tcontract ProofOfWorkoutWithLoc...\n  CODECOPY \t\t\tcontract ProofOfWorkoutWithLoc...\n  PUSH 0\t\t\tcontract ProofOfWorkoutWithLoc...\n  RETURN \t\t\tcontract ProofOfWorkoutWithLoc...\n.data\n  0:\n    .code\n      PUSH 80\t\t\tcontract ProofOfWorkoutWithLoc...\n      PUSH 40\t\t\tcontract ProofOfWorkoutWithLoc...\n      MSTORE \t\t\tcontract ProofOfWorkoutWithLoc...\n      CALLVALUE \t\t\tcontract ProofOfWorkoutWithLoc...\n      DUP1 \t\t\tcontract ProofOfWorkoutWithLoc...\n      ISZERO \t\t\tcontract ProofOfWorkoutWithLoc...\n      PUSH [tag] 1\t\t\tcontract ProofOfWorkoutWithLoc...\n      JUMPI \t\t\tcontract ProofOfWorkoutWithLoc...\n      PUSH 0\t\t\tcontract ProofOfWorkoutWithLoc...\n      DUP1 \t\t\tcontract ProofOfWorkoutWithLoc...\n      REVERT \t\t\tcontract ProofOfWorkoutWithLoc...\n    tag 1\t\t\tcontract ProofOfWorkoutWithLoc...\n      JUMPDEST \t\t\tcontract ProofOfWorkoutWithLoc...\n      POP \t\t\tcontract ProofOfWorkoutWithLoc...\n      PUSH 4\t\t\tcontract ProofOfWorkoutWithLoc...\n      CALLDATASIZE \t\t\tcontract ProofOfWorkoutWithLoc...\n      LT \t\t\tcontract ProofOfWorkoutWithLoc...\n      PUSH [tag] 2\t\t\tcontract ProofOfWorkoutWithLoc...\n      JUMPI \t\t\tcontract ProofOfWorkoutWithLoc...\n      PUSH 0\t\t\tcontract ProofOfWorkoutWithLoc...\n      CALLDATALOAD \t\t\tcontract ProofOfWorkoutWithLoc...\n      PUSH E0\t\t\tcontract ProofOfWorkoutWithLoc...\n      SHR \t\t\tcontract ProofOfWorkoutWithLoc...\n      DUP1 \t\t\tcontract ProofOfWorkoutWithLoc...\n      PUSH 22725BD8\t\t\tcontract ProofOfWorkoutWithLoc...\n      EQ \t\t\tcontract ProofOfWorkoutWithLoc...\n      PUSH [tag] 3\t\t\tcontract ProofOfWorkoutWithLoc...\n      JUMPI \t\t\tcontract ProofOfWorkoutWithLoc...\n      DUP1 \t\t\tcontract ProofOfWorkoutWithLoc...\n      PUSH 35422E0F\t\t\tcontract ProofOfWorkoutWithLoc...\n      EQ \t\t\tcontract ProofOfWorkoutWithLoc...\n      PUSH [tag] 4\t\t\tcontract ProofOfWorkoutWithLoc...\n      JUMPI \t\t\tcontract ProofOfWorkoutWithLoc...\n      DUP1 \t\t\tcontract ProofOfWorkoutWithLoc...\n      PUSH 7CD4E300\t\t\tcontract ProofOfWorkoutWithLoc...\n      EQ \t\t\tcontract ProofOfWorkoutWithLoc...\n      PUSH [tag] 5\t\t\tcontract ProofOfWorkoutWithLoc...\n      JUMPI \t\t\tcontract ProofOfWorkoutWithLoc...\n      DUP1 \t\t\tcontract ProofOfWorkoutWithLoc...\n      PUSH F432CEB3\t\t\tcontract ProofOfWorkoutWithLoc...\n      EQ \t\t\tcontract ProofOfWorkoutWithLoc...\n      PUSH [tag] 6\t\t\tcontract ProofOfWorkoutWithLoc...\n      JUMPI \t\t\tcontract ProofOfWorkoutWithLoc...\n    tag 2\t\t\tcontract ProofOfWorkoutWithLoc...\n      JUMPDEST \t\t\tcontract ProofOfWorkoutWithLoc...\n      PUSH 0\t\t\tcontract ProofOfWorkoutWithLoc...\n      DUP1 \t\t\tcontract ProofOfWorkoutWithLoc...\n      REVERT \t\t\tcontract ProofOfWorkoutWithLoc...\n    tag 3\t\t\tfunction getUserWorkouts(addre...\n      JUMPDEST \t\t\tfunction getUserWorkouts(addre...\n      PUSH [tag] 7\t\t\tfunction getUserWorkouts(addre...\n      PUSH 4\t\t\tfunction getUserWorkouts(addre...\n      DUP1 \t\t\tfunction getUserWorkouts(addre...\n      CALLDATASIZE \t\t\tfunction getUserWorkouts(addre...\n      SUB \t\t\tfunction getUserWorkouts(addre...\n      DUP2 \t\t\tfunction getUserWorkouts(addre...\n      ADD \t\t\tfunction getUserWorkouts(addre...\n      SWAP1 \t\t\tfunction getUserWorkouts(addre...\n      PUSH [tag] 8\t\t\tfunction getUserWorkouts(addre...\n      SWAP2 \t\t\tfunction getUserWorkouts(addre...\n      SWAP1 \t\t\tfunction getUserWorkouts(addre...\n      PUSH [tag] 9\t\t\tfunction getUserWorkouts(addre...\n      JUMP \t\t\tfunction getUserWorkouts(addre...\n    tag 8\t\t\tfunction getUserWorkouts(addre...\n      JUMPDEST \t\t\tfunction getUserWorkouts(addre...\n      PUSH [tag] 10\t\t\tfunction getUserWorkouts(addre...\n      JUMP \t\t\tfunction getUserWorkouts(addre...\n    tag 7\t\t\tfunction getUserWorkouts(addre...\n      JUMPDEST \t\t\tfunction getUserWorkouts(addre...\n      PUSH 40\t\t\tfunction getUserWorkouts(addre...\n      MLOAD \t\t\tfunction getUserWorkouts(addre...\n      PUSH [tag] 11\t\t\tfunction getUserWorkouts(addre...\n      SWAP2 \t\t\tfunction getUserWorkouts(addre...\n      SWAP1 \t\t\tfunction getUserWorkouts(addre...\n      PUSH [tag] 12\t\t\tfunction getUserWorkouts(addre...\n      JUMP \t\t\tfunction getUserWorkouts(addre...\n    tag 11\t\t\tfunction getUserWorkouts(addre...\n      JUMPDEST \t\t\tfunction getUserWorkouts(addre...\n      PUSH 40\t\t\tfunction getUserWorkouts(addre...\n      MLOAD \t\t\tfunction getUserWorkouts(addre...\n      DUP1 \t\t\tfunction getUserWorkouts(addre...\n      SWAP2 \t\t\tfunction getUserWorkouts(addre...\n      SUB \t\t\tfunction getUserWorkouts(addre...\n      SWAP1 \t\t\tfunction getUserWorkouts(addre...\n      RETURN \t\t\tfunction getUserWorkouts(addre...\n    tag 4\t\t\tuint256 public workoutCount\n      JUMPDEST \t\t\tuint256 public workoutCount\n      PUSH [tag] 13\t\t\tuint256 public workoutCount\n      PUSH [tag] 14\t\t\tuint256 public workoutCount\n      JUMP \t\t\tuint256 public workoutCount\n    tag 13\t\t\tuint256 public workoutCount\n      JUMPDEST \t\t\tuint256 public workoutCount\n      PUSH 40\t\t\tuint256 public workoutCount\n      MLOAD \t\t\tuint256 public workoutCount\n      PUSH [tag] 15\t\t\tuint256 public workoutCount\n      SWAP2 \t\t\tuint256 public workoutCount\n      SWAP1 \t\t\tuint256 public workoutCount\n      PUSH [tag] 16\t\t\tuint256 public workoutCount\n      JUMP \t\t\tuint256 public workoutCount\n    tag 15\t\t\tuint256 public workoutCount\n      JUMPDEST \t\t\tuint256 public workoutCount\n      PUSH 40\t\t\tuint256 public workoutCount\n      MLOAD \t\t\tuint256 public workoutCount\n      DUP1 \t\t\tuint256 public workoutCount\n      SWAP2 \t\t\tuint256 public workoutCount\n      SUB \t\t\tuint256 public workoutCount\n      SWAP1 \t\t\tuint256 public workoutCount\n      RETURN \t\t\tuint256 public workoutCount\n    tag 5\t\t\tfunction getUserWorkoutCount(a...\n      JUMPDEST \t\t\tfunction getUserWorkoutCount(a...\n      PUSH [tag] 17\t\t\tfunction getUserWorkoutCount(a...\n      PUSH 4\t\t\tfunction getUserWorkoutCount(a...\n      DUP1 \t\t\tfunction getUserWorkoutCount(a...\n      CALLDATASIZE \t\t\tfunction getUserWorkoutCount(a...\n      SUB \t\t\tfunction getUserWorkoutCount(a...\n      DUP2 \t\t\tfunction getUserWorkoutCount(a...\n      ADD \t\t\tfunction getUserWorkoutCount(a...\n      SWAP1 \t\t\tfunction getUserWorkoutCount(a...\n      PUSH [tag] 18\t\t\tfunction getUserWorkoutCount(a...\n      SWAP2 \t\t\tfunction getUserWorkoutCount(a...\n      SWAP1 \t\t\tfunction getUserWorkoutCount(a...\n      PUSH [tag] 9\t\t\tfunction getUserWorkoutCount(a...\n      JUMP \t\t\tfunction getUserWorkoutCount(a...\n    tag 18\t\t\tfunction getUserWorkoutCount(a...\n      JUMPDEST \t\t\tfunction getUserWorkoutCount(a...\n      PUSH [tag] 19\t\t\tfunction getUserWorkoutCount(a...\n      JUMP \t\t\tfunction getUserWorkoutCount(a...\n    tag 17\t\t\tfunction getUserWorkoutCount(a...\n      JUMPDEST \t\t\tfunction getUserWorkoutCount(a...\n      PUSH 40\t\t\tfunction getUserWorkoutCount(a...\n      MLOAD \t\t\tfunction getUserWorkoutCount(a...\n      PUSH [tag] 20\t\t\tfunction getUserWorkoutCount(a...\n      SWAP2 \t\t\tfunction getUserWorkoutCount(a...\n      SWAP1 \t\t\tfunction getUserWorkoutCount(a...\n      PUSH [tag] 16\t\t\tfunction getUserWorkoutCount(a...\n      JUMP \t\t\tfunction getUserWorkoutCount(a...\n    tag 20\t\t\tfunction getUserWorkoutCount(a...\n      JUMPDEST \t\t\tfunction getUserWorkoutCount(a...\n      PUSH 40\t\t\tfunction getUserWorkoutCount(a...\n      MLOAD \t\t\tfunction getUserWorkoutCount(a...\n      DUP1 \t\t\tfunction getUserWorkoutCount(a...\n      SWAP2 \t\t\tfunction getUserWorkoutCount(a...\n      SUB \t\t\tfunction getUserWorkoutCount(a...\n      SWAP1 \t\t\tfunction getUserWorkoutCount(a...\n      RETURN \t\t\tfunction getUserWorkoutCount(a...\n    tag 6\t\t\tfunction logWorkout(\\r\\n      ...\n      JUMPDEST \t\t\tfunction logWorkout(\\r\\n      ...\n      PUSH [tag] 21\t\t\tfunction logWorkout(\\r\\n      ...\n      PUSH 4\t\t\tfunction logWorkout(\\r\\n      ...\n      DUP1 \t\t\tfunction logWorkout(\\r\\n      ...\n      CALLDATASIZE \t\t\tfunction logWorkout(\\r\\n      ...\n      SUB \t\t\tfunction logWorkout(\\r\\n      ...\n      DUP2 \t\t\tfunction logWorkout(\\r\\n      ...\n      ADD \t\t\tfunction logWorkout(\\r\\n      ...\n      SWAP1 \t\t\tfunction logWorkout(\\r\\n      ...\n      PUSH [tag] 22\t\t\tfunction logWorkout(\\r\\n      ...\n      SWAP2 \t\t\tfunction logWorkout(\\r\\n      ...\n      SWAP1 \t\t\tfunction logWorkout(\\r\\n      ...\n      PUSH [tag] 23\t\t\tfunction logWorkout(\\r\\n      ...\n      JUMP \t\t\tfunction logWorkout(\\r\\n      ...\n    tag 22\t\t\tfunction logWorkout(\\r\\n      ...\n      JUMPDEST \t\t\tfunction logWorkout(\\r\\n      ...\n      PUSH [tag] 24\t\t\tfunction logWorkout(\\r\\n      ...\n      JUMP \t\t\tfunction logWorkout(\\r\\n      ...\n    tag 21\t\t\tfunction logWorkout(\\r\\n      ...\n      JUMPDEST \t\t\tfunction logWorkout(\\r\\n      ...\n      STOP \t\t\tfunction logWorkout(\\r\\n      ...\n    tag 10\t\t\tfunction getUserWorkouts(addre...\n      JUMPDEST \t\t\tfunction getUserWorkouts(addre...\n      PUSH 60\t\t\tWorkout[] memory\n      PUSH 0\t\t\tworkouts\n      DUP1 \t\t\tworkouts[_user]\n      DUP4 \t\t\t_user\n      PUSH FFFFFFFFFFFFFFFFFFFFFFFFFFFFFFFFFFFFFFFF\t\t\tworkouts[_user]\n      AND \t\t\tworkouts[_user]\n      PUSH FFFFFFFFFFFFFFFFFFFFFFFFFFFFFFFFFFFFFFFF\t\t\tworkouts[_user]\n      AND \t\t\tworkouts[_user]\n      DUP2 \t\t\tworkouts[_user]\n      MSTORE \t\t\tworkouts[_user]\n      PUSH 20\t\t\tworkouts[_user]\n      ADD \t\t\tworkouts[_user]\n      SWAP1 \t\t\tworkouts[_user]\n      DUP2 \t\t\tworkouts[_user]\n      MSTORE \t\t\tworkouts[_user]\n      PUSH 20\t\t\tworkouts[_user]\n      ADD \t\t\tworkouts[_user]\n      PUSH 0\t\t\tworkouts[_user]\n      KECCAK256 \t\t\tworkouts[_user]\n      DUP1 \t\t\treturn workouts[_user]\n      SLOAD \t\t\treturn workouts[_user]\n      DUP1 \t\t\treturn workouts[_user]\n      PUSH 20\t\t\treturn workouts[_user]\n      MUL \t\t\treturn workouts[_user]\n      PUSH 20\t\t\treturn workouts[_user]\n      ADD \t\t\treturn workouts[_user]\n      PUSH 40\t\t\treturn workouts[_user]\n      MLOAD \t\t\treturn workouts[_user]\n      SWAP1 \t\t\treturn workouts[_user]\n      DUP2 \t\t\treturn workouts[_user]\n      ADD \t\t\treturn workouts[_user]\n      PUSH 40\t\t\treturn workouts[_user]\n      MSTORE \t\t\treturn workouts[_user]\n      DUP1 \t\t\treturn workouts[_user]\n      SWAP3 \t\t\treturn workouts[_user]\n      SWAP2 \t\t\treturn workouts[_user]\n      SWAP1 \t\t\treturn workouts[_user]\n      DUP2 \t\t\treturn workouts[_user]\n      DUP2 \t\t\treturn workouts[_user]\n      MSTORE \t\t\treturn workouts[_user]\n      PUSH 20\t\t\treturn workouts[_user]\n      ADD \t\t\treturn workouts[_user]\n      PUSH 0\t\t\treturn workouts[_user]\n      SWAP1 \t\t\treturn workouts[_user]\n    tag 26\t\t\treturn workouts[_user]\n      JUMPDEST \t\t\treturn workouts[_user]\n      DUP3 \t\t\treturn workouts[_user]\n      DUP3 \t\t\treturn workouts[_user]\n      LT \t\t\treturn workouts[_user]\n      ISZERO \t\t\treturn workouts[_user]\n      PUSH [tag] 27\t\t\treturn workouts[_user]\n      JUMPI \t\t\treturn workouts[_user]\n      DUP4 \t\t\treturn workouts[_user]\n      DUP3 \t\t\treturn workouts[_user]\n      SWAP1 \t\t\treturn workouts[_user]\n      PUSH 0\t\t\treturn workouts[_user]\n      MSTORE \t\t\treturn workouts[_user]\n      PUSH 20\t\t\treturn workouts[_user]\n      PUSH 0\t\t\treturn workouts[_user]\n      KECCAK256 \t\t\treturn workouts[_user]\n      SWAP1 \t\t\treturn workouts[_user]\n      PUSH A\t\t\treturn workouts[_user]\n      MUL \t\t\treturn workouts[_user]\n      ADD \t\t\treturn workouts[_user]\n      PUSH 40\t\t\treturn workouts[_user]\n      MLOAD \t\t\treturn workouts[_user]\n      DUP1 \t\t\treturn workouts[_user]\n      PUSH 140\t\t\treturn workouts[_user]\n      ADD \t\t\treturn workouts[_user]\n      PUSH 40\t\t\treturn workouts[_user]\n      MSTORE \t\t\treturn workouts[_user]\n      SWAP1 \t\t\treturn workouts[_user]\n      DUP2 \t\t\treturn workouts[_user]\n      PUSH 0\t\t\treturn workouts[_user]\n      DUP3 \t\t\treturn workouts[_user]\n      ADD \t\t\treturn workouts[_user]\n      SLOAD \t\t\treturn workouts[_user]\n      DUP2 \t\t\treturn workouts[_user]\n      MSTORE \t\t\treturn workouts[_user]\n      PUSH 20\t\t\treturn workouts[_user]\n      ADD \t\t\treturn workouts[_user]\n      PUSH 1\t\t\treturn workouts[_user]\n      DUP3 \t\t\treturn workouts[_user]\n      ADD \t\t\treturn workouts[_user]\n      PUSH 0\t\t\treturn workouts[_user]\n      SWAP1 \t\t\treturn workouts[_user]\n      SLOAD \t\t\treturn workouts[_user]\n      SWAP1 \t\t\treturn workouts[_user]\n      PUSH 100\t\t\treturn workouts[_user]\n      EXP \t\t\treturn workouts[_user]\n      SWAP1 \t\t\treturn workouts[_user]\n      DIV \t\t\treturn workouts[_user]\n      PUSH FFFFFFFFFFFFFFFFFFFFFFFFFFFFFFFFFFFFFFFF\t\t\treturn workouts[_user]\n      AND \t\t\treturn workouts[_user]\n      PUSH FFFFFFFFFFFFFFFFFFFFFFFFFFFFFFFFFFFFFFFF\t\t\treturn workouts[_user]\n      AND \t\t\treturn workouts[_user]\n      PUSH FFFFFFFFFFFFFFFFFFFFFFFFFFFFFFFFFFFFFFFF\t\t\treturn workouts[_user]\n      AND \t\t\treturn workouts[_user]\n      DUP2 \t\t\treturn workouts[_user]\n      MSTORE \t\t\treturn workouts[_user]\n      PUSH 20\t\t\treturn workouts[_user]\n      ADD \t\t\treturn workouts[_user]\n      PUSH 2\t\t\treturn workouts[_user]\n      DUP3 \t\t\treturn workouts[_user]\n      ADD \t\t\treturn workouts[_user]\n      DUP1 \t\t\treturn workouts[_user]\n      SLOAD \t\t\treturn workouts[_user]\n      PUSH [tag] 29\t\t\treturn workouts[_user]\n      SWAP1 \t\t\treturn workouts[_user]\n      PUSH [tag] 30\t\t\treturn workouts[_user]\n      JUMP \t\t\treturn workouts[_user]\n    tag 29\t\t\treturn workouts[_user]\n      JUMPDEST \t\t\treturn workouts[_user]\n      DUP1 \t\t\treturn workouts[_user]\n      PUSH 1F\t\t\treturn workouts[_user]\n      ADD \t\t\treturn workouts[_user]\n      PUSH 20\t\t\treturn workouts[_user]\n      DUP1 \t\t\treturn workouts[_user]\n      SWAP2 \t\t\treturn workouts[_user]\n      DIV \t\t\treturn workouts[_user]\n      MUL \t\t\treturn workouts[_user]\n      PUSH 20\t\t\treturn workouts[_user]\n      ADD \t\t\treturn workouts[_user]\n      PUSH 40\t\t\treturn workouts[_user]\n      MLOAD \t\t\treturn workouts[_user]\n      SWAP1 \t\t\treturn workouts[_user]\n      DUP2 \t\t\treturn workouts[_user]\n      ADD \t\t\treturn workouts[_user]\n      PUSH 40\t\t\treturn workouts[_user]\n      MSTORE \t\t\treturn workouts[_user]\n      DUP1 \t\t\treturn workouts[_user]\n      SWAP3 \t\t\treturn workouts[_user]\n      SWAP2 \t\t\treturn workouts[_user]\n      SWAP1 \t\t\treturn workouts[_user]\n      DUP2 \t\t\treturn workouts[_user]\n      DUP2 \t\t\treturn workouts[_user]\n      MSTORE \t\t\treturn workouts[_user]\n      PUSH 20\t\t\treturn workouts[_user]\n      ADD \t\t\treturn workouts[_user]\n      DUP3 \t\t\treturn workouts[_user]\n      DUP1 \t\t\treturn workouts[_user]\n      SLOAD \t\t\treturn workouts[_user]\n      PUSH [tag] 31\t\t\treturn workouts[_user]\n      SWAP1 \t\t\treturn workouts[_user]\n      PUSH [tag] 30\t\t\treturn workouts[_user]\n      JUMP \t\t\treturn workouts[_user]\n    tag 31\t\t\treturn workouts[_user]\n      JUMPDEST \t\t\treturn workouts[_user]\n      DUP1 \t\t\treturn workouts[_user]\n      ISZERO \t\t\treturn workouts[_user]\n      PUSH [tag] 32\t\t\treturn workouts[_user]\n      JUMPI \t\t\treturn workouts[_user]\n      DUP1 \t\t\treturn workouts[_user]\n      PUSH 1F\t\t\treturn workouts[_user]\n      LT \t\t\treturn workouts[_user]\n      PUSH [tag] 33\t\t\treturn workouts[_user]\n      JUMPI \t\t\treturn workouts[_user]\n      PUSH 100\t\t\treturn workouts[_user]\n      DUP1 \t\t\treturn workouts[_user]\n      DUP4 \t\t\treturn workouts[_user]\n      SLOAD \t\t\treturn workouts[_user]\n      DIV \t\t\treturn workouts[_user]\n      MUL \t\t\treturn workouts[_user]\n      DUP4 \t\t\treturn workouts[_user]\n      MSTORE \t\t\treturn workouts[_user]\n      SWAP2 \t\t\treturn workouts[_user]\n      PUSH 20\t\t\treturn workouts[_user]\n      ADD \t\t\treturn workouts[_user]\n      SWAP2 \t\t\treturn workouts[_user]\n      PUSH [tag] 32\t\t\treturn workouts[_user]\n      JUMP \t\t\treturn workouts[_user]\n    tag 33\t\t\treturn workouts[_user]\n      JUMPDEST \t\t\treturn workouts[_user]\n      DUP3 \t\t\treturn workouts[_user]\n      ADD \t\t\treturn workouts[_user]\n      SWAP2 \t\t\treturn workouts[_user]\n      SWAP1 \t\t\treturn workouts[_user]\n      PUSH 0\t\t\treturn workouts[_user]\n      MSTORE \t\t\treturn workouts[_user]\n      PUSH 20\t\t\treturn workouts[_user]\n      PUSH 0\t\t\treturn workouts[_user]\n      KECCAK256 \t\t\treturn workouts[_user]\n      SWAP1 \t\t\treturn workouts[_user]\n    tag 34\t\t\treturn workouts[_user]\n      JUMPDEST \t\t\treturn workouts[_user]\n      DUP2 \t\t\treturn workouts[_user]\n      SLOAD \t\t\treturn workouts[_user]\n      DUP2 \t\t\treturn workouts[_user]\n      MSTORE \t\t\treturn workouts[_user]\n      SWAP1 \t\t\treturn workouts[_user]\n      PUSH 1\t\t\treturn workouts[_user]\n      ADD \t\t\treturn workouts[_user]\n      SWAP1 \t\t\treturn workouts[_user]\n      PUSH 20\t\t\treturn workouts[_user]\n      ADD \t\t\treturn workouts[_user]\n      DUP1 \t\t\treturn workouts[_user]\n      DUP4 \t\t\treturn workouts[_user]\n      GT \t\t\treturn workouts[_user]\n      PUSH [tag] 34\t\t\treturn workouts[_user]\n      JUMPI \t\t\treturn workouts[_user]\n      DUP3 \t\t\treturn workouts[_user]\n      SWAP1 \t\t\treturn workouts[_user]\n      SUB \t\t\treturn workouts[_user]\n      PUSH 1F\t\t\treturn workouts[_user]\n      AND \t\t\treturn workouts[_user]\n      DUP3 \t\t\treturn workouts[_user]\n      ADD \t\t\treturn workouts[_user]\n      SWAP2 \t\t\treturn workouts[_user]\n    tag 32\t\t\treturn workouts[_user]\n      JUMPDEST \t\t\treturn workouts[_user]\n      POP \t\t\treturn workouts[_user]\n      POP \t\t\treturn workouts[_user]\n      POP \t\t\treturn workouts[_user]\n      POP \t\t\treturn workouts[_user]\n      POP \t\t\treturn workouts[_user]\n      DUP2 \t\t\treturn workouts[_user]\n      MSTORE \t\t\treturn workouts[_user]\n      PUSH 20\t\t\treturn workouts[_user]\n      ADD \t\t\treturn workouts[_user]\n      PUSH 3\t\t\treturn workouts[_user]\n      DUP3 \t\t\treturn workouts[_user]\n      ADD \t\t\treturn workouts[_user]\n      SLOAD \t\t\treturn workouts[_user]\n      DUP2 \t\t\treturn workouts[_user]\n      MSTORE \t\t\treturn workouts[_user]\n      PUSH 20\t\t\treturn workouts[_user]\n      ADD \t\t\treturn workouts[_user]\n      PUSH 4\t\t\treturn workouts[_user]\n      DUP3 \t\t\treturn workouts[_user]\n      ADD \t\t\treturn workouts[_user]\n      SLOAD \t\t\treturn workouts[_user]\n      DUP2 \t\t\treturn workouts[_user]\n      MSTORE \t\t\treturn workouts[_user]\n      PUSH 20\t\t\treturn workouts[_user]\n      ADD \t\t\treturn workouts[_user]\n      PUSH 5\t\t\treturn workouts[_user]\n      DUP3 \t\t\treturn workouts[_user]\n      ADD \t\t\treturn workouts[_user]\n      SLOAD \t\t\treturn workouts[_user]\n      DUP2 \t\t\treturn workouts[_user]\n      MSTORE \t\t\treturn workouts[_user]\n      PUSH 20\t\t\treturn workouts[_user]\n      ADD \t\t\treturn workouts[_user]\n      PUSH 6\t\t\treturn workouts[_user]\n      DUP3 \t\t\treturn workouts[_user]\n      ADD \t\t\treturn workouts[_user]\n      SLOAD \t\t\treturn workouts[_user]\n      DUP2 \t\t\treturn workouts[_user]\n      MSTORE \t\t\treturn workouts[_user]\n      PUSH 20\t\t\treturn workouts[_user]\n      ADD \t\t\treturn workouts[_user]\n      PUSH 7\t\t\treturn workouts[_user]\n      DUP3 \t\t\treturn workouts[_user]\n      ADD \t\t\treturn workouts[_user]\n      SLOAD \t\t\treturn workouts[_user]\n      DUP2 \t\t\treturn workouts[_user]\n      MSTORE \t\t\treturn workouts[_user]\n      PUSH 20\t\t\treturn workouts[_user]\n      ADD \t\t\treturn workouts[_user]\n      PUSH 8\t\t\treturn workouts[_user]\n      DUP3 \t\t\treturn workouts[_user]\n      ADD \t\t\treturn workouts[_user]\n      SLOAD \t\t\treturn workouts[_user]\n      DUP2 \t\t\treturn workouts[_user]\n      MSTORE \t\t\treturn workouts[_user]\n      PUSH 20\t\t\treturn workouts[_user]\n      ADD \t\t\treturn workouts[_user]\n      PUSH 9\t\t\treturn workouts[_user]\n      DUP3 \t\t\treturn workouts[_user]\n      ADD \t\t\treturn workouts[_user]\n      SLOAD \t\t\treturn workouts[_user]\n      DUP2 \t\t\treturn workouts[_user]\n      MSTORE \t\t\treturn workouts[_user]\n      POP \t\t\treturn workouts[_user]\n      POP \t\t\treturn workouts[_user]\n      DUP2 \t\t\treturn workouts[_user]\n      MSTORE \t\t\treturn workouts[_user]\n      PUSH 20\t\t\treturn workouts[_user]\n      ADD \t\t\treturn workouts[_user]\n      SWAP1 \t\t\treturn workouts[_user]\n      PUSH 1\t\t\treturn workouts[_user]\n      ADD \t\t\treturn workouts[_user]\n      SWAP1 \t\t\treturn workouts[_user]\n      PUSH [tag] 26\t\t\treturn workouts[_user]\n      JUMP \t\t\treturn workouts[_user]\n    tag 27\t\t\treturn workouts[_user]\n      JUMPDEST \t\t\treturn workouts[_user]\n      POP \t\t\treturn workouts[_user]\n      POP \t\t\treturn workouts[_user]\n      POP \t\t\treturn workouts[_user]\n      POP \t\t\treturn workouts[_user]\n      SWAP1 \t\t\treturn workouts[_user]\n      POP \t\t\treturn workouts[_user]\n      SWAP2 \t\t\tfunction getUserWorkouts(addre...\n      SWAP1 \t\t\tfunction getUserWorkouts(addre...\n      POP \t\t\tfunction getUserWorkouts(addre...\n      JUMP \t\t\tfunction getUserWorkouts(addre...\n    tag 14\t\t\tuint256 public workoutCount\n      JUMPDEST \t\t\tuint256 public workoutCount\n      PUSH 1\t\t\tuint256 public workoutCount\n      SLOAD \t\t\tuint256 public workoutCount\n      DUP2 \t\t\tuint256 public workoutCount\n      JUMP \t\t\tuint256 public workoutCount\n    tag 19\t\t\tfunction getUserWorkoutCount(a...\n      JUMPDEST \t\t\tfunction getUserWorkoutCount(a...\n      PUSH 0\t\t\tuint256\n      DUP1 \t\t\tworkouts\n      PUSH 0\t\t\tworkouts[_user]\n      DUP4 \t\t\t_user\n      PUSH FFFFFFFFFFFFFFFFFFFFFFFFFFFFFFFFFFFFFFFF\t\t\tworkouts[_user]\n      AND \t\t\tworkouts[_user]\n      PUSH FFFFFFFFFFFFFFFFFFFFFFFFFFFFFFFFFFFFFFFF\t\t\tworkouts[_user]\n      AND \t\t\tworkouts[_user]\n      DUP2 \t\t\tworkouts[_user]\n      MSTORE \t\t\tworkouts[_user]\n      PUSH 20\t\t\tworkouts[_user]\n      ADD \t\t\tworkouts[_user]\n      SWAP1 \t\t\tworkouts[_user]\n      DUP2 \t\t\tworkouts[_user]\n      MSTORE \t\t\tworkouts[_user]\n      PUSH 20\t\t\tworkouts[_user]\n      ADD \t\t\tworkouts[_user]\n      PUSH 0\t\t\tworkouts[_user]\n      KECCAK256 \t\t\tworkouts[_user]\n      DUP1 \t\t\tworkouts[_user].length\n      SLOAD \t\t\tworkouts[_user].length\n      SWAP1 \t\t\tworkouts[_user].length\n      POP \t\t\tworkouts[_user].length\n      SWAP1 \t\t\treturn workouts[_user].length\n      POP \t\t\treturn workouts[_user].length\n      SWAP2 \t\t\tfunction getUserWorkoutCount(a...\n      SWAP1 \t\t\tfunction getUserWorkoutCount(a...\n      POP \t\t\tfunction getUserWorkoutCount(a...\n      JUMP \t\t\tfunction getUserWorkoutCount(a...\n    tag 24\t\t\tfunction logWorkout(\\r\\n      ...\n      JUMPDEST \t\t\tfunction logWorkout(\\r\\n      ...\n      PUSH 0\t\t\t0\n      DUP9 \t\t\t_workoutType\n      MLOAD \t\t\tbytes(_workoutType).length\n      GT \t\t\tbytes(_workoutType).length > 0\n      PUSH [tag] 37\t\t\trequire(bytes(_workoutType).le...\n      JUMPI \t\t\trequire(bytes(_workoutType).le...\n      PUSH 40\t\t\trequire(bytes(_workoutType).le...\n      MLOAD \t\t\trequire(bytes(_workoutType).le...\n      PUSH 8C379A000000000000000000000000000000000000000000000000000000000\t\t\trequire(bytes(_workoutType).le...\n      DUP2 \t\t\trequire(bytes(_workoutType).le...\n      MSTORE \t\t\trequire(bytes(_workoutType).le...\n      PUSH 4\t\t\trequire(bytes(_workoutType).le...\n      ADD \t\t\trequire(bytes(_workoutType).le...\n      PUSH [tag] 38\t\t\trequire(bytes(_workoutType).le...\n      SWAP1 \t\t\trequire(bytes(_workoutType).le...\n      PUSH [tag] 39\t\t\trequire(bytes(_workoutType).le...\n      JUMP \t\t\trequire(bytes(_workoutType).le...\n    tag 38\t\t\trequire(bytes(_workoutType).le...\n      JUMPDEST \t\t\trequire(bytes(_workoutType).le...\n      PUSH 40\t\t\trequire(bytes(_workoutType).le...\n      MLOAD \t\t\trequire(bytes(_workoutType).le...\n      DUP1 \t\t\trequire(bytes(_workoutType).le...\n      SWAP2 \t\t\trequire(bytes(_workoutType).le...\n      SUB \t\t\trequire(bytes(_workoutType).le...\n      SWAP1 \t\t\trequire(bytes(_workoutType).le...\n      REVERT \t\t\trequire(bytes(_workoutType).le...\n    tag 37\t\t\trequire(bytes(_workoutType).le...\n      JUMPDEST \t\t\trequire(bytes(_workoutType).le...\n      PUSH 0\t\t\t0\n      DUP8 \t\t\t_duration\n      GT \t\t\t_duration > 0\n      PUSH [tag] 40\t\t\trequire(_duration > 0, \"Durati...\n      JUMPI \t\t\trequire(_duration > 0, \"Durati...\n      PUSH 40\t\t\trequire(_duration > 0, \"Durati...\n      MLOAD \t\t\trequire(_duration > 0, \"Durati...\n      PUSH 8C379A000000000000000000000000000000000000000000000000000000000\t\t\trequire(_duration > 0, \"Durati...\n      DUP2 \t\t\trequire(_duration > 0, \"Durati...\n      MSTORE \t\t\trequire(_duration > 0, \"Durati...\n      PUSH 4\t\t\trequire(_duration > 0, \"Durati...\n      ADD \t\t\trequire(_duration > 0, \"Durati...\n      PUSH [tag] 41\t\t\trequire(_duration > 0, \"Durati...\n      SWAP1 \t\t\trequire(_duration > 0, \"Durati...\n      PUSH [tag] 42\t\t\trequire(_duration > 0, \"Durati...\n      JUMP \t\t\trequire(_duration > 0, \"Durati...\n    tag 41\t\t\trequire(_duration > 0, \"Durati...\n      JUMPDEST \t\t\trequire(_duration > 0, \"Durati...\n      PUSH 40\t\t\trequire(_duration > 0, \"Durati...\n      MLOAD \t\t\trequire(_duration > 0, \"Durati...\n      DUP1 \t\t\trequire(_duration > 0, \"Durati...\n      SWAP2 \t\t\trequire(_duration > 0, \"Durati...\n      SUB \t\t\trequire(_duration > 0, \"Durati...\n      SWAP1 \t\t\trequire(_duration > 0, \"Durati...\n      REVERT \t\t\trequire(_duration > 0, \"Durati...\n    tag 40\t\t\trequire(_duration > 0, \"Durati...\n      JUMPDEST \t\t\trequire(_duration > 0, \"Durati...\n      PUSH 0\t\t\t0\n      DUP7 \t\t\t_startTime\n      GT \t\t\t_startTime > 0\n      PUSH [tag] 43\t\t\trequire(_startTime > 0, \"Start...\n      JUMPI \t\t\trequire(_startTime > 0, \"Start...\n      PUSH 40\t\t\trequire(_startTime > 0, \"Start...\n      MLOAD \t\t\trequire(_startTime > 0, \"Start...\n      PUSH 8C379A000000000000000000000000000000000000000000000000000000000\t\t\trequire(_startTime > 0, \"Start...\n      DUP2 \t\t\trequire(_startTime > 0, \"Start...\n      MSTORE \t\t\trequire(_startTime > 0, \"Start...\n      PUSH 4\t\t\trequire(_startTime > 0, \"Start...\n      ADD \t\t\trequire(_startTime > 0, \"Start...\n      PUSH [tag] 44\t\t\trequire(_startTime > 0, \"Start...\n      SWAP1 \t\t\trequire(_startTime > 0, \"Start...\n      PUSH [tag] 45\t\t\trequire(_startTime > 0, \"Start...\n      JUMP \t\t\trequire(_startTime > 0, \"Start...\n    tag 44\t\t\trequire(_startTime > 0, \"Start...\n      JUMPDEST \t\t\trequire(_startTime > 0, \"Start...\n      PUSH 40\t\t\trequire(_startTime > 0, \"Start...\n      MLOAD \t\t\trequire(_startTime > 0, \"Start...\n      DUP1 \t\t\trequire(_startTime > 0, \"Start...\n      SWAP2 \t\t\trequire(_startTime > 0, \"Start...\n      SUB \t\t\trequire(_startTime > 0, \"Start...\n      SWAP1 \t\t\trequire(_startTime > 0, \"Start...\n      REVERT \t\t\trequire(_startTime > 0, \"Start...\n    tag 43\t\t\trequire(_startTime > 0, \"Start...\n      JUMPDEST \t\t\trequire(_startTime > 0, \"Start...\n      DUP6 \t\t\t_startTime\n      DUP6 \t\t\t_endTime\n      GT \t\t\t_endTime > _startTime\n      PUSH [tag] 46\t\t\trequire(_endTime > _startTime,...\n      JUMPI \t\t\trequire(_endTime > _startTime,...\n      PUSH 40\t\t\trequire(_endTime > _startTime,...\n      MLOAD \t\t\trequire(_endTime > _startTime,...\n      PUSH 8C379A000000000000000000000000000000000000000000000000000000000\t\t\trequire(_endTime > _startTime,...\n      DUP2 \t\t\trequire(_endTime > _startTime,...\n      MSTORE \t\t\trequire(_endTime > _startTime,...\n      PUSH 4\t\t\trequire(_endTime > _startTime,...\n      ADD \t\t\trequire(_endTime > _startTime,...\n      PUSH [tag] 47\t\t\trequire(_endTime > _startTime,...\n      SWAP1 \t\t\trequire(_endTime > _startTime,...\n      PUSH [tag] 48\t\t\trequire(_endTime > _startTime,...\n      JUMP \t\t\trequire(_endTime > _startTime,...\n    tag 47\t\t\trequire(_endTime > _startTime,...\n      JUMPDEST \t\t\trequire(_endTime > _startTime,...\n      PUSH 40\t\t\trequire(_endTime > _startTime,...\n      MLOAD \t\t\trequire(_endTime > _startTime,...\n      DUP1 \t\t\trequire(_endTime > _startTime,...\n      SWAP2 \t\t\trequire(_endTime > _startTime,...\n      SUB \t\t\trequire(_endTime > _startTime,...\n      SWAP1 \t\t\trequire(_endTime > _startTime,...\n      REVERT \t\t\trequire(_endTime > _startTime,...\n    tag 46\t\t\trequire(_endTime > _startTime,...\n      JUMPDEST \t\t\trequire(_endTime > _startTime,...\n      PUSH 1\t\t\tworkoutCount\n      PUSH 0\t\t\tworkoutCount\n      DUP2 \t\t\tworkoutCount++\n      SLOAD \t\t\tworkoutCount++\n      DUP1 \t\t\tworkoutCount++\n      SWAP3 \t\t\tworkoutCount++\n      SWAP2 \t\t\tworkoutCount++\n      SWAP1 \t\t\tworkoutCount++\n      PUSH [tag] 49\t\t\tworkoutCount++\n      SWAP1 \t\t\tworkoutCount++\n      PUSH [tag] 50\t\t\tworkoutCount++\n      JUMP \t\t\tworkoutCount++\n    tag 49\t\t\tworkoutCount++\n      JUMPDEST \t\t\tworkoutCount++\n      SWAP2 \t\t\tworkoutCount++\n      SWAP1 \t\t\tworkoutCount++\n      POP \t\t\tworkoutCount++\n      SSTORE \t\t\tworkoutCount++\n      POP \t\t\tworkoutCount++\n      PUSH 0\t\t\tworkouts\n      DUP1 \t\t\tworkouts[msg.sender]\n      CALLER \t\t\tmsg.sender\n      PUSH FFFFFFFFFFFFFFFFFFFFFFFFFFFFFFFFFFFFFFFF\t\t\tworkouts[msg.sender]\n      AND \t\t\tworkouts[msg.sender]\n      PUSH FFFFFFFFFFFFFFFFFFFFFFFFFFFFFFFFFFFFFFFF\t\t\tworkouts[msg.sender]\n      AND \t\t\tworkouts[msg.sender]\n      DUP2 \t\t\tworkouts[msg.sender]\n      MSTORE \t\t\tworkouts[msg.sender]\n      PUSH 20\t\t\tworkouts[msg.sender]\n      ADD \t\t\tworkouts[msg.sender]\n      SWAP1 \t\t\tworkouts[msg.sender]\n      DUP2 \t\t\tworkouts[msg.sender]\n      MSTORE \t\t\tworkouts[msg.sender]\n      PUSH 20\t\t\tworkouts[msg.sender]\n      ADD \t\t\tworkouts[msg.sender]\n      PUSH 0\t\t\tworkouts[msg.sender]\n      KECCAK256 \t\t\tworkouts[msg.sender]\n      PUSH 40\t\t\tWorkout(\\r\\n            workou...\n      MLOAD \t\t\tWorkout(\\r\\n            workou...\n      DUP1 \t\t\tWorkout(\\r\\n            workou...\n      PUSH 140\t\t\tWorkout(\\r\\n            workou...\n      ADD \t\t\tWorkout(\\r\\n            workou...\n      PUSH 40\t\t\tWorkout(\\r\\n            workou...\n      MSTORE \t\t\tWorkout(\\r\\n            workou...\n      DUP1 \t\t\tWorkout(\\r\\n            workou...\n      PUSH 1\t\t\tworkoutCount\n      SLOAD \t\t\tworkoutCount\n      DUP2 \t\t\tWorkout(\\r\\n            workou...\n      MSTORE \t\t\tWorkout(\\r\\n            workou...\n      PUSH 20\t\t\tWorkout(\\r\\n            workou...\n      ADD \t\t\tWorkout(\\r\\n            workou...\n      CALLER \t\t\tmsg.sender\n      PUSH FFFFFFFFFFFFFFFFFFFFFFFFFFFFFFFFFFFFFFFF\t\t\tWorkout(\\r\\n            workou...\n      AND \t\t\tWorkout(\\r\\n            workou...\n      DUP2 \t\t\tWorkout(\\r\\n            workou...\n      MSTORE \t\t\tWorkout(\\r\\n            workou...\n      PUSH 20\t\t\tWorkout(\\r\\n            workou...\n      ADD \t\t\tWorkout(\\r\\n            workou...\n      DUP11 \t\t\t_workoutType\n      DUP2 \t\t\tWorkout(\\r\\n            workou...\n      MSTORE \t\t\tWorkout(\\r\\n            workou...\n      PUSH 20\t\t\tWorkout(\\r\\n            workou...\n      ADD \t\t\tWorkout(\\r\\n            workou...\n      DUP10 \t\t\t_duration\n      DUP2 \t\t\tWorkout(\\r\\n            workou...\n      MSTORE \t\t\tWorkout(\\r\\n            workou...\n      PUSH 20\t\t\tWorkout(\\r\\n            workou...\n      ADD \t\t\tWorkout(\\r\\n            workou...\n      DUP9 \t\t\t_startTime\n      DUP2 \t\t\tWorkout(\\r\\n            workou...\n      MSTORE \t\t\tWorkout(\\r\\n            workou...\n      PUSH 20\t\t\tWorkout(\\r\\n            workou...\n      ADD \t\t\tWorkout(\\r\\n            workou...\n      DUP8 \t\t\t_endTime\n      DUP2 \t\t\tWorkout(\\r\\n            workou...\n      MSTORE \t\t\tWorkout(\\r\\n            workou...\n      PUSH 20\t\t\tWorkout(\\r\\n            workou...\n      ADD \t\t\tWorkout(\\r\\n            workou...\n      DUP7 \t\t\t_latitudeStart\n      DUP2 \t\t\tWorkout(\\r\\n            workou...\n      MSTORE \t\t\tWorkout(\\r\\n            workou...\n      PUSH 20\t\t\tWorkout(\\r\\n            workou...\n      ADD \t\t\tWorkout(\\r\\n            workou...\n      DUP6 \t\t\t_longitudeStart\n      DUP2 \t\t\tWorkout(\\r\\n            workou...\n      MSTORE \t\t\tWorkout(\\r\\n            workou...\n      PUSH 20\t\t\tWorkout(\\r\\n            workou...\n      ADD \t\t\tWorkout(\\r\\n            workou...\n      DUP5 \t\t\t_latitudeEnd\n      DUP2 \t\t\tWorkout(\\r\\n            workou...\n      MSTORE \t\t\tWorkout(\\r\\n            workou...\n      PUSH 20\t\t\tWorkout(\\r\\n            workou...\n      ADD \t\t\tWorkout(\\r\\n            workou...\n      DUP4 \t\t\t_longitudeEnd\n      DUP2 \t\t\tWorkout(\\r\\n            workou...\n      MSTORE \t\t\tWorkout(\\r\\n            workou...\n      POP \t\t\tWorkout(\\r\\n            workou...\n      SWAP1 \t\t\tworkouts[msg.sender].push(Work...\n      DUP1 \t\t\tworkouts[msg.sender].push(Work...\n      PUSH 1\t\t\tworkouts[msg.sender].push(Work...\n      DUP2 \t\t\tworkouts[msg.sender].push(Work...\n      SLOAD \t\t\tworkouts[msg.sender].push(Work...\n      ADD \t\t\tworkouts[msg.sender].push(Work...\n      DUP1 \t\t\tworkouts[msg.sender].push(Work...\n      DUP3 \t\t\tworkouts[msg.sender].push(Work...\n      SSTORE \t\t\tworkouts[msg.sender].push(Work...\n      DUP1 \t\t\tworkouts[msg.sender].push(Work...\n      SWAP2 \t\t\tworkouts[msg.sender].push(Work...\n      POP \t\t\tworkouts[msg.sender].push(Work...\n      POP \t\t\tworkouts[msg.sender].push(Work...\n      PUSH 1\t\t\tworkouts[msg.sender].push(Work...\n      SWAP1 \t\t\tworkouts[msg.sender].push(Work...\n      SUB \t\t\tworkouts[msg.sender].push(Work...\n      SWAP1 \t\t\tworkouts[msg.sender].push(Work...\n      PUSH 0\t\t\tworkouts[msg.sender].push(Work...\n      MSTORE \t\t\tworkouts[msg.sender].push(Work...\n      PUSH 20\t\t\tworkouts[msg.sender].push(Work...\n      PUSH 0\t\t\tworkouts[msg.sender].push(Work...\n      KECCAK256 \t\t\tworkouts[msg.sender].push(Work...\n      SWAP1 \t\t\tworkouts[msg.sender].push(Work...\n      PUSH A\t\t\tworkouts[msg.sender].push(Work...\n      MUL \t\t\tworkouts[msg.sender].push(Work...\n      ADD \t\t\tworkouts[msg.sender].push(Work...\n      PUSH 0\t\t\tworkouts[msg.sender].push(Work...\n      SWAP1 \t\t\tworkouts[msg.sender].push(Work...\n      SWAP2 \t\t\tworkouts[msg.sender].push(Work...\n      SWAP1 \t\t\tworkouts[msg.sender].push(Work...\n      SWAP2 \t\t\tworkouts[msg.sender].push(Work...\n      SWAP1 \t\t\tworkouts[msg.sender].push(Work...\n      SWAP2 \t\t\tworkouts[msg.sender].push(Work...\n      POP \t\t\tworkouts[msg.sender].push(Work...\n      PUSH 0\t\t\tworkouts[msg.sender].push(Work...\n      DUP3 \t\t\tworkouts[msg.sender].push(Work...\n      ADD \t\t\tworkouts[msg.sender].push(Work...\n      MLOAD \t\t\tworkouts[msg.sender].push(Work...\n      DUP2 \t\t\tworkouts[msg.sender].push(Work...\n      PUSH 0\t\t\tworkouts[msg.sender].push(Work...\n      ADD \t\t\tworkouts[msg.sender].push(Work...\n      SSTORE \t\t\tworkouts[msg.sender].push(Work...\n      PUSH 20\t\t\tworkouts[msg.sender].push(Work...\n      DUP3 \t\t\tworkouts[msg.sender].push(Work...\n      ADD \t\t\tworkouts[msg.sender].push(Work...\n      MLOAD \t\t\tworkouts[msg.sender].push(Work...\n      DUP2 \t\t\tworkouts[msg.sender].push(Work...\n      PUSH 1\t\t\tworkouts[msg.sender].push(Work...\n      ADD \t\t\tworkouts[msg.sender].push(Work...\n      PUSH 0\t\t\tworkouts[msg.sender].push(Work...\n      PUSH 100\t\t\tworkouts[msg.sender].push(Work...\n      EXP \t\t\tworkouts[msg.sender].push(Work...\n      DUP2 \t\t\tworkouts[msg.sender].push(Work...\n      SLOAD \t\t\tworkouts[msg.sender].push(Work...\n      DUP2 \t\t\tworkouts[msg.sender].push(Work...\n      PUSH FFFFFFFFFFFFFFFFFFFFFFFFFFFFFFFFFFFFFFFF\t\t\tworkouts[msg.sender].push(Work...\n      MUL \t\t\tworkouts[msg.sender].push(Work...\n      NOT \t\t\tworkouts[msg.sender].push(Work...\n      AND \t\t\tworkouts[msg.sender].push(Work...\n      SWAP1 \t\t\tworkouts[msg.sender].push(Work...\n      DUP4 \t\t\tworkouts[msg.sender].push(Work...\n      PUSH FFFFFFFFFFFFFFFFFFFFFFFFFFFFFFFFFFFFFFFF\t\t\tworkouts[msg.sender].push(Work...\n      AND \t\t\tworkouts[msg.sender].push(Work...\n      MUL \t\t\tworkouts[msg.sender].push(Work...\n      OR \t\t\tworkouts[msg.sender].push(Work...\n      SWAP1 \t\t\tworkouts[msg.sender].push(Work...\n      SSTORE \t\t\tworkouts[msg.sender].push(Work...\n      POP \t\t\tworkouts[msg.sender].push(Work...\n      PUSH 40\t\t\tworkouts[msg.sender].push(Work...\n      DUP3 \t\t\tworkouts[msg.sender].push(Work...\n      ADD \t\t\tworkouts[msg.sender].push(Work...\n      MLOAD \t\t\tworkouts[msg.sender].push(Work...\n      DUP2 \t\t\tworkouts[msg.sender].push(Work...\n      PUSH 2\t\t\tworkouts[msg.sender].push(Work...\n      ADD \t\t\tworkouts[msg.sender].push(Work...\n      SWAP1 \t\t\tworkouts[msg.sender].push(Work...\n      DUP2 \t\t\tworkouts[msg.sender].push(Work...\n      PUSH [tag] 52\t\t\tworkouts[msg.sender].push(Work...\n      SWAP2 \t\t\tworkouts[msg.sender].push(Work...\n      SWAP1 \t\t\tworkouts[msg.sender].push(Work...\n      PUSH [tag] 53\t\t\tworkouts[msg.sender].push(Work...\n      JUMP \t\t\tworkouts[msg.sender].push(Work...\n    tag 52\t\t\tworkouts[msg.sender].push(Work...\n      JUMPDEST \t\t\tworkouts[msg.sender].push(Work...\n      POP \t\t\tworkouts[msg.sender].push(Work...\n      PUSH 60\t\t\tworkouts[msg.sender].push(Work...\n      DUP3 \t\t\tworkouts[msg.sender].push(Work...\n      ADD \t\t\tworkouts[msg.sender].push(Work...\n      MLOAD \t\t\tworkouts[msg.sender].push(Work...\n      DUP2 \t\t\tworkouts[msg.sender].push(Work...\n      PUSH 3\t\t\tworkouts[msg.sender].push(Work...\n      ADD \t\t\tworkouts[msg.sender].push(Work...\n      SSTORE \t\t\tworkouts[msg.sender].push(Work...\n      PUSH 80\t\t\tworkouts[msg.sender].push(Work...\n      DUP3 \t\t\tworkouts[msg.sender].push(Work...\n      ADD \t\t\tworkouts[msg.sender].push(Work...\n      MLOAD \t\t\tworkouts[msg.sender].push(Work...\n      DUP2 \t\t\tworkouts[msg.sender].push(Work...\n      PUSH 4\t\t\tworkouts[msg.sender].push(Work...\n      ADD \t\t\tworkouts[msg.sender].push(Work...\n      SSTORE \t\t\tworkouts[msg.sender].push(Work...\n      PUSH A0\t\t\tworkouts[msg.sender].push(Work...\n      DUP3 \t\t\tworkouts[msg.sender].push(Work...\n      ADD \t\t\tworkouts[msg.sender].push(Work...\n      MLOAD \t\t\tworkouts[msg.sender].push(Work...\n      DUP2 \t\t\tworkouts[msg.sender].push(Work...\n      PUSH 5\t\t\tworkouts[msg.sender].push(Work...\n      ADD \t\t\tworkouts[msg.sender].push(Work...\n      SSTORE \t\t\tworkouts[msg.sender].push(Work...\n      PUSH C0\t\t\tworkouts[msg.sender].push(Work...\n      DUP3 \t\t\tworkouts[msg.sender].push(Work...\n      ADD \t\t\tworkouts[msg.sender].push(Work...\n      MLOAD \t\t\tworkouts[msg.sender].push(Work...\n      DUP2 \t\t\tworkouts[msg.sender].push(Work...\n      PUSH 6\t\t\tworkouts[msg.sender].push(Work...\n      ADD \t\t\tworkouts[msg.sender].push(Work...\n      SSTORE \t\t\tworkouts[msg.sender].push(Work...\n      PUSH E0\t\t\tworkouts[msg.sender].push(Work...\n      DUP3 \t\t\tworkouts[msg.sender].push(Work...\n      ADD \t\t\tworkouts[msg.sender].push(Work...\n      MLOAD \t\t\tworkouts[msg.sender].push(Work...\n      DUP2 \t\t\tworkouts[msg.sender].push(Work...\n      PUSH 7\t\t\tworkouts[msg.sender].push(Work...\n      ADD \t\t\tworkouts[msg.sender].push(Work...\n      SSTORE \t\t\tworkouts[msg.sender].push(Work...\n      PUSH 100\t\t\tworkouts[msg.sender].push(Work...\n      DUP3 \t\t\tworkouts[msg.sender].push(Work...\n      ADD \t\t\tworkouts[msg.sender].push(Work...\n      MLOAD \t\t\tworkouts[msg.sender].push(Work...\n      DUP2 \t\t\tworkouts[msg.sender].push(Work...\n      PUSH 8\t\t\tworkouts[msg.sender].push(Work...\n      ADD \t\t\tworkouts[msg.sender].push(Work...\n      SSTORE \t\t\tworkouts[msg.sender].push(Work...\n      PUSH 120\t\t\tworkouts[msg.sender].push(Work...\n      DUP3 \t\t\tworkouts[msg.sender].push(Work...\n      ADD \t\t\tworkouts[msg.sender].push(Work...\n      MLOAD \t\t\tworkouts[msg.sender].push(Work...\n      DUP2 \t\t\tworkouts[msg.sender].push(Work...\n      PUSH 9\t\t\tworkouts[msg.sender].push(Work...\n      ADD \t\t\tworkouts[msg.sender].push(Work...\n      SSTORE \t\t\tworkouts[msg.sender].push(Work...\n      POP \t\t\tworkouts[msg.sender].push(Work...\n      POP \t\t\tworkouts[msg.sender].push(Work...\n      CALLER \t\t\tmsg.sender\n      PUSH FFFFFFFFFFFFFFFFFFFFFFFFFFFFFFFFFFFFFFFF\t\t\tWorkoutLogged(\\r\\n            ...\n      AND \t\t\tWorkoutLogged(\\r\\n            ...\n      PUSH 1\t\t\tworkoutCount\n      SLOAD \t\t\tworkoutCount\n      PUSH 479D016B5E7D0738BD0A58CA8FB450E22AAE7A78AA5D5FA6E9E310E43E53F20D\t\t\tWorkoutLogged(\\r\\n            ...\n      DUP11 \t\t\t_workoutType\n      DUP11 \t\t\t_duration\n      DUP11 \t\t\t_startTime\n      DUP11 \t\t\t_endTime\n      DUP11 \t\t\t_latitudeStart\n      DUP11 \t\t\t_longitudeStart\n      DUP11 \t\t\t_latitudeEnd\n      DUP11 \t\t\t_longitudeEnd\n      PUSH 40\t\t\tWorkoutLogged(\\r\\n            ...\n      MLOAD \t\t\tWorkoutLogged(\\r\\n            ...\n      PUSH [tag] 54\t\t\tWorkoutLogged(\\r\\n            ...\n      SWAP9 \t\t\tWorkoutLogged(\\r\\n            ...\n      SWAP8 \t\t\tWorkoutLogged(\\r\\n            ...\n      SWAP7 \t\t\tWorkoutLogged(\\r\\n            ...\n      SWAP6 \t\t\tWorkoutLogged(\\r\\n            ...\n      SWAP5 \t\t\tWorkoutLogged(\\r\\n            ...\n      SWAP4 \t\t\tWorkoutLogged(\\r\\n            ...\n      SWAP3 \t\t\tWorkoutLogged(\\r\\n            ...\n      SWAP2 \t\t\tWorkoutLogged(\\r\\n            ...\n      SWAP1 \t\t\tWorkoutLogged(\\r\\n            ...\n      PUSH [tag] 55\t\t\tWorkoutLogged(\\r\\n            ...\n      JUMP \t\t\tWorkoutLogged(\\r\\n            ...\n    tag 54\t\t\tWorkoutLogged(\\r\\n            ...\n      JUMPDEST \t\t\tWorkoutLogged(\\r\\n            ...\n      PUSH 40\t\t\tWorkoutLogged(\\r\\n            ...\n      MLOAD \t\t\tWorkoutLogged(\\r\\n            ...\n      DUP1 \t\t\tWorkoutLogged(\\r\\n            ...\n      SWAP2 \t\t\tWorkoutLogged(\\r\\n            ...\n      SUB \t\t\tWorkoutLogged(\\r\\n            ...\n      SWAP1 \t\t\tWorkoutLogged(\\r\\n            ...\n      LOG3 \t\t\tWorkoutLogged(\\r\\n            ...\n      POP \t\t\tfunction logWorkout(\\r\\n      ...\n      POP \t\t\tfunction logWorkout(\\r\\n      ...\n      POP \t\t\tfunction logWorkout(\\r\\n      ...\n      POP \t\t\tfunction logWorkout(\\r\\n      ...\n      POP \t\t\tfunction logWorkout(\\r\\n      ...\n      POP \t\t\tfunction logWorkout(\\r\\n      ...\n      POP \t\t\tfunction logWorkout(\\r\\n      ...\n      POP \t\t\tfunction logWorkout(\\r\\n      ...\n      JUMP \t\t\tfunction logWorkout(\\r\\n      ...\n    tag 56\t\t\t-License-Identifier: MIT\\r\\npr...\n      JUMPDEST \t\t\t-License-Identifier: MIT\\r\\npr...\n      PUSH 0\t\t\tsolidi\n      PUSH 40\t\t\tfO\n      MLOAD \t\t\tt ProofOf\n      SWAP1 \t\t\t\\n\\r\\ncontract ProofOf\n      POP \t\t\t\\n\\r\\ncontract ProofOf\n      SWAP1 \t\t\t-License-Identifier: MIT\\r\\npr...\n      JUMP \t\t\t-License-Identifier: MIT\\r\\npr...\n    tag 57\t\t\tocation {\\r\\n    struct Workou...\n      JUMPDEST \t\t\tocation {\\r\\n    struct Workou...\n      PUSH 0\t\t\t/\n      DUP1 \t\t\t \n      REVERT \t\t\tType;    // \n    tag 58\t\t\t\", \"Yoga\", etc.\\r\\n        uin...\n      JUMPDEST \t\t\t\", \"Yoga\", etc.\\r\\n        uin...\n      PUSH 0\t\t\tr\n      DUP1 \t\t\tS\n      REVERT \t\t\t    // Start\n    tag 59\t\t\tkout (UNIX timestamp)\\r\\n     ...\n      JUMPDEST \t\t\tkout (UNIX timestamp)\\r\\n     ...\n      PUSH 0\t\t\t6 endTi\n      PUSH FFFFFFFFFFFFFFFFFFFFFFFFFFFFFFFFFFFFFFFF\t\t\t(UNIX timestamp)\\r\\n        ui...\n      DUP3 \t\t\torkou\n      AND \t\t\tof workout (UNIX timestamp)\\r\\...\n      SWAP1 \t\t\t/ End time of workout (UNIX ti...\n      POP \t\t\t/ End time of workout (UNIX ti...\n      SWAP2 \t\t\tkout (UNIX timestamp)\\r\\n     ...\n      SWAP1 \t\t\tkout (UNIX timestamp)\\r\\n     ...\n      POP \t\t\tkout (UNIX timestamp)\\r\\n     ...\n      JUMP \t\t\tkout (UNIX timestamp)\\r\\n     ...\n    tag 60\t\t\trt Latitude (multiplied by 10^...\n      JUMPDEST \t\t\trt Latitude (multiplied by 10^...\n      PUSH 0\t\t\trecisio\n      PUSH [tag] 123\t\t\tngitudeStart;// Start Lo\n      DUP3 \t\t\tart L\n      PUSH [tag] 59\t\t\tngitudeStart;// Start Lo\n      JUMP \t\t\tngitudeStart;// Start Lo\n    tag 123\t\t\tngitudeStart;// Start Lo\n      JUMPDEST \t\t\tngitudeStart;// Start Lo\n      SWAP1 \t\t\t uint256 longitudeStart;// Sta...\n      POP \t\t\t uint256 longitudeStart;// Sta...\n      SWAP2 \t\t\trt Latitude (multiplied by 10^...\n      SWAP1 \t\t\trt Latitude (multiplied by 10^...\n      POP \t\t\trt Latitude (multiplied by 10^...\n      JUMP \t\t\trt Latitude (multiplied by 10^...\n    tag 61\t\t\ttiplied by 10^6 for precision)...\n      JUMPDEST \t\t\ttiplied by 10^6 for precision)...\n      PUSH [tag] 125\t\t\titude (multiplied by 10^\n      DUP2 \t\t\tby 10\n      PUSH [tag] 60\t\t\titude (multiplied by 10^\n      JUMP \t\t\titude (multiplied by 10^\n    tag 125\t\t\titude (multiplied by 10^\n      JUMPDEST \t\t\titude (multiplied by 10^\n      DUP2 \t\t\tEnd L\n      EQ \t\t\t// End Latitude (multiplied by...\n      PUSH [tag] 126\t\t\tudeEnd;   // End Latitude (mul...\n      JUMPI \t\t\tudeEnd;   // End Latitude (mul...\n      PUSH 0\t\t\t)\n      DUP1 \t\t\ti\n      REVERT \t\t\t precision)\\r\n    tag 126\t\t\tudeEnd;   // End Latitude (mul...\n      JUMPDEST \t\t\tudeEnd;   // End Latitude (mul...\n      POP \t\t\ttiplied by 10^6 for precision)...\n      JUMP \t\t\ttiplied by 10^6 for precision)...\n    tag 62\t\t\t56 longitudeEnd;  // End Longi...\n      JUMPDEST \t\t\t56 longitudeEnd;  // End Longi...\n      PUSH 0\t\t\t by 1\n      DUP2 \t\t\tmappin\n      CALLDATALOAD \t\t\t    }\\r\\n\\r\\n    mapping\n      SWAP1 \t\t\tcision)\\r\\n    }\\r\\n\\r\\n    ma...\n      POP \t\t\tcision)\\r\\n    }\\r\\n\\r\\n    ma...\n      PUSH [tag] 128\t\t\t=> Workout[]) private workouts...\n      DUP2 \t\t\tuts;\\r\n      PUSH [tag] 61\t\t\t=> Workout[]) private workouts...\n      JUMP \t\t\t=> Workout[]) private workouts...\n    tag 128\t\t\t=> Workout[]) private workouts...\n      JUMPDEST \t\t\t=> Workout[]) private workouts...\n      SWAP3 \t\t\t56 longitudeEnd;  // End Longi...\n      SWAP2 \t\t\t56 longitudeEnd;  // End Longi...\n      POP \t\t\t56 longitudeEnd;  // End Longi...\n      POP \t\t\t56 longitudeEnd;  // End Longi...\n      JUMP \t\t\t56 longitudeEnd;  // End Longi...\n    tag 9\t\t\tpublic workoutCount;\\r\\n\\r\\n  ...\n      JUMPDEST \t\t\tpublic workoutCount;\\r\\n\\r\\n  ...\n      PUSH 0\t\t\tint256\n      PUSH 20\t\t\t, \n      DUP3 \t\t\tindexed u\n      DUP5 \t\t\t addres\n      SUB \t\t\t     address indexed us\n      SLT \t\t\t\\n        address indexed user...\n      ISZERO \t\t\t, \\r\\n        address indexed ...\n      PUSH [tag] 130\t\t\t, \\r\\n        address indexed ...\n      JUMPI \t\t\t, \\r\\n        address indexed ...\n      PUSH [tag] 131\t\t\t      string workoutType, \\r\\n...\n      PUSH [tag] 57\t\t\t      string workoutType, \\r\\n...\n      JUMP \t\t\t      string workoutType, \\r\\n...\n    tag 131\t\t\t      string workoutType, \\r\\n...\n      JUMPDEST \t\t\t      string workoutType, \\r\\n...\n    tag 130\t\t\t, \\r\\n        address indexed ...\n      JUMPDEST \t\t\t, \\r\\n        address indexed ...\n      PUSH 0\t\t\tu\n      PUSH [tag] 132\t\t\t        uint256 longitudeStart...\n      DUP5 \t\t\tt256 la\n      DUP3 \t\t\t      \n      DUP6 \t\t\tStart, \\r\\n\n      ADD \t\t\ttudeStart, \\r\\n        u\n      PUSH [tag] 62\t\t\t        uint256 longitudeStart...\n      JUMP \t\t\t        uint256 longitudeStart...\n    tag 132\t\t\t        uint256 longitudeStart...\n      JUMPDEST \t\t\t        uint256 longitudeStart...\n      SWAP2 \t\t\teStart, \\r\\n        uint256 lo...\n      POP \t\t\teStart, \\r\\n        uint256 lo...\n      POP \t\t\t  uint256 endTime, \\r\\n       ...\n      SWAP3 \t\t\tpublic workoutCount;\\r\\n\\r\\n  ...\n      SWAP2 \t\t\tpublic workoutCount;\\r\\n\\r\\n  ...\n      POP \t\t\tpublic workoutCount;\\r\\n\\r\\n  ...\n      POP \t\t\tpublic workoutCount;\\r\\n\\r\\n  ...\n      JUMP \t\t\tpublic workoutCount;\\r\\n\\r\\n  ...\n    tag 63\t\t\tt256 longitudeEnd\\r\\n    );\\r\\...\n      JUMPDEST \t\t\tt256 longitudeEnd\\r\\n    );\\r\\...\n      PUSH 0\t\t\tfuncti\n      DUP2 \t\t\tng me\n      MLOAD \t\t\t  string mem\n      SWAP1 \t\t\tt(\\r\\n        string mem\n      POP \t\t\tt(\\r\\n        string mem\n      SWAP2 \t\t\tt256 longitudeEnd\\r\\n    );\\r\\...\n      SWAP1 \t\t\tt256 longitudeEnd\\r\\n    );\\r\\...\n      POP \t\t\tt256 longitudeEnd\\r\\n    );\\r\\...\n      JUMP \t\t\tt256 longitudeEnd\\r\\n    );\\r\\...\n    tag 64\t\t\type, \\r\\n        uint256 _dura...\n      JUMPDEST \t\t\type, \\r\\n        uint256 _dura...\n      PUSH 0\t\t\trt, \\r\\n     \n      DUP3 \t\t\tart, \\r\n      DUP3 \t\t\tude\n      MSTORE \t\t\t_longitudeStart, \\r\\n\n      PUSH 20\t\t\t    \n      DUP3 \t\t\t, \\r\n      ADD \t\t\teEnd, \\r\\n      \n      SWAP1 \t\t\tint256 _latitudeEnd, \\r\\n     ...\n      POP \t\t\tint256 _latitudeEnd, \\r\\n     ...\n      SWAP3 \t\t\type, \\r\\n        uint256 _dura...\n      SWAP2 \t\t\type, \\r\\n        uint256 _dura...\n      POP \t\t\type, \\r\\n        uint256 _dura...\n      POP \t\t\type, \\r\\n        uint256 _dura...\n      JUMP \t\t\type, \\r\\n        uint256 _dura...\n    tag 65\t\t\tongitudeEnd\\r\\n    ) public {\\...\n      JUMPDEST \t\t\tongitudeEnd\\r\\n    ) public {\\...\n      PUSH 0\t\t\t can\n      DUP2 \t\t\t   \n      SWAP1 \t\t\ty\");\\r\\n     \n      POP \t\t\ty\");\\r\\n     \n      PUSH 20\t\t\tDura\n      DUP3 \t\t\t 0,\n      ADD \t\t\ton > 0, \"Durat\n      SWAP1 \t\t\t(_duration > 0, \"Durat\n      POP \t\t\t(_duration > 0, \"Durat\n      SWAP2 \t\t\tongitudeEnd\\r\\n    ) public {\\...\n      SWAP1 \t\t\tongitudeEnd\\r\\n    ) public {\\...\n      POP \t\t\tongitudeEnd\\r\\n    ) public {\\...\n      JUMP \t\t\tongitudeEnd\\r\\n    ) public {\\...\n    tag 66\t\t\treater than zero\");\\r\\n       ...\n      JUMPDEST \t\t\treater than zero\");\\r\\n       ...\n      PUSH 0\t\t\t_startT\n      DUP2 \t\t\tust b\n      SWAP1 \t\t\ttart time must b\n      POP \t\t\ttart time must b\n      SWAP2 \t\t\treater than zero\");\\r\\n       ...\n      SWAP1 \t\t\treater than zero\");\\r\\n       ...\n      POP \t\t\treater than zero\");\\r\\n       ...\n      JUMP \t\t\treater than zero\");\\r\\n       ...\n    tag 67\t\t\t        require(_endTime > _st...\n      JUMPDEST \t\t\t        require(_endTime > _st...\n      PUSH [tag] 138\t\t\time\");\\r\\n\\r\\n        workou\n      DUP2 \t\t\tworko\n      PUSH [tag] 66\t\t\time\");\\r\\n\\r\\n        workou\n      JUMP \t\t\time\");\\r\\n\\r\\n        workou\n    tag 138\t\t\time\");\\r\\n\\r\\n        workou\n      JUMPDEST \t\t\time\");\\r\\n\\r\\n        workou\n      DUP3 \t\t\tart\n      MSTORE \t\t\tthan start time\");\\r\\n\\r\\n    ...\n      POP \t\t\t        require(_endTime > _st...\n      POP \t\t\t        require(_endTime > _st...\n      JUMP \t\t\t        require(_endTime > _st...\n    tag 68\t\t\t      workouts[msg.sender].pus...\n      JUMPDEST \t\t\t      workouts[msg.sender].pus...\n      PUSH [tag] 140\t\t\t     msg.sender, \\r\\n     \n      DUP2 \t\t\t\\n    \n      PUSH [tag] 60\t\t\t     msg.sender, \\r\\n     \n      JUMP \t\t\t     msg.sender, \\r\\n     \n    tag 140\t\t\t     msg.sender, \\r\\n     \n      JUMPDEST \t\t\t     msg.sender, \\r\\n     \n      DUP3 \t\t\t   \n      MSTORE \t\t\tt, \\r\\n            msg.sender,...\n      POP \t\t\t      workouts[msg.sender].pus...\n      POP \t\t\t      workouts[msg.sender].pus...\n      JUMP \t\t\t      workouts[msg.sender].pus...\n    tag 69\t\t\tutType, \\r\\n            _durat...\n      JUMPDEST \t\t\tutType, \\r\\n            _durat...\n      PUSH 0\t\t\ttTime,\n      DUP2 \t\t\t     \n      MLOAD \t\t\te, \\r\\n       \n      SWAP1 \t\t\t   _endTime, \\r\\n       \n      POP \t\t\t   _endTime, \\r\\n       \n      SWAP2 \t\t\tutType, \\r\\n            _durat...\n      SWAP1 \t\t\tutType, \\r\\n            _durat...\n      POP \t\t\tutType, \\r\\n            _durat...\n      JUMP \t\t\tutType, \\r\\n            _durat...\n    tag 70\t\t\teStart, \\r\\n            _longi...\n      JUMPDEST \t\t\teStart, \\r\\n            _longi...\n      PUSH 0\t\t\t       _lon\n      DUP3 \t\t\t\\n\\r\\n   \n      DUP3 \t\t\t ))\n      MSTORE \t\t\t        ));\\r\\n\\r\\n    \n      PUSH 20\t\t\t    \n      DUP3 \t\t\t   \n      ADD \t\t\t\\n            w\n      SWAP1 \t\t\tWorkoutLogged(\\r\\n            ...\n      POP \t\t\tWorkoutLogged(\\r\\n            ...\n      SWAP3 \t\t\teStart, \\r\\n            _longi...\n      SWAP2 \t\t\teStart, \\r\\n            _longi...\n      POP \t\t\teStart, \\r\\n            _longi...\n      POP \t\t\teStart, \\r\\n            _longi...\n      JUMP \t\t\teStart, \\r\\n            _longi...\n    tag 71\t\t\t \\r\\n            msg.sender, \\...\n      JUMPDEST \t\t\t \\r\\n            msg.sender, \\...\n      DUP3 \t\t\t     _\n      DUP2 \t\t\t   \n      DUP4 \t\t\t \\r\\n\n      MCOPY \t\t\tation, \\r\\n            _s\n      PUSH 0\t\t\t\\r\n      DUP4 \t\t\tendTim\n      DUP4 \t\t\t   \n      ADD \t\t\t        _endTime\n      MSTORE \t\t\t \\r\\n            _endTime, \\r\\...\n      POP \t\t\t \\r\\n            msg.sender, \\...\n      POP \t\t\t \\r\\n            msg.sender, \\...\n      POP \t\t\t \\r\\n            msg.sender, \\...\n      JUMP \t\t\t \\r\\n            msg.sender, \\...\n    tag 72\t\t\tlatitudeStart, \\r\\n           ...\n      JUMPDEST \t\t\tlatitudeStart, \\r\\n           ...\n      PUSH 0\t\t\tart, \\r\n      PUSH 1F\t\t\tgi\n      NOT \t\t\t_longit\n      PUSH 1F\t\t\t  \n      DUP4 \t\t\t     \n      ADD \t\t\t, \\r\\n          \n      AND \t\t\teEnd, \\r\\n            _longitu\n      SWAP1 \t\t\t  _latitudeEnd, \\r\\n          ...\n      POP \t\t\t  _latitudeEnd, \\r\\n          ...\n      SWAP2 \t\t\tlatitudeStart, \\r\\n           ...\n      SWAP1 \t\t\tlatitudeStart, \\r\\n           ...\n      POP \t\t\tlatitudeStart, \\r\\n           ...\n      JUMP \t\t\tlatitudeStart, \\r\\n           ...\n    tag 73\t\t\t   );\\r\\n    }\\r\\n\\r\\n    // F...\n      JUMPDEST \t\t\t   );\\r\\n    }\\r\\n\\r\\n    // F...\n      PUSH 0\t\t\tfun\n      PUSH [tag] 146\t\t\tress _user) public view return...\n      DUP3 \t\t\tWorko\n      PUSH [tag] 69\t\t\tress _user) public view return...\n      JUMP \t\t\tress _user) public view return...\n    tag 146\t\t\tress _user) public view return...\n      JUMPDEST \t\t\tress _user) public view return...\n      PUSH [tag] 147\t\t\t       return workouts[_user];...\n      DUP2 \t\t\ton to \n      DUP6 \t\t\tunc\n      PUSH [tag] 70\t\t\t       return workouts[_user];...\n      JUMP \t\t\t       return workouts[_user];...\n    tag 147\t\t\t       return workouts[_user];...\n      JUMPDEST \t\t\t       return workouts[_user];...\n      SWAP4 \t\t\ty) {\\r\\n        return workout...\n      POP \t\t\ty) {\\r\\n        return workout...\n      PUSH [tag] 148\t\t\ttal number of workouts logged ...\n      DUP2 \t\t\ttion g\n      DUP6 \t\t\t fu\n      PUSH 20\t\t\ter\\r\\n\n      DUP7 \t\t\tific \n      ADD \t\t\tspecific user\\r\\n \n      PUSH [tag] 71\t\t\ttal number of workouts logged ...\n      JUMP \t\t\ttal number of workouts logged ...\n    tag 148\t\t\ttal number of workouts logged ...\n      JUMPDEST \t\t\ttal number of workouts logged ...\n      PUSH [tag] 149\t\t\t _user) public view returns (\n      DUP2 \t\t\tturns \n      PUSH [tag] 72\t\t\t _user) public view returns (\n      JUMP \t\t\t _user) public view returns (\n    tag 149\t\t\t _user) public view returns (\n      JUMPDEST \t\t\t _user) public view returns (\n      DUP5 \t\t\tdre\n      ADD \t\t\tt(address _user) public view r...\n      SWAP2 \t\t\toutCount(address _user) public...\n      POP \t\t\toutCount(address _user) public...\n      POP \t\t\ttion getUserWorkouts(address _...\n      SWAP3 \t\t\t   );\\r\\n    }\\r\\n\\r\\n    // F...\n      SWAP2 \t\t\t   );\\r\\n    }\\r\\n\\r\\n    // F...\n      POP \t\t\t   );\\r\\n    }\\r\\n\\r\\n    // F...\n      POP \t\t\t   );\\r\\n    }\\r\\n\\r\\n    // F...\n      JUMP \t\t\t   );\\r\\n    }\\r\\n\\r\\n    // F...\n    tag 74\t\t\t\n      JUMPDEST \t\t\t\n      PUSH 0\t\t\t\n      PUSH 140\t\t\t\n      DUP4 \t\t\t\n      ADD \t\t\t\n      PUSH 0\t\t\t\n      DUP4 \t\t\t\n      ADD \t\t\t\n      MLOAD \t\t\t\n      PUSH [tag] 151\t\t\t\n      PUSH 0\t\t\t\n      DUP7 \t\t\t\n      ADD \t\t\t\n      DUP3 \t\t\t\n      PUSH [tag] 67\t\t\t\n      JUMP \t\t\t\n    tag 151\t\t\t\n      JUMPDEST \t\t\t\n      POP \t\t\t\n      PUSH 20\t\t\t\n      DUP4 \t\t\t\n      ADD \t\t\t\n      MLOAD \t\t\t\n      PUSH [tag] 152\t\t\t\n      PUSH 20\t\t\t\n      DUP7 \t\t\t\n      ADD \t\t\t\n      DUP3 \t\t\t\n      PUSH [tag] 68\t\t\t\n      JUMP \t\t\t\n    tag 152\t\t\t\n      JUMPDEST \t\t\t\n      POP \t\t\t\n      PUSH 40\t\t\t\n      DUP4 \t\t\t\n      ADD \t\t\t\n      MLOAD \t\t\t\n      DUP5 \t\t\t\n      DUP3 \t\t\t\n      SUB \t\t\t\n      PUSH 40\t\t\t\n      DUP7 \t\t\t\n      ADD \t\t\t\n      MSTORE \t\t\t\n      PUSH [tag] 153\t\t\t\n      DUP3 \t\t\t\n      DUP3 \t\t\t\n      PUSH [tag] 73\t\t\t\n      JUMP \t\t\t\n    tag 153\t\t\t\n      JUMPDEST \t\t\t\n      SWAP2 \t\t\t\n      POP \t\t\t\n      POP \t\t\t\n      PUSH 60\t\t\t\n      DUP4 \t\t\t\n      ADD \t\t\t\n      MLOAD \t\t\t\n      PUSH [tag] 154\t\t\t\n      PUSH 60\t\t\t\n      DUP7 \t\t\t\n      ADD \t\t\t\n      DUP3 \t\t\t\n      PUSH [tag] 67\t\t\t\n      JUMP \t\t\t\n    tag 154\t\t\t\n      JUMPDEST \t\t\t\n      POP \t\t\t\n      PUSH 80\t\t\t\n      DUP4 \t\t\t\n      ADD \t\t\t\n      MLOAD \t\t\t\n      PUSH [tag] 155\t\t\t\n      PUSH 80\t\t\t\n      DUP7 \t\t\t\n      ADD \t\t\t\n      DUP3 \t\t\t\n      PUSH [tag] 67\t\t\t\n      JUMP \t\t\t\n    tag 155\t\t\t\n      JUMPDEST \t\t\t\n      POP \t\t\t\n      PUSH A0\t\t\t\n      DUP4 \t\t\t\n      ADD \t\t\t\n      MLOAD \t\t\t\n      PUSH [tag] 156\t\t\t\n      PUSH A0\t\t\t\n      DUP7 \t\t\t\n      ADD \t\t\t\n      DUP3 \t\t\t\n      PUSH [tag] 67\t\t\t\n      JUMP \t\t\t\n    tag 156\t\t\t\n      JUMPDEST \t\t\t\n      POP \t\t\t\n      PUSH C0\t\t\t\n      DUP4 \t\t\t\n      ADD \t\t\t\n      MLOAD \t\t\t\n      PUSH [tag] 157\t\t\t\n      PUSH C0\t\t\t\n      DUP7 \t\t\t\n      ADD \t\t\t\n      DUP3 \t\t\t\n      PUSH [tag] 67\t\t\t\n      JUMP \t\t\t\n    tag 157\t\t\t\n      JUMPDEST \t\t\t\n      POP \t\t\t\n      PUSH E0\t\t\t\n      DUP4 \t\t\t\n      ADD \t\t\t\n      MLOAD \t\t\t\n      PUSH [tag] 158\t\t\t\n      PUSH E0\t\t\t\n      DUP7 \t\t\t\n      ADD \t\t\t\n      DUP3 \t\t\t\n      PUSH [tag] 67\t\t\t\n      JUMP \t\t\t\n    tag 158\t\t\t\n      JUMPDEST \t\t\t\n      POP \t\t\t\n      PUSH 100\t\t\t\n      DUP4 \t\t\t\n      ADD \t\t\t\n      MLOAD \t\t\t\n      PUSH [tag] 159\t\t\t\n      PUSH 100\t\t\t\n      DUP7 \t\t\t\n      ADD \t\t\t\n      DUP3 \t\t\t\n      PUSH [tag] 67\t\t\t\n      JUMP \t\t\t\n    tag 159\t\t\t\n      JUMPDEST \t\t\t\n      POP \t\t\t\n      PUSH 120\t\t\t\n      DUP4 \t\t\t\n      ADD \t\t\t\n      MLOAD \t\t\t\n      PUSH [tag] 160\t\t\t\n      PUSH 120\t\t\t\n      DUP7 \t\t\t\n      ADD \t\t\t\n      DUP3 \t\t\t\n      PUSH [tag] 67\t\t\t\n      JUMP \t\t\t\n    tag 160\t\t\t\n      JUMPDEST \t\t\t\n      POP \t\t\t\n      DUP1 \t\t\t\n      SWAP2 \t\t\t\n      POP \t\t\t\n      POP \t\t\t\n      SWAP3 \t\t\t\n      SWAP2 \t\t\t\n      POP \t\t\t\n      POP \t\t\t\n      JUMP \t\t\t\n    tag 75\t\t\t\n      JUMPDEST \t\t\t\n      PUSH 0\t\t\t\n      PUSH [tag] 162\t\t\t\n      DUP4 \t\t\t\n      DUP4 \t\t\t\n      PUSH [tag] 74\t\t\t\n      JUMP \t\t\t\n    tag 162\t\t\t\n      JUMPDEST \t\t\t\n      SWAP1 \t\t\t\n      POP \t\t\t\n      SWAP3 \t\t\t\n      SWAP2 \t\t\t\n      POP \t\t\t\n      POP \t\t\t\n      JUMP \t\t\t\n    tag 76\t\t\t\n      JUMPDEST \t\t\t\n      PUSH 0\t\t\t\n      PUSH 20\t\t\t\n      DUP3 \t\t\t\n      ADD \t\t\t\n      SWAP1 \t\t\t\n      POP \t\t\t\n      SWAP2 \t\t\t\n      SWAP1 \t\t\t\n      POP \t\t\t\n      JUMP \t\t\t\n    tag 77\t\t\t\n      JUMPDEST \t\t\t\n      PUSH 0\t\t\t\n      PUSH [tag] 165\t\t\t\n      DUP3 \t\t\t\n      PUSH [tag] 63\t\t\t\n      JUMP \t\t\t\n    tag 165\t\t\t\n      JUMPDEST \t\t\t\n      PUSH [tag] 166\t\t\t\n      DUP2 \t\t\t\n      DUP6 \t\t\t\n      PUSH [tag] 64\t\t\t\n      JUMP \t\t\t\n    tag 166\t\t\t\n      JUMPDEST \t\t\t\n      SWAP4 \t\t\t\n      POP \t\t\t\n      DUP4 \t\t\t\n      PUSH 20\t\t\t\n      DUP3 \t\t\t\n      MUL \t\t\t\n      DUP6 \t\t\t\n      ADD \t\t\t\n      PUSH [tag] 167\t\t\t\n      DUP6 \t\t\t\n      PUSH [tag] 65\t\t\t\n      JUMP \t\t\t\n    tag 167\t\t\t\n      JUMPDEST \t\t\t\n      DUP1 \t\t\t\n      PUSH 0\t\t\t\n    tag 168\t\t\t\n      JUMPDEST \t\t\t\n      DUP6 \t\t\t\n      DUP2 \t\t\t\n      LT \t\t\t\n      ISZERO \t\t\t\n      PUSH [tag] 170\t\t\t\n      JUMPI \t\t\t\n      DUP5 \t\t\t\n      DUP5 \t\t\t\n      SUB \t\t\t\n      DUP10 \t\t\t\n      MSTORE \t\t\t\n      DUP2 \t\t\t\n      MLOAD \t\t\t\n      PUSH [tag] 171\t\t\t\n      DUP6 \t\t\t\n      DUP3 \t\t\t\n      PUSH [tag] 75\t\t\t\n      JUMP \t\t\t\n    tag 171\t\t\t\n      JUMPDEST \t\t\t\n      SWAP5 \t\t\t\n      POP \t\t\t\n      PUSH [tag] 172\t\t\t\n      DUP4 \t\t\t\n      PUSH [tag] 76\t\t\t\n      JUMP \t\t\t\n    tag 172\t\t\t\n      JUMPDEST \t\t\t\n      SWAP3 \t\t\t\n      POP \t\t\t\n      PUSH 20\t\t\t\n      DUP11 \t\t\t\n      ADD \t\t\t\n      SWAP10 \t\t\t\n      POP \t\t\t\n      POP \t\t\t\n      PUSH 1\t\t\t\n      DUP2 \t\t\t\n      ADD \t\t\t\n      SWAP1 \t\t\t\n      POP \t\t\t\n      PUSH [tag] 168\t\t\t\n      JUMP \t\t\t\n    tag 170\t\t\t\n      JUMPDEST \t\t\t\n      POP \t\t\t\n      DUP3 \t\t\t\n      SWAP8 \t\t\t\n      POP \t\t\t\n      DUP8 \t\t\t\n      SWAP6 \t\t\t\n      POP \t\t\t\n      POP \t\t\t\n      POP \t\t\t\n      POP \t\t\t\n      POP \t\t\t\n      POP \t\t\t\n      SWAP3 \t\t\t\n      SWAP2 \t\t\t\n      POP \t\t\t\n      POP \t\t\t\n      JUMP \t\t\t\n    tag 12\t\t\t\n      JUMPDEST \t\t\t\n      PUSH 0\t\t\t\n      PUSH 20\t\t\t\n      DUP3 \t\t\t\n      ADD \t\t\t\n      SWAP1 \t\t\t\n      POP \t\t\t\n      DUP2 \t\t\t\n      DUP2 \t\t\t\n      SUB \t\t\t\n      PUSH 0\t\t\t\n      DUP4 \t\t\t\n      ADD \t\t\t\n      MSTORE \t\t\t\n      PUSH [tag] 174\t\t\t\n      DUP2 \t\t\t\n      DUP5 \t\t\t\n      PUSH [tag] 77\t\t\t\n      JUMP \t\t\t\n    tag 174\t\t\t\n      JUMPDEST \t\t\t\n      SWAP1 \t\t\t\n      POP \t\t\t\n      SWAP3 \t\t\t\n      SWAP2 \t\t\t\n      POP \t\t\t\n      POP \t\t\t\n      JUMP \t\t\t\n    tag 78\t\t\t\n      JUMPDEST \t\t\t\n      PUSH [tag] 176\t\t\t\n      DUP2 \t\t\t\n      PUSH [tag] 66\t\t\t\n      JUMP \t\t\t\n    tag 176\t\t\t\n      JUMPDEST \t\t\t\n      DUP3 \t\t\t\n      MSTORE \t\t\t\n      POP \t\t\t\n      POP \t\t\t\n      JUMP \t\t\t\n    tag 16\t\t\t\n      JUMPDEST \t\t\t\n      PUSH 0\t\t\t\n      PUSH 20\t\t\t\n      DUP3 \t\t\t\n      ADD \t\t\t\n      SWAP1 \t\t\t\n      POP \t\t\t\n      PUSH [tag] 178\t\t\t\n      PUSH 0\t\t\t\n      DUP4 \t\t\t\n      ADD \t\t\t\n      DUP5 \t\t\t\n      PUSH [tag] 78\t\t\t\n      JUMP \t\t\t\n    tag 178\t\t\t\n      JUMPDEST \t\t\t\n      SWAP3 \t\t\t\n      SWAP2 \t\t\t\n      POP \t\t\t\n      POP \t\t\t\n      JUMP \t\t\t\n    tag 79\t\t\t\n      JUMPDEST \t\t\t\n      PUSH 0\t\t\t\n      DUP1 \t\t\t\n      REVERT \t\t\t\n    tag 80\t\t\t\n      JUMPDEST \t\t\t\n      PUSH 0\t\t\t\n      DUP1 \t\t\t\n      REVERT \t\t\t\n    tag 81\t\t\t\n      JUMPDEST \t\t\t\n      PUSH 4E487B7100000000000000000000000000000000000000000000000000000000\t\t\t\n      PUSH 0\t\t\t\n      MSTORE \t\t\t\n      PUSH 41\t\t\t\n      PUSH 4\t\t\t\n      MSTORE \t\t\t\n      PUSH 24\t\t\t\n      PUSH 0\t\t\t\n      REVERT \t\t\t\n    tag 82\t\t\t\n      JUMPDEST \t\t\t\n      PUSH [tag] 183\t\t\t\n      DUP3 \t\t\t\n      PUSH [tag] 72\t\t\t\n      JUMP \t\t\t\n    tag 183\t\t\t\n      JUMPDEST \t\t\t\n      DUP2 \t\t\t\n      ADD \t\t\t\n      DUP2 \t\t\t\n      DUP2 \t\t\t\n      LT \t\t\t\n      PUSH FFFFFFFFFFFFFFFF\t\t\t\n      DUP3 \t\t\t\n      GT \t\t\t\n      OR \t\t\t\n      ISZERO \t\t\t\n      PUSH [tag] 184\t\t\t\n      JUMPI \t\t\t\n      PUSH [tag] 185\t\t\t\n      PUSH [tag] 81\t\t\t\n      JUMP \t\t\t\n    tag 185\t\t\t\n      JUMPDEST \t\t\t\n    tag 184\t\t\t\n      JUMPDEST \t\t\t\n      DUP1 \t\t\t\n      PUSH 40\t\t\t\n      MSTORE \t\t\t\n      POP \t\t\t\n      POP \t\t\t\n      POP \t\t\t\n      JUMP \t\t\t\n    tag 83\t\t\t\n      JUMPDEST \t\t\t\n      PUSH 0\t\t\t\n      PUSH [tag] 187\t\t\t\n      PUSH [tag] 56\t\t\t\n      JUMP \t\t\t\n    tag 187\t\t\t\n      JUMPDEST \t\t\t\n      SWAP1 \t\t\t\n      POP \t\t\t\n      PUSH [tag] 188\t\t\t\n      DUP3 \t\t\t\n      DUP3 \t\t\t\n      PUSH [tag] 82\t\t\t\n      JUMP \t\t\t\n    tag 188\t\t\t\n      JUMPDEST \t\t\t\n      SWAP2 \t\t\t\n      SWAP1 \t\t\t\n      POP \t\t\t\n      JUMP \t\t\t\n    tag 84\t\t\t\n      JUMPDEST \t\t\t\n      PUSH 0\t\t\t\n      PUSH FFFFFFFFFFFFFFFF\t\t\t\n      DUP3 \t\t\t\n      GT \t\t\t\n      ISZERO \t\t\t\n      PUSH [tag] 190\t\t\t\n      JUMPI \t\t\t\n      PUSH [tag] 191\t\t\t\n      PUSH [tag] 81\t\t\t\n      JUMP \t\t\t\n    tag 191\t\t\t\n      JUMPDEST \t\t\t\n    tag 190\t\t\t\n      JUMPDEST \t\t\t\n      PUSH [tag] 192\t\t\t\n      DUP3 \t\t\t\n      PUSH [tag] 72\t\t\t\n      JUMP \t\t\t\n    tag 192\t\t\t\n      JUMPDEST \t\t\t\n      SWAP1 \t\t\t\n      POP \t\t\t\n      PUSH 20\t\t\t\n      DUP2 \t\t\t\n      ADD \t\t\t\n      SWAP1 \t\t\t\n      POP \t\t\t\n      SWAP2 \t\t\t\n      SWAP1 \t\t\t\n      POP \t\t\t\n      JUMP \t\t\t\n    tag 85\t\t\t\n      JUMPDEST \t\t\t\n      DUP3 \t\t\t\n      DUP2 \t\t\t\n      DUP4 \t\t\t\n      CALLDATACOPY \t\t\t\n      PUSH 0\t\t\t\n      DUP4 \t\t\t\n      DUP4 \t\t\t\n      ADD \t\t\t\n      MSTORE \t\t\t\n      POP \t\t\t\n      POP \t\t\t\n      POP \t\t\t\n      JUMP \t\t\t\n    tag 86\t\t\t\n      JUMPDEST \t\t\t\n      PUSH 0\t\t\t\n      PUSH [tag] 195\t\t\t\n      PUSH [tag] 196\t\t\t\n      DUP5 \t\t\t\n      PUSH [tag] 84\t\t\t\n      JUMP \t\t\t\n    tag 196\t\t\t\n      JUMPDEST \t\t\t\n      PUSH [tag] 83\t\t\t\n      JUMP \t\t\t\n    tag 195\t\t\t\n      JUMPDEST \t\t\t\n      SWAP1 \t\t\t\n      POP \t\t\t\n      DUP3 \t\t\t\n      DUP2 \t\t\t\n      MSTORE \t\t\t\n      PUSH 20\t\t\t\n      DUP2 \t\t\t\n      ADD \t\t\t\n      DUP5 \t\t\t\n      DUP5 \t\t\t\n      DUP5 \t\t\t\n      ADD \t\t\t\n      GT \t\t\t\n      ISZERO \t\t\t\n      PUSH [tag] 197\t\t\t\n      JUMPI \t\t\t\n      PUSH [tag] 198\t\t\t\n      PUSH [tag] 80\t\t\t\n      JUMP \t\t\t\n    tag 198\t\t\t\n      JUMPDEST \t\t\t\n    tag 197\t\t\t\n      JUMPDEST \t\t\t\n      PUSH [tag] 199\t\t\t\n      DUP5 \t\t\t\n      DUP3 \t\t\t\n      DUP6 \t\t\t\n      PUSH [tag] 85\t\t\t\n      JUMP \t\t\t\n    tag 199\t\t\t\n      JUMPDEST \t\t\t\n      POP \t\t\t\n      SWAP4 \t\t\t\n      SWAP3 \t\t\t\n      POP \t\t\t\n      POP \t\t\t\n      POP \t\t\t\n      JUMP \t\t\t\n    tag 87\t\t\t\n      JUMPDEST \t\t\t\n      PUSH 0\t\t\t\n      DUP3 \t\t\t\n      PUSH 1F\t\t\t\n      DUP4 \t\t\t\n      ADD \t\t\t\n      SLT \t\t\t\n      PUSH [tag] 201\t\t\t\n      JUMPI \t\t\t\n      PUSH [tag] 202\t\t\t\n      PUSH [tag] 79\t\t\t\n      JUMP \t\t\t\n    tag 202\t\t\t\n      JUMPDEST \t\t\t\n    tag 201\t\t\t\n      JUMPDEST \t\t\t\n      DUP2 \t\t\t\n      CALLDATALOAD \t\t\t\n      PUSH [tag] 203\t\t\t\n      DUP5 \t\t\t\n      DUP3 \t\t\t\n      PUSH 20\t\t\t\n      DUP7 \t\t\t\n      ADD \t\t\t\n      PUSH [tag] 86\t\t\t\n      JUMP \t\t\t\n    tag 203\t\t\t\n      JUMPDEST \t\t\t\n      SWAP2 \t\t\t\n      POP \t\t\t\n      POP \t\t\t\n      SWAP3 \t\t\t\n      SWAP2 \t\t\t\n      POP \t\t\t\n      POP \t\t\t\n      JUMP \t\t\t\n    tag 88\t\t\t\n      JUMPDEST \t\t\t\n      PUSH [tag] 205\t\t\t\n      DUP2 \t\t\t\n      PUSH [tag] 66\t\t\t\n      JUMP \t\t\t\n    tag 205\t\t\t\n      JUMPDEST \t\t\t\n      DUP2 \t\t\t\n      EQ \t\t\t\n      PUSH [tag] 206\t\t\t\n      JUMPI \t\t\t\n      PUSH 0\t\t\t\n      DUP1 \t\t\t\n      REVERT \t\t\t\n    tag 206\t\t\t\n      JUMPDEST \t\t\t\n      POP \t\t\t\n      JUMP \t\t\t\n    tag 89\t\t\t\n      JUMPDEST \t\t\t\n      PUSH 0\t\t\t\n      DUP2 \t\t\t\n      CALLDATALOAD \t\t\t\n      SWAP1 \t\t\t\n      POP \t\t\t\n      PUSH [tag] 208\t\t\t\n      DUP2 \t\t\t\n      PUSH [tag] 88\t\t\t\n      JUMP \t\t\t\n    tag 208\t\t\t\n      JUMPDEST \t\t\t\n      SWAP3 \t\t\t\n      SWAP2 \t\t\t\n      POP \t\t\t\n      POP \t\t\t\n      JUMP \t\t\t\n    tag 23\t\t\t\n      JUMPDEST \t\t\t\n      PUSH 0\t\t\t\n      DUP1 \t\t\t\n      PUSH 0\t\t\t\n      DUP1 \t\t\t\n      PUSH 0\t\t\t\n      DUP1 \t\t\t\n      PUSH 0\t\t\t\n      DUP1 \t\t\t\n      PUSH 100\t\t\t\n      DUP10 \t\t\t\n      DUP12 \t\t\t\n      SUB \t\t\t\n      SLT \t\t\t\n      ISZERO \t\t\t\n      PUSH [tag] 210\t\t\t\n      JUMPI \t\t\t\n      PUSH [tag] 211\t\t\t\n      PUSH [tag] 57\t\t\t\n      JUMP \t\t\t\n    tag 211\t\t\t\n      JUMPDEST \t\t\t\n    tag 210\t\t\t\n      JUMPDEST \t\t\t\n      PUSH 0\t\t\t\n      DUP10 \t\t\t\n      ADD \t\t\t\n      CALLDATALOAD \t\t\t\n      PUSH FFFFFFFFFFFFFFFF\t\t\t\n      DUP2 \t\t\t\n      GT \t\t\t\n      ISZERO \t\t\t\n      PUSH [tag] 212\t\t\t\n      JUMPI \t\t\t\n      PUSH [tag] 213\t\t\t\n      PUSH [tag] 58\t\t\t\n      JUMP \t\t\t\n    tag 213\t\t\t\n      JUMPDEST \t\t\t\n    tag 212\t\t\t\n      JUMPDEST \t\t\t\n      PUSH [tag] 214\t\t\t\n      DUP12 \t\t\t\n      DUP3 \t\t\t\n      DUP13 \t\t\t\n      ADD \t\t\t\n      PUSH [tag] 87\t\t\t\n      JUMP \t\t\t\n    tag 214\t\t\t\n      JUMPDEST \t\t\t\n      SWAP9 \t\t\t\n      POP \t\t\t\n      POP \t\t\t\n      PUSH 20\t\t\t\n      PUSH [tag] 215\t\t\t\n      DUP12 \t\t\t\n      DUP3 \t\t\t\n      DUP13 \t\t\t\n      ADD \t\t\t\n      PUSH [tag] 89\t\t\t\n      JUMP \t\t\t\n    tag 215\t\t\t\n      JUMPDEST \t\t\t\n      SWAP8 \t\t\t\n      POP \t\t\t\n      POP \t\t\t\n      PUSH 40\t\t\t\n      PUSH [tag] 216\t\t\t\n      DUP12 \t\t\t\n      DUP3 \t\t\t\n      DUP13 \t\t\t\n      ADD \t\t\t\n      PUSH [tag] 89\t\t\t\n      JUMP \t\t\t\n    tag 216\t\t\t\n      JUMPDEST \t\t\t\n      SWAP7 \t\t\t\n      POP \t\t\t\n      POP \t\t\t\n      PUSH 60\t\t\t\n      PUSH [tag] 217\t\t\t\n      DUP12 \t\t\t\n      DUP3 \t\t\t\n      DUP13 \t\t\t\n      ADD \t\t\t\n      PUSH [tag] 89\t\t\t\n      JUMP \t\t\t\n    tag 217\t\t\t\n      JUMPDEST \t\t\t\n      SWAP6 \t\t\t\n      POP \t\t\t\n      POP \t\t\t\n      PUSH 80\t\t\t\n      PUSH [tag] 218\t\t\t\n      DUP12 \t\t\t\n      DUP3 \t\t\t\n      DUP13 \t\t\t\n      ADD \t\t\t\n      PUSH [tag] 89\t\t\t\n      JUMP \t\t\t\n    tag 218\t\t\t\n      JUMPDEST \t\t\t\n      SWAP5 \t\t\t\n      POP \t\t\t\n      POP \t\t\t\n      PUSH A0\t\t\t\n      PUSH [tag] 219\t\t\t\n      DUP12 \t\t\t\n      DUP3 \t\t\t\n      DUP13 \t\t\t\n      ADD \t\t\t\n      PUSH [tag] 89\t\t\t\n      JUMP \t\t\t\n    tag 219\t\t\t\n      JUMPDEST \t\t\t\n      SWAP4 \t\t\t\n      POP \t\t\t\n      POP \t\t\t\n      PUSH C0\t\t\t\n      PUSH [tag] 220\t\t\t\n      DUP12 \t\t\t\n      DUP3 \t\t\t\n      DUP13 \t\t\t\n      ADD \t\t\t\n      PUSH [tag] 89\t\t\t\n      JUMP \t\t\t\n    tag 220\t\t\t\n      JUMPDEST \t\t\t\n      SWAP3 \t\t\t\n      POP \t\t\t\n      POP \t\t\t\n      PUSH E0\t\t\t\n      PUSH [tag] 221\t\t\t\n      DUP12 \t\t\t\n      DUP3 \t\t\t\n      DUP13 \t\t\t\n      ADD \t\t\t\n      PUSH [tag] 89\t\t\t\n      JUMP \t\t\t\n    tag 221\t\t\t\n      JUMPDEST \t\t\t\n      SWAP2 \t\t\t\n      POP \t\t\t\n      POP \t\t\t\n      SWAP3 \t\t\t\n      SWAP6 \t\t\t\n      SWAP9 \t\t\t\n      POP \t\t\t\n      SWAP3 \t\t\t\n      SWAP6 \t\t\t\n      SWAP9 \t\t\t\n      SWAP1 \t\t\t\n      SWAP4 \t\t\t\n      SWAP7 \t\t\t\n      POP \t\t\t\n      JUMP \t\t\t\n    tag 90\t\t\t\n      JUMPDEST \t\t\t\n      PUSH 4E487B7100000000000000000000000000000000000000000000000000000000\t\t\t\n      PUSH 0\t\t\t\n      MSTORE \t\t\t\n      PUSH 22\t\t\t\n      PUSH 4\t\t\t\n      MSTORE \t\t\t\n      PUSH 24\t\t\t\n      PUSH 0\t\t\t\n      REVERT \t\t\t\n    tag 30\t\t\t\n      JUMPDEST \t\t\t\n      PUSH 0\t\t\t\n      PUSH 2\t\t\t\n      DUP3 \t\t\t\n      DIV \t\t\t\n      SWAP1 \t\t\t\n      POP \t\t\t\n      PUSH 1\t\t\t\n      DUP3 \t\t\t\n      AND \t\t\t\n      DUP1 \t\t\t\n      PUSH [tag] 224\t\t\t\n      JUMPI \t\t\t\n      PUSH 7F\t\t\t\n      DUP3 \t\t\t\n      AND \t\t\t\n      SWAP2 \t\t\t\n      POP \t\t\t\n    tag 224\t\t\t\n      JUMPDEST \t\t\t\n      PUSH 20\t\t\t\n      DUP3 \t\t\t\n      LT \t\t\t\n      DUP2 \t\t\t\n      SUB \t\t\t\n      PUSH [tag] 225\t\t\t\n      JUMPI \t\t\t\n      PUSH [tag] 226\t\t\t\n      PUSH [tag] 90\t\t\t\n      JUMP \t\t\t\n    tag 226\t\t\t\n      JUMPDEST \t\t\t\n    tag 225\t\t\t\n      JUMPDEST \t\t\t\n      POP \t\t\t\n      SWAP2 \t\t\t\n      SWAP1 \t\t\t\n      POP \t\t\t\n      JUMP \t\t\t\n    tag 91\t\t\t\n      JUMPDEST \t\t\t\n      PUSH 0\t\t\t\n      DUP3 \t\t\t\n      DUP3 \t\t\t\n      MSTORE \t\t\t\n      PUSH 20\t\t\t\n      DUP3 \t\t\t\n      ADD \t\t\t\n      SWAP1 \t\t\t\n      POP \t\t\t\n      SWAP3 \t\t\t\n      SWAP2 \t\t\t\n      POP \t\t\t\n      POP \t\t\t\n      JUMP \t\t\t\n    tag 92\t\t\t\n      JUMPDEST \t\t\t\n      PUSH 576F726B6F757420747970652063616E6E6F7420626520656D70747900000000\t\t\t\n      PUSH 0\t\t\t\n      DUP3 \t\t\t\n      ADD \t\t\t\n      MSTORE \t\t\t\n      POP \t\t\t\n      JUMP \t\t\t\n    tag 93\t\t\t\n      JUMPDEST \t\t\t\n      PUSH 0\t\t\t\n      PUSH [tag] 230\t\t\t\n      PUSH 1C\t\t\t\n      DUP4 \t\t\t\n      PUSH [tag] 91\t\t\t\n      JUMP \t\t\t\n    tag 230\t\t\t\n      JUMPDEST \t\t\t\n      SWAP2 \t\t\t\n      POP \t\t\t\n      PUSH [tag] 231\t\t\t\n      DUP3 \t\t\t\n      PUSH [tag] 92\t\t\t\n      JUMP \t\t\t\n    tag 231\t\t\t\n      JUMPDEST \t\t\t\n      PUSH 20\t\t\t\n      DUP3 \t\t\t\n      ADD \t\t\t\n      SWAP1 \t\t\t\n      POP \t\t\t\n      SWAP2 \t\t\t\n      SWAP1 \t\t\t\n      POP \t\t\t\n      JUMP \t\t\t\n    tag 39\t\t\t\n      JUMPDEST \t\t\t\n      PUSH 0\t\t\t\n      PUSH 20\t\t\t\n      DUP3 \t\t\t\n      ADD \t\t\t\n      SWAP1 \t\t\t\n      POP \t\t\t\n      DUP2 \t\t\t\n      DUP2 \t\t\t\n      SUB \t\t\t\n      PUSH 0\t\t\t\n      DUP4 \t\t\t\n      ADD \t\t\t\n      MSTORE \t\t\t\n      PUSH [tag] 233\t\t\t\n      DUP2 \t\t\t\n      PUSH [tag] 93\t\t\t\n      JUMP \t\t\t\n    tag 233\t\t\t\n      JUMPDEST \t\t\t\n      SWAP1 \t\t\t\n      POP \t\t\t\n      SWAP2 \t\t\t\n      SWAP1 \t\t\t\n      POP \t\t\t\n      JUMP \t\t\t\n    tag 94\t\t\t\n      JUMPDEST \t\t\t\n      PUSH 4475726174696F6E206D7573742062652067726561746572207468616E207A65\t\t\t\n      PUSH 0\t\t\t\n      DUP3 \t\t\t\n      ADD \t\t\t\n      MSTORE \t\t\t\n      PUSH 726F000000000000000000000000000000000000000000000000000000000000\t\t\t\n      PUSH 20\t\t\t\n      DUP3 \t\t\t\n      ADD \t\t\t\n      MSTORE \t\t\t\n      POP \t\t\t\n      JUMP \t\t\t\n    tag 95\t\t\t\n      JUMPDEST \t\t\t\n      PUSH 0\t\t\t\n      PUSH [tag] 236\t\t\t\n      PUSH 22\t\t\t\n      DUP4 \t\t\t\n      PUSH [tag] 91\t\t\t\n      JUMP \t\t\t\n    tag 236\t\t\t\n      JUMPDEST \t\t\t\n      SWAP2 \t\t\t\n      POP \t\t\t\n      PUSH [tag] 237\t\t\t\n      DUP3 \t\t\t\n      PUSH [tag] 94\t\t\t\n      JUMP \t\t\t\n    tag 237\t\t\t\n      JUMPDEST \t\t\t\n      PUSH 40\t\t\t\n      DUP3 \t\t\t\n      ADD \t\t\t\n      SWAP1 \t\t\t\n      POP \t\t\t\n      SWAP2 \t\t\t\n      SWAP1 \t\t\t\n      POP \t\t\t\n      JUMP \t\t\t\n    tag 42\t\t\t\n      JUMPDEST \t\t\t\n      PUSH 0\t\t\t\n      PUSH 20\t\t\t\n      DUP3 \t\t\t\n      ADD \t\t\t\n      SWAP1 \t\t\t\n      POP \t\t\t\n      DUP2 \t\t\t\n      DUP2 \t\t\t\n      SUB \t\t\t\n      PUSH 0\t\t\t\n      DUP4 \t\t\t\n      ADD \t\t\t\n      MSTORE \t\t\t\n      PUSH [tag] 239\t\t\t\n      DUP2 \t\t\t\n      PUSH [tag] 95\t\t\t\n      JUMP \t\t\t\n    tag 239\t\t\t\n      JUMPDEST \t\t\t\n      SWAP1 \t\t\t\n      POP \t\t\t\n      SWAP2 \t\t\t\n      SWAP1 \t\t\t\n      POP \t\t\t\n      JUMP \t\t\t\n    tag 96\t\t\t\n      JUMPDEST \t\t\t\n      PUSH 53746172742074696D65206D7573742062652076616C69640000000000000000\t\t\t\n      PUSH 0\t\t\t\n      DUP3 \t\t\t\n      ADD \t\t\t\n      MSTORE \t\t\t\n      POP \t\t\t\n      JUMP \t\t\t\n    tag 97\t\t\t\n      JUMPDEST \t\t\t\n      PUSH 0\t\t\t\n      PUSH [tag] 242\t\t\t\n      PUSH 18\t\t\t\n      DUP4 \t\t\t\n      PUSH [tag] 91\t\t\t\n      JUMP \t\t\t\n    tag 242\t\t\t\n      JUMPDEST \t\t\t\n      SWAP2 \t\t\t\n      POP \t\t\t\n      PUSH [tag] 243\t\t\t\n      DUP3 \t\t\t\n      PUSH [tag] 96\t\t\t\n      JUMP \t\t\t\n    tag 243\t\t\t\n      JUMPDEST \t\t\t\n      PUSH 20\t\t\t\n      DUP3 \t\t\t\n      ADD \t\t\t\n      SWAP1 \t\t\t\n      POP \t\t\t\n      SWAP2 \t\t\t\n      SWAP1 \t\t\t\n      POP \t\t\t\n      JUMP \t\t\t\n    tag 45\t\t\t\n      JUMPDEST \t\t\t\n      PUSH 0\t\t\t\n      PUSH 20\t\t\t\n      DUP3 \t\t\t\n      ADD \t\t\t\n      SWAP1 \t\t\t\n      POP \t\t\t\n      DUP2 \t\t\t\n      DUP2 \t\t\t\n      SUB \t\t\t\n      PUSH 0\t\t\t\n      DUP4 \t\t\t\n      ADD \t\t\t\n      MSTORE \t\t\t\n      PUSH [tag] 245\t\t\t\n      DUP2 \t\t\t\n      PUSH [tag] 97\t\t\t\n      JUMP \t\t\t\n    tag 245\t\t\t\n      JUMPDEST \t\t\t\n      SWAP1 \t\t\t\n      POP \t\t\t\n      SWAP2 \t\t\t\n      SWAP1 \t\t\t\n      POP \t\t\t\n      JUMP \t\t\t\n    tag 98\t\t\t\n      JUMPDEST \t\t\t\n      PUSH 456E642074696D65206D7573742062652067726561746572207468616E207374\t\t\t\n      PUSH 0\t\t\t\n      DUP3 \t\t\t\n      ADD \t\t\t\n      MSTORE \t\t\t\n      PUSH 6172742074696D65000000000000000000000000000000000000000000000000\t\t\t\n      PUSH 20\t\t\t\n      DUP3 \t\t\t\n      ADD \t\t\t\n      MSTORE \t\t\t\n      POP \t\t\t\n      JUMP \t\t\t\n    tag 99\t\t\t\n      JUMPDEST \t\t\t\n      PUSH 0\t\t\t\n      PUSH [tag] 248\t\t\t\n      PUSH 28\t\t\t\n      DUP4 \t\t\t\n      PUSH [tag] 91\t\t\t\n      JUMP \t\t\t\n    tag 248\t\t\t\n      JUMPDEST \t\t\t\n      SWAP2 \t\t\t\n      POP \t\t\t\n      PUSH [tag] 249\t\t\t\n      DUP3 \t\t\t\n      PUSH [tag] 98\t\t\t\n      JUMP \t\t\t\n    tag 249\t\t\t\n      JUMPDEST \t\t\t\n      PUSH 40\t\t\t\n      DUP3 \t\t\t\n      ADD \t\t\t\n      SWAP1 \t\t\t\n      POP \t\t\t\n      SWAP2 \t\t\t\n      SWAP1 \t\t\t\n      POP \t\t\t\n      JUMP \t\t\t\n    tag 48\t\t\t\n      JUMPDEST \t\t\t\n      PUSH 0\t\t\t\n      PUSH 20\t\t\t\n      DUP3 \t\t\t\n      ADD \t\t\t\n      SWAP1 \t\t\t\n      POP \t\t\t\n      DUP2 \t\t\t\n      DUP2 \t\t\t\n      SUB \t\t\t\n      PUSH 0\t\t\t\n      DUP4 \t\t\t\n      ADD \t\t\t\n      MSTORE \t\t\t\n      PUSH [tag] 251\t\t\t\n      DUP2 \t\t\t\n      PUSH [tag] 99\t\t\t\n      JUMP \t\t\t\n    tag 251\t\t\t\n      JUMPDEST \t\t\t\n      SWAP1 \t\t\t\n      POP \t\t\t\n      SWAP2 \t\t\t\n      SWAP1 \t\t\t\n      POP \t\t\t\n      JUMP \t\t\t\n    tag 100\t\t\t\n      JUMPDEST \t\t\t\n      PUSH 4E487B7100000000000000000000000000000000000000000000000000000000\t\t\t\n      PUSH 0\t\t\t\n      MSTORE \t\t\t\n      PUSH 11\t\t\t\n      PUSH 4\t\t\t\n      MSTORE \t\t\t\n      PUSH 24\t\t\t\n      PUSH 0\t\t\t\n      REVERT \t\t\t\n    tag 50\t\t\t\n      JUMPDEST \t\t\t\n      PUSH 0\t\t\t\n      PUSH [tag] 254\t\t\t\n      DUP3 \t\t\t\n      PUSH [tag] 66\t\t\t\n      JUMP \t\t\t\n    tag 254\t\t\t\n      JUMPDEST \t\t\t\n      SWAP2 \t\t\t\n      POP \t\t\t\n      PUSH FFFFFFFFFFFFFFFFFFFFFFFFFFFFFFFFFFFFFFFFFFFFFFFFFFFFFFFFFFFFFFFF\t\t\t\n      DUP3 \t\t\t\n      SUB \t\t\t\n      PUSH [tag] 255\t\t\t\n      JUMPI \t\t\t\n      PUSH [tag] 256\t\t\t\n      PUSH [tag] 100\t\t\t\n      JUMP \t\t\t\n    tag 256\t\t\t\n      JUMPDEST \t\t\t\n    tag 255\t\t\t\n      JUMPDEST \t\t\t\n      PUSH 1\t\t\t\n      DUP3 \t\t\t\n      ADD \t\t\t\n      SWAP1 \t\t\t\n      POP \t\t\t\n      SWAP2 \t\t\t\n      SWAP1 \t\t\t\n      POP \t\t\t\n      JUMP \t\t\t\n    tag 101\t\t\t\n      JUMPDEST \t\t\t\n      PUSH 0\t\t\t\n      DUP2 \t\t\t\n      SWAP1 \t\t\t\n      POP \t\t\t\n      DUP2 \t\t\t\n      PUSH 0\t\t\t\n      MSTORE \t\t\t\n      PUSH 20\t\t\t\n      PUSH 0\t\t\t\n      KECCAK256 \t\t\t\n      SWAP1 \t\t\t\n      POP \t\t\t\n      SWAP2 \t\t\t\n      SWAP1 \t\t\t\n      POP \t\t\t\n      JUMP \t\t\t\n    tag 102\t\t\t\n      JUMPDEST \t\t\t\n      PUSH 0\t\t\t\n      PUSH 20\t\t\t\n      PUSH 1F\t\t\t\n      DUP4 \t\t\t\n      ADD \t\t\t\n      DIV \t\t\t\n      SWAP1 \t\t\t\n      POP \t\t\t\n      SWAP2 \t\t\t\n      SWAP1 \t\t\t\n      POP \t\t\t\n      JUMP \t\t\t\n    tag 103\t\t\t\n      JUMPDEST \t\t\t\n      PUSH 0\t\t\t\n      DUP3 \t\t\t\n      DUP3 \t\t\t\n      SHL \t\t\t\n      SWAP1 \t\t\t\n      POP \t\t\t\n      SWAP3 \t\t\t\n      SWAP2 \t\t\t\n      POP \t\t\t\n      POP \t\t\t\n      JUMP \t\t\t\n    tag 104\t\t\t\n      JUMPDEST \t\t\t\n      PUSH 0\t\t\t\n      PUSH 8\t\t\t\n      DUP4 \t\t\t\n      MUL \t\t\t\n      PUSH [tag] 261\t\t\t\n      PUSH FFFFFFFFFFFFFFFFFFFFFFFFFFFFFFFFFFFFFFFFFFFFFFFFFFFFFFFFFFFFFFFF\t\t\t\n      DUP3 \t\t\t\n      PUSH [tag] 103\t\t\t\n      JUMP \t\t\t\n    tag 261\t\t\t\n      JUMPDEST \t\t\t\n      PUSH [tag] 262\t\t\t\n      DUP7 \t\t\t\n      DUP4 \t\t\t\n      PUSH [tag] 103\t\t\t\n      JUMP \t\t\t\n    tag 262\t\t\t\n      JUMPDEST \t\t\t\n      SWAP6 \t\t\t\n      POP \t\t\t\n      DUP1 \t\t\t\n      NOT \t\t\t\n      DUP5 \t\t\t\n      AND \t\t\t\n      SWAP4 \t\t\t\n      POP \t\t\t\n      DUP1 \t\t\t\n      DUP7 \t\t\t\n      AND \t\t\t\n      DUP5 \t\t\t\n      OR \t\t\t\n      SWAP3 \t\t\t\n      POP \t\t\t\n      POP \t\t\t\n      POP \t\t\t\n      SWAP4 \t\t\t\n      SWAP3 \t\t\t\n      POP \t\t\t\n      POP \t\t\t\n      POP \t\t\t\n      JUMP \t\t\t\n    tag 105\t\t\t\n      JUMPDEST \t\t\t\n      PUSH 0\t\t\t\n      DUP2 \t\t\t\n      SWAP1 \t\t\t\n      POP \t\t\t\n      SWAP2 \t\t\t\n      SWAP1 \t\t\t\n      POP \t\t\t\n      JUMP \t\t\t\n    tag 106\t\t\t\n      JUMPDEST \t\t\t\n      PUSH 0\t\t\t\n      PUSH [tag] 265\t\t\t\n      PUSH [tag] 266\t\t\t\n      PUSH [tag] 267\t\t\t\n      DUP5 \t\t\t\n      PUSH [tag] 66\t\t\t\n      JUMP \t\t\t\n    tag 267\t\t\t\n      JUMPDEST \t\t\t\n      PUSH [tag] 105\t\t\t\n      JUMP \t\t\t\n    tag 266\t\t\t\n      JUMPDEST \t\t\t\n      PUSH [tag] 66\t\t\t\n      JUMP \t\t\t\n    tag 265\t\t\t\n      JUMPDEST \t\t\t\n      SWAP1 \t\t\t\n      POP \t\t\t\n      SWAP2 \t\t\t\n      SWAP1 \t\t\t\n      POP \t\t\t\n      JUMP \t\t\t\n    tag 107\t\t\t\n      JUMPDEST \t\t\t\n      PUSH 0\t\t\t\n      DUP2 \t\t\t\n      SWAP1 \t\t\t\n      POP \t\t\t\n      SWAP2 \t\t\t\n      SWAP1 \t\t\t\n      POP \t\t\t\n      JUMP \t\t\t\n    tag 108\t\t\t\n      JUMPDEST \t\t\t\n      PUSH [tag] 270\t\t\t\n      DUP4 \t\t\t\n      PUSH [tag] 106\t\t\t\n      JUMP \t\t\t\n    tag 270\t\t\t\n      JUMPDEST \t\t\t\n      PUSH [tag] 271\t\t\t\n      PUSH [tag] 272\t\t\t\n      DUP3 \t\t\t\n      PUSH [tag] 107\t\t\t\n      JUMP \t\t\t\n    tag 272\t\t\t\n      JUMPDEST \t\t\t\n      DUP5 \t\t\t\n      DUP5 \t\t\t\n      SLOAD \t\t\t\n      PUSH [tag] 104\t\t\t\n      JUMP \t\t\t\n    tag 271\t\t\t\n      JUMPDEST \t\t\t\n      DUP3 \t\t\t\n      SSTORE \t\t\t\n      POP \t\t\t\n      POP \t\t\t\n      POP \t\t\t\n      POP \t\t\t\n      JUMP \t\t\t\n    tag 109\t\t\t\n      JUMPDEST \t\t\t\n      PUSH 0\t\t\t\n      SWAP1 \t\t\t\n      JUMP \t\t\t\n    tag 110\t\t\t\n      JUMPDEST \t\t\t\n      PUSH [tag] 275\t\t\t\n      PUSH [tag] 109\t\t\t\n      JUMP \t\t\t\n    tag 275\t\t\t\n      JUMPDEST \t\t\t\n      PUSH [tag] 276\t\t\t\n      DUP2 \t\t\t\n      DUP5 \t\t\t\n      DUP5 \t\t\t\n      PUSH [tag] 108\t\t\t\n      JUMP \t\t\t\n    tag 276\t\t\t\n      JUMPDEST \t\t\t\n      POP \t\t\t\n      POP \t\t\t\n      POP \t\t\t\n      JUMP \t\t\t\n    tag 111\t\t\t\n      JUMPDEST \t\t\t\n    tag 278\t\t\t\n      JUMPDEST \t\t\t\n      DUP2 \t\t\t\n      DUP2 \t\t\t\n      LT \t\t\t\n      ISZERO \t\t\t\n      PUSH [tag] 280\t\t\t\n      JUMPI \t\t\t\n      PUSH [tag] 281\t\t\t\n      PUSH 0\t\t\t\n      DUP3 \t\t\t\n      PUSH [tag] 110\t\t\t\n      JUMP \t\t\t\n    tag 281\t\t\t\n      JUMPDEST \t\t\t\n      PUSH 1\t\t\t\n      DUP2 \t\t\t\n      ADD \t\t\t\n      SWAP1 \t\t\t\n      POP \t\t\t\n      PUSH [tag] 278\t\t\t\n      JUMP \t\t\t\n    tag 280\t\t\t\n      JUMPDEST \t\t\t\n      POP \t\t\t\n      POP \t\t\t\n      JUMP \t\t\t\n    tag 112\t\t\t\n      JUMPDEST \t\t\t\n      PUSH 1F\t\t\t\n      DUP3 \t\t\t\n      GT \t\t\t\n      ISZERO \t\t\t\n      PUSH [tag] 283\t\t\t\n      JUMPI \t\t\t\n      PUSH [tag] 284\t\t\t\n      DUP2 \t\t\t\n      PUSH [tag] 101\t\t\t\n      JUMP \t\t\t\n    tag 284\t\t\t\n      JUMPDEST \t\t\t\n      PUSH [tag] 285\t\t\t\n      DUP5 \t\t\t\n      PUSH [tag] 102\t\t\t\n      JUMP \t\t\t\n    tag 285\t\t\t\n      JUMPDEST \t\t\t\n      DUP2 \t\t\t\n      ADD \t\t\t\n      PUSH 20\t\t\t\n      DUP6 \t\t\t\n      LT \t\t\t\n      ISZERO \t\t\t\n      PUSH [tag] 286\t\t\t\n      JUMPI \t\t\t\n      DUP2 \t\t\t\n      SWAP1 \t\t\t\n      POP \t\t\t\n    tag 286\t\t\t\n      JUMPDEST \t\t\t\n      PUSH [tag] 287\t\t\t\n      PUSH [tag] 288\t\t\t\n      DUP6 \t\t\t\n      PUSH [tag] 102\t\t\t\n      JUMP \t\t\t\n    tag 288\t\t\t\n      JUMPDEST \t\t\t\n      DUP4 \t\t\t\n      ADD \t\t\t\n      DUP3 \t\t\t\n      PUSH [tag] 111\t\t\t\n      JUMP \t\t\t\n    tag 287\t\t\t\n      JUMPDEST \t\t\t\n      POP \t\t\t\n      POP \t\t\t\n    tag 283\t\t\t\n      JUMPDEST \t\t\t\n      POP \t\t\t\n      POP \t\t\t\n      POP \t\t\t\n      JUMP \t\t\t\n    tag 113\t\t\t\n      JUMPDEST \t\t\t\n      PUSH 0\t\t\t\n      DUP3 \t\t\t\n      DUP3 \t\t\t\n      SHR \t\t\t\n      SWAP1 \t\t\t\n      POP \t\t\t\n      SWAP3 \t\t\t\n      SWAP2 \t\t\t\n      POP \t\t\t\n      POP \t\t\t\n      JUMP \t\t\t\n    tag 114\t\t\t\n      JUMPDEST \t\t\t\n      PUSH 0\t\t\t\n      PUSH [tag] 291\t\t\t\n      PUSH 0\t\t\t\n      NOT \t\t\t\n      DUP5 \t\t\t\n      PUSH 8\t\t\t\n      MUL \t\t\t\n      PUSH [tag] 113\t\t\t\n      JUMP \t\t\t\n    tag 291\t\t\t\n      JUMPDEST \t\t\t\n      NOT \t\t\t\n      DUP1 \t\t\t\n      DUP4 \t\t\t\n      AND \t\t\t\n      SWAP2 \t\t\t\n      POP \t\t\t\n      POP \t\t\t\n      SWAP3 \t\t\t\n      SWAP2 \t\t\t\n      POP \t\t\t\n      POP \t\t\t\n      JUMP \t\t\t\n    tag 115\t\t\t\n      JUMPDEST \t\t\t\n      PUSH 0\t\t\t\n      PUSH [tag] 293\t\t\t\n      DUP4 \t\t\t\n      DUP4 \t\t\t\n      PUSH [tag] 114\t\t\t\n      JUMP \t\t\t\n    tag 293\t\t\t\n      JUMPDEST \t\t\t\n      SWAP2 \t\t\t\n      POP \t\t\t\n      DUP3 \t\t\t\n      PUSH 2\t\t\t\n      MUL \t\t\t\n      DUP3 \t\t\t\n      OR \t\t\t\n      SWAP1 \t\t\t\n      POP \t\t\t\n      SWAP3 \t\t\t\n      SWAP2 \t\t\t\n      POP \t\t\t\n      POP \t\t\t\n      JUMP \t\t\t\n    tag 53\t\t\t\n      JUMPDEST \t\t\t\n      PUSH [tag] 295\t\t\t\n      DUP3 \t\t\t\n      PUSH [tag] 69\t\t\t\n      JUMP \t\t\t\n    tag 295\t\t\t\n      JUMPDEST \t\t\t\n      PUSH FFFFFFFFFFFFFFFF\t\t\t\n      DUP2 \t\t\t\n      GT \t\t\t\n      ISZERO \t\t\t\n      PUSH [tag] 296\t\t\t\n      JUMPI \t\t\t\n      PUSH [tag] 297\t\t\t\n      PUSH [tag] 81\t\t\t\n      JUMP \t\t\t\n    tag 297\t\t\t\n      JUMPDEST \t\t\t\n    tag 296\t\t\t\n      JUMPDEST \t\t\t\n      PUSH [tag] 298\t\t\t\n      DUP3 \t\t\t\n      SLOAD \t\t\t\n      PUSH [tag] 30\t\t\t\n      JUMP \t\t\t\n    tag 298\t\t\t\n      JUMPDEST \t\t\t\n      PUSH [tag] 299\t\t\t\n      DUP3 \t\t\t\n      DUP3 \t\t\t\n      DUP6 \t\t\t\n      PUSH [tag] 112\t\t\t\n      JUMP \t\t\t\n    tag 299\t\t\t\n      JUMPDEST \t\t\t\n      PUSH 0\t\t\t\n      PUSH 20\t\t\t\n      SWAP1 \t\t\t\n      POP \t\t\t\n      PUSH 1F\t\t\t\n      DUP4 \t\t\t\n      GT \t\t\t\n      PUSH 1\t\t\t\n      DUP2 \t\t\t\n      EQ \t\t\t\n      PUSH [tag] 301\t\t\t\n      JUMPI \t\t\t\n      PUSH 0\t\t\t\n      DUP5 \t\t\t\n      ISZERO \t\t\t\n      PUSH [tag] 302\t\t\t\n      JUMPI \t\t\t\n      DUP3 \t\t\t\n      DUP8 \t\t\t\n      ADD \t\t\t\n      MLOAD \t\t\t\n      SWAP1 \t\t\t\n      POP \t\t\t\n    tag 302\t\t\t\n      JUMPDEST \t\t\t\n      PUSH [tag] 303\t\t\t\n      DUP6 \t\t\t\n      DUP3 \t\t\t\n      PUSH [tag] 115\t\t\t\n      JUMP \t\t\t\n    tag 303\t\t\t\n      JUMPDEST \t\t\t\n      DUP7 \t\t\t\n      SSTORE \t\t\t\n      POP \t\t\t\n      PUSH [tag] 300\t\t\t\n      JUMP \t\t\t\n    tag 301\t\t\t\n      JUMPDEST \t\t\t\n      PUSH 1F\t\t\t\n      NOT \t\t\t\n      DUP5 \t\t\t\n      AND \t\t\t\n      PUSH [tag] 304\t\t\t\n      DUP7 \t\t\t\n      PUSH [tag] 101\t\t\t\n      JUMP \t\t\t\n    tag 304\t\t\t\n      JUMPDEST \t\t\t\n      PUSH 0\t\t\t\n    tag 305\t\t\t\n      JUMPDEST \t\t\t\n      DUP3 \t\t\t\n      DUP2 \t\t\t\n      LT \t\t\t\n      ISZERO \t\t\t\n      PUSH [tag] 307\t\t\t\n      JUMPI \t\t\t\n      DUP5 \t\t\t\n      DUP10 \t\t\t\n      ADD \t\t\t\n      MLOAD \t\t\t\n      DUP3 \t\t\t\n      SSTORE \t\t\t\n      PUSH 1\t\t\t\n      DUP3 \t\t\t\n      ADD \t\t\t\n      SWAP2 \t\t\t\n      POP \t\t\t\n      PUSH 20\t\t\t\n      DUP6 \t\t\t\n      ADD \t\t\t\n      SWAP5 \t\t\t\n      POP \t\t\t\n      PUSH 20\t\t\t\n      DUP2 \t\t\t\n      ADD \t\t\t\n      SWAP1 \t\t\t\n      POP \t\t\t\n      PUSH [tag] 305\t\t\t\n      JUMP \t\t\t\n    tag 307\t\t\t\n      JUMPDEST \t\t\t\n      DUP7 \t\t\t\n      DUP4 \t\t\t\n      LT \t\t\t\n      ISZERO \t\t\t\n      PUSH [tag] 308\t\t\t\n      JUMPI \t\t\t\n      DUP5 \t\t\t\n      DUP10 \t\t\t\n      ADD \t\t\t\n      MLOAD \t\t\t\n      PUSH [tag] 309\t\t\t\n      PUSH 1F\t\t\t\n      DUP10 \t\t\t\n      AND \t\t\t\n      DUP3 \t\t\t\n      PUSH [tag] 114\t\t\t\n      JUMP \t\t\t\n    tag 309\t\t\t\n      JUMPDEST \t\t\t\n      DUP4 \t\t\t\n      SSTORE \t\t\t\n      POP \t\t\t\n    tag 308\t\t\t\n      JUMPDEST \t\t\t\n      PUSH 1\t\t\t\n      PUSH 2\t\t\t\n      DUP9 \t\t\t\n      MUL \t\t\t\n      ADD \t\t\t\n      DUP9 \t\t\t\n      SSTORE \t\t\t\n      POP \t\t\t\n      POP \t\t\t\n      POP \t\t\t\n    tag 300\t\t\t\n      JUMPDEST \t\t\t\n      POP \t\t\t\n      POP \t\t\t\n      POP \t\t\t\n      POP \t\t\t\n      POP \t\t\t\n      POP \t\t\t\n      JUMP \t\t\t\n    tag 116\t\t\t\n      JUMPDEST \t\t\t\n      PUSH 0\t\t\t\n      PUSH [tag] 311\t\t\t\n      DUP3 \t\t\t\n      PUSH [tag] 69\t\t\t\n      JUMP \t\t\t\n    tag 311\t\t\t\n      JUMPDEST \t\t\t\n      PUSH [tag] 312\t\t\t\n      DUP2 \t\t\t\n      DUP6 \t\t\t\n      PUSH [tag] 91\t\t\t\n      JUMP \t\t\t\n    tag 312\t\t\t\n      JUMPDEST \t\t\t\n      SWAP4 \t\t\t\n      POP \t\t\t\n      PUSH [tag] 313\t\t\t\n      DUP2 \t\t\t\n      DUP6 \t\t\t\n      PUSH 20\t\t\t\n      DUP7 \t\t\t\n      ADD \t\t\t\n      PUSH [tag] 71\t\t\t\n      JUMP \t\t\t\n    tag 313\t\t\t\n      JUMPDEST \t\t\t\n      PUSH [tag] 314\t\t\t\n      DUP2 \t\t\t\n      PUSH [tag] 72\t\t\t\n      JUMP \t\t\t\n    tag 314\t\t\t\n      JUMPDEST \t\t\t\n      DUP5 \t\t\t\n      ADD \t\t\t\n      SWAP2 \t\t\t\n      POP \t\t\t\n      POP \t\t\t\n      SWAP3 \t\t\t\n      SWAP2 \t\t\t\n      POP \t\t\t\n      POP \t\t\t\n      JUMP \t\t\t\n    tag 55\t\t\t\n      JUMPDEST \t\t\t\n      PUSH 0\t\t\t\n      PUSH 100\t\t\t\n      DUP3 \t\t\t\n      ADD \t\t\t\n      SWAP1 \t\t\t\n      POP \t\t\t\n      DUP2 \t\t\t\n      DUP2 \t\t\t\n      SUB \t\t\t\n      PUSH 0\t\t\t\n      DUP4 \t\t\t\n      ADD \t\t\t\n      MSTORE \t\t\t\n      PUSH [tag] 316\t\t\t\n      DUP2 \t\t\t\n      DUP12 \t\t\t\n      PUSH [tag] 116\t\t\t\n      JUMP \t\t\t\n    tag 316\t\t\t\n      JUMPDEST \t\t\t\n      SWAP1 \t\t\t\n      POP \t\t\t\n      PUSH [tag] 317\t\t\t\n      PUSH 20\t\t\t\n      DUP4 \t\t\t\n      ADD \t\t\t\n      DUP11 \t\t\t\n      PUSH [tag] 78\t\t\t\n      JUMP \t\t\t\n    tag 317\t\t\t\n      JUMPDEST \t\t\t\n      PUSH [tag] 318\t\t\t\n      PUSH 40\t\t\t\n      DUP4 \t\t\t\n      ADD \t\t\t\n      DUP10 \t\t\t\n      PUSH [tag] 78\t\t\t\n      JUMP \t\t\t\n    tag 318\t\t\t\n      JUMPDEST \t\t\t\n      PUSH [tag] 319\t\t\t\n      PUSH 60\t\t\t\n      DUP4 \t\t\t\n      ADD \t\t\t\n      DUP9 \t\t\t\n      PUSH [tag] 78\t\t\t\n      JUMP \t\t\t\n    tag 319\t\t\t\n      JUMPDEST \t\t\t\n      PUSH [tag] 320\t\t\t\n      PUSH 80\t\t\t\n      DUP4 \t\t\t\n      ADD \t\t\t\n      DUP8 \t\t\t\n      PUSH [tag] 78\t\t\t\n      JUMP \t\t\t\n    tag 320\t\t\t\n      JUMPDEST \t\t\t\n      PUSH [tag] 321\t\t\t\n      PUSH A0\t\t\t\n      DUP4 \t\t\t\n      ADD \t\t\t\n      DUP7 \t\t\t\n      PUSH [tag] 78\t\t\t\n      JUMP \t\t\t\n    tag 321\t\t\t\n      JUMPDEST \t\t\t\n      PUSH [tag] 322\t\t\t\n      PUSH C0\t\t\t\n      DUP4 \t\t\t\n      ADD \t\t\t\n      DUP6 \t\t\t\n      PUSH [tag] 78\t\t\t\n      JUMP \t\t\t\n    tag 322\t\t\t\n      JUMPDEST \t\t\t\n      PUSH [tag] 323\t\t\t\n      PUSH E0\t\t\t\n      DUP4 \t\t\t\n      ADD \t\t\t\n      DUP5 \t\t\t\n      PUSH [tag] 78\t\t\t\n      JUMP \t\t\t\n    tag 323\t\t\t\n      JUMPDEST \t\t\t\n      SWAP10 \t\t\t\n      SWAP9 \t\t\t\n      POP \t\t\t\n      POP \t\t\t\n      POP \t\t\t\n      POP \t\t\t\n      POP \t\t\t\n      POP \t\t\t\n      POP \t\t\t\n      POP \t\t\t\n      POP \t\t\t\n      JUMP \t\t\t\n    .data\n"
}